:020000040800F2
:100000007006002079020008510E00084D0E00080D
:100010004F0E00087F030008D10E0008000000000A
:10002000000000000000000000000000550E000865
:100030008103000800000000530E0008570E00085E
:10004000930200089302000893020008930200083C
:10005000930200089302000893020008930200082C
:10006000930200089302000893020008930200081C
:10007000930200089302000893020008930200080C
:100080009302000800000000930200089302000899
:1000900093020008930200089302000893020008EC
:1000A00093020008930200089302000893020008DC
:1000B00093020008930200089302000893020008CC
:1000C00093020008930200089302000893020008BC
:1000D00093020008930200089302000893020008AC
:1000E000930200089302000893020008930200089C
:1000F0009302000893020008930200080000000029
:1001000000000000930200080000000093020008B5
:100110009302000800000000930200089302000808
:10012000930200089302000893020008930200085B
:100130009302000800000000000000009302000885
:100140009302000893020008000000000000000075
:10015000000000000000000000000000000000009F
:1001600000000000000000000000000093020008F2
:1001700093020008000000000000000000000000E2
:1001800000000000930200080000000000000000D2
:10019000000000000000000000000000000000005F
:1001A0000000000000000000930200089302000815
:1001B0009302000893020008930200080000000068
:1001C0000000000093020008000000000000000092
:1001D000930200089302000800F002F800F03CF8D7
:1001E0000AA090E8000C82448344AAF10107DA4592
:1001F00001D100F031F8AFF2090EBAE80F0013F0A8
:10020000010F18BFFB1A43F001031847F40D00005B
:10021000140E0000103A24BF78C878C1FAD85207EB
:1002200024BF30C830C144BF04680C607047000070
:100230000023002400250026103A28BF78C1FBD8EF
:10024000520728BF30C148BF0B6070471FB500F090
:10025000C9FE1FBD10B510BD00F058F81146FFF7DC
:10026000F5FF00F09FFE00F076F803B4FFF7F2FF11
:1002700003BC00F07DF800000948804709480047AA
:10028000FEE7FEE7FEE7FEE7FEE7FEE7FEE7FEE746
:10029000FEE7FEE704480549054A064B70470000A3
:1002A000C10E0008D901000870000020700600206F
:1002B00070020020700200204FF0000200B51346CB
:1002C00094469646203922BFA0E80C50A0E80C5076
:1002D000B1F12001BFF4F7AF090728BFA0E80C5027
:1002E00048BF0CC05DF804EB890028BF40F8042B20
:1002F00008BF704748BF20F8022B11F0804F18BF8D
:1003000000F8012B7047704770477047754600F042
:100310002BF8AE4605006946534620F00700854697
:1003200018B020B5FFF7B6FFBDE820404FF000063B
:100330004FF000074FF000084FF0000B21F00701CD
:10034000AC46ACE8C009ACE8C009ACE8C009ACE810
:10035000C0098D46704710B50446AFF300802046B3
:10036000BDE81040FFF781BF004870471000002033
:1003700001491820ABBEFEE7260002007047FEE7E9
:10038000704700002DE9F04FDFF82092002301268E
:100390000324A9F1040B85B00F2709F1040AABF17E
:1003A000040EFAE006FA03F52A407CD091F804C066
:1003B0000CF0030CBCF1010F02D0BCF1020F26D1EE
:1003C000D0F808C0CDF800C04FEA430C04FA0CF88E
:1003D000CDF810C0DDF800C02CEA080CCDF800C044
:1003E000D1F80C80DDF810C008FA0CF8DDF800C078
:1003F00048EA0C08C0F80880D0F804C02CEA050CC4
:100400000D79C5F300159D4045EA0C0545600D7951
:10041000ED43AD070ED0C5684FEA430804FA08FC67
:1004200025EA0C05D1F808C00CFA08FC4CEA050CCA
:10043000C0F80CC00D7905F00305022D16D1DD08BA
:1004400000EB850CCDF808C0DCF820805D074FEA92
:10045000D56C07FA0CF528EA05080D6905FA0CF5C4
:10046000DDF808C045EA0805CCF8205005684FEAD9
:10047000430CCDF808C004FA0CFC25EA0C0591F8F1
:1004800004C00CF00308DDF808C008FA0CF848EACC
:100490000508C0F800804D6815F4403F7CD0444DFD
:1004A000D5F860C000E077E04CF0010CC5F860C002
:1004B0002D6E23F0030C05F0010500953D4D6544BC
:1004C0000295AD684FEA837C4FEA1C7807FA08FC76
:1004D00025EA0C05B0F1904F06D0DFF8DCC060458E
:1004E00005D14FF0010C20E04FF0000C1DE0DFF8CB
:1004F000CCC0604502D14FF0020C16E0DFF8C0C05E
:10050000604502D14FF0030C0FE0DFF8B8C0604542
:1005100002D14FF0040C08E0DFF8ACC0604502D116
:100520004FF0050C01E04FF0060C0CFA08FC4CEA09
:10053000050C029DC5F808C0D9F80050CC46D1F88A
:10054000048095435FEAC82800D51543CCF80050D5
:10055000DAF80050D446D1F8048095435FEA882841
:1005600000D51543CCF80050DBF80050DC46D1F83C
:10057000048095435FEA883800D51543CCF80050D5
:10058000DEF80050F446D1F8048095435FEAC8389D
:1005900000D51543CCF800505B1C0A6832FA03F50D
:1005A0007FF400AF05B0BDE8F08F00000804014003
:1005B000001002400000014000040048000800480C
:1005C000000C004800100048001400480069084072
:1005D00000D001207047426921EA02030A4043EA41
:1005E0000241816170470AB1816170478162704741
:1005F00001488068704700000000002002488168C0
:1006000042681144816070470000002010B500244A
:10061000032000F065F80F2000F008F808B101246D
:1006200001E000F025F8204610BD000070B50E4E28
:1006300005460024706898B14FF47A71B1FBF0F070
:100640000A490968B1FBF0F000F0ECFB40B9102D4D
:1006500006D200222946501E00F022F8356000E044
:100660000124204670BD0000000000200C00002086
:100670000A4882B0016E41F001010166016E01F08D
:1006800001010091816D41F080518165806D00F024
:100690008050009002B000F093B8000000100240BB
:1006A000F0B40E4B1B680C46C3F30223C3F10705DD
:1006B000042D00D90425191D072901D2002300E0CB
:1006C000DB1E012606FA05F1491E214099409E4095
:1006D000761E16403143F0BC00F0FBBB0CED00E091
:1006E000064900F0070208684FF6FF03184040EA89
:1006F0000220034A10430860704700000CED00E040
:100700000000FA052B492C4B0A6832214A432B4939
:1007100040B1B0F5007F086829D020F4C06040F4F3
:1007200080602CE00868C0F34120022804D051F812
:10073000800F20F4807022E0D1F8800020F48070D7
:10074000C1F88000086820F4C06040F400700860C0
:10075000B2FBF3F0401C00E0401E4A69520501D58F
:100760000028F9D1486940050AD503207047C0F335
:100770004120022806D051F8800F40F480700860B4
:1007800000207047D1F8800040F48070C1F88000EC
:10079000086820F4C06040F400700860B2FBF3F019
:1007A000401C00E0401E4A695205DBD50028F9D103
:1007B000D8E700000C00002040420F00007000400D
:1007C0000248816841F480418160704700700040B8
:1007D0002DE9F0470E4605004FF0000725D0DFF861
:1007E000AC81D8F8000000F00F00B0420CD2D8F86D
:1007F000001021F00F013143C8F80010D8F80000B4
:1008000000F00F00B04210D12968614CC80741F2D6
:10081000883A5AD06868DFF87C91032808D002280B
:1008200020682DD0400500282CDB0120BDE8F08792
:1008300020688001F9D5E06800F00302E068C0F3A9
:100840000310401C032A19D0534A00BFB2FBF0F03A
:10085000E268C2F306225043E268C2F34162521CCE
:100860005200B0FBF2F0484517D9A06810F0F00F25
:100870000CD0880711D5A86840B10EE0474AE5E7DB
:100880008003D0E700F092F8484506D9A06820F030
:10089000F00040F08000A0608027A068696820F028
:1008A00003000843A060FFF7A3FE814606E000BFF7
:1008B000FFF79EFEA0EB090151453AD8A068696890
:1008C00000F00C00B0EB810FF2D12868810714D53D
:1008D000400703D5A06840F4E060A06028780007D6
:1008E00005D5A06820F4605040F4E060A060A068E6
:1008F000A96820F0F000084304E0802F03D1A0682D
:1009000020F0F000A060D8F80010404601F00F0180
:10091000B14216D9016821F00F0131430160FFF7A0
:1009200067FE074607E000BFFFF762FEC11B5145A7
:1009300001D903207AE7D8F8000000F00F00B04298
:10094000F2D12878400705D5A068E96820F4E06076
:100950000843A0602878000706D5A068296920F41C
:10096000605040EAC100A06000F020F8A1680C4A85
:10097000C1F30311515C01F01F01C840094908602F
:1009800009480068BDE8F047FFF750BE002002406C
:100990000010024000B4C4040024F40000127A00E5
:1009A000EE0F00080C00002000000020184910B5D0
:1009B0008868C0F381021748012A0BD08A68431067
:1009C000C2F38102022A06D08A68C2F38102032A96
:1009D00003D0002010BD184610BDCA6802F0030401
:1009E000CA68C2F30312521C032C02D0B0FBF2F00F
:1009F00001E0B3FBF2F0CA68C968C2F306225043B3
:100A0000C1F34161491C4900B0FBF1F010BD000089
:100A1000001002400024F4002DE9F84304007AD0CD
:100A20002078FA4DC00747D0A868E96800F00C00AC
:100A300001F003010C2802D0082817D001E0032997
:100A400014D06068B0F5803F17D0B0F5A02F2868AB
:100A500017D020F480302860286820F48020286097
:100A60006068E0B1FFF7C4FD064614E02868800323
:100A700022D560680028D2D01EE0286840F480307B
:100A8000EDE740F480202860F7E700BFFFF7B0FDF6
:100A9000801B642870D828688003F7D50CE0FFF726
:100AA000A7FD064605E000BFFFF7A2FD801B6428F6
:100AB000F0D828688003F7D4207880074CD5A86840
:100AC000E96800F00C0001F003010C2802D00428B2
:100AD0000DD001E002290AD0E068002828682BD058
:100AE00040F480702860FFF783FD064619E028680F
:100AF000400502D5E068002891D06868217C20F08C
:100B0000FE4040EA01606860C1480068FFF78EFD62
:100B1000002800D120E076E1FFF76AFD801B022863
:100B2000B8D828684005F7D56868217C20F0FE40D9
:100B300040EA016068600FE020F480702860FFF7F1
:100B400057FD064605E000BFFFF752FD801B022857
:100B5000A0D828684005F7D42078000729D5606917
:100B60000028D5F8940013D040F00100C5F8940097
:100B7000FFF73EFD064606E090E000BFFFF738FDB8
:100B8000801B022886D8D5F894008007F6D510E09F
:100B900020F00100C5F89400FFF72AFD064604E0A6
:100BA000FFF726FD801B022878D8D5F8940080072F
:100BB000F6D42078400761D5A86D0026C00008D47F
:100BC000A86D40F08050A865A86D012600F0805007
:100BD000009090480168C90511D40168804641F42D
:100BE00080710160FFF704FD074604E0FFF700FD98
:100BF000C01B022852D8D8F80000C005F6D5A0685E
:100C0000012815D00528D5F8900016D020F0010055
:100C1000C5F89000D5F8900020F00400C5F89000C9
:100C2000A06841F28838B8B1FFF7E2FC07460EE051
:100C3000D5F8900040F00100F0E740F00400C5F85E
:100C40009000F5E7FFF7D4FCC11B414526D8D5F845
:100C500090008007F6D50CE0FFF7CAFC074604E0D9
:100C6000FFF7C6FCC11B414518D8D5F89000800796
:100C7000F6D41EB1A86D20F08050A86520788006BB
:100C800029D5A0690028D5F8980013D040F00100BC
:100C9000C5F89800FFF7ACFC064606E077E000BF19
:100CA000FFF7A6FC801B022877D8D5F898008007AC
:100CB000F6D510E020F00100C5F89800FFF798FC89
:100CC000064604E0FFF794FC801B022865D8D5F89F
:100CD00098008007F6D4E069F0B3A968C1F38101F8
:100CE000032961D00228286820F0807028600BD08A
:100CF000E86820F00300E860E86847490840E860D9
:100D0000FFF776FC04464BE0FFF772FC064604E072
:100D1000FFF76EFC801B02283FD828688001F7D4BB
:100D2000F4E908016FF00F0202EB01110843218A78
:100D30005204490802EB4151A26841EA02210843EA
:100D4000217D4FF07E42490802EB41610843217B3F
:100D500040EAC160E96800E062E0304A11400843BF
:100D6000E860286840F080702860E86840F0807093
:100D7000E860FFF73DFC044605E000BFFFF738FCE4
:100D8000001B022809D828688001F7D548E004E054
:100D9000FFF72EFC001B022802D90320BDE8F883D0
:100DA00028688001F4D43BE00128F7D0E868226A83
:100DB00000F00301914226D1616A00F0F0020901BE
:100DC000103991421FD1A26A00F4FE41B1EB022F0B
:100DD00019D194F82C2000F07841B1EBC26F12D1F8
:100DE000218E00F4C00249084905A1F50011914285
:100DF00009D194F8341000F0C06049084906A1F107
:100E0000007181420CD00120C8E7000000100240B0
:100E10000000002000700040FFFFEEFE0C809F01EC
:100E20000020BBE710B5401EB0F1807F01D3012048
:100E300010BD4FF0E02460610F21601700F049F809
:100E40000020A06107202061002010BDFEE7FEE722
:100E5000FEE770477047FFF7D1BB10B594B038215B
:100E60006846FFF729FA14210EA8FFF725FA00209B
:100E7000FFF748FC012000900004019002200324A9
:100E8000CDE907045521CDE909010B900C900D9097
:100E90006846FFF7C1FD08B172B6FEE70F20CDE945
:100EA0000E04002010901190129004210EA8FFF75C
:100EB0008FFC002801D072B6FEE714B010BD000010
:100EC0000248016841F470010160704788ED00E05C
:100ED000FEE70907090E002804DB00F1E02080F896
:100EE0000014704700F00F0000F1E02080F8141D9E
:100EF0007047000010B54FF400510348FFF766FB40
:100F0000012800D0002010BD0008004800B587B0BF
:100F100014216846FFF7D0F90A48C16C41F004017A
:100F2000C164C06C694600F0040005904FF40050A5
:100F3000009000200190022002900348FFF722FA5F
:100F400007B000BD001002400008004810B586B090
:100F500014216846FFF7B0F90D48C16C41F0040157
:100F6000C164C06C0B4C00F00400059000224021CD
:100F70002046FFF738FB4020009001200021CDE9FA
:100F80000101039169462046FFF7FCF906B010BD48
:100F9000001002400008004840210148FFF71BBB39
:100FA00000080048FFF732FBFFF757FFFFF7AEFFDF
:100FB000FFF7CCFFFFF71CFB00F1C804FFF718FB9D
:100FC000FFF716FB0546FFF795FF20B1A542F7D3C3
:100FD00005F1C80403E0A542F2D305F5FA74FFF762
:100FE000DBFFEDE74FF04070E1EE100A70470000C4
:100FF00000000000000001020304060708090000C9
:10100000201000080000002010000000140200085A
:1010100030100008100000206006000030020008B8
:101020001000000001000000000000000024F40097
:04000005080001D915
:00000001FF
