:020000040800F2
:1000000008200020C1020008B72300085F22000872
:10001000B5230008470700087B3F000800000000E8
:10002000000000000000000000000000FB270008A6
:10003000BD0700080000000033270008072800085B
:10004000DB020008DB020008DB020008DB0200081C
:10005000DB020008DB020008DB020008DB0200080C
:10006000DB020008DB020008DB020008DB020008FC
:10007000DB020008DB020008DB020008DB020008EC
:10008000DB02000800000000DB020008013F00085E
:100090000D3F0008DB020008DB020008DB0200085D
:1000A000DB020008DB020008DB020008DB020008BC
:1000B000DB020008DB020008DB020008DB020008AC
:1000C000DB020008DB020008DB020008DB0200089C
:1000D000DB020008DB020008DB020008DB0200088C
:1000E000DB020008DB020008DB020008DB0200087C
:1000F000DB020008DB020008DB0200080000000051
:1001000000000000DB02000800000000DB02000825
:10011000DB02000800000000DB020008DB02000830
:10012000DB020008DB020008DB020008DB0200083B
:10013000DB0200080000000000000000DB020008F5
:10014000DB020008DB0200080000000000000000E5
:10015000000000000000000000000000000000009F
:10016000000000000000000000000000DB020008AA
:10017000DB0200080000000000000000000000009A
:1001800000000000DB02000800000000000000008A
:10019000000000000000000000000000000000005F
:1001A0000000000000000000DB020008DB02000885
:1001B000DB020008DB020008DB0200080000000090
:1001C00000000000DB02000800000000000000004A
:1001D000DB020008DB02000800F002F800F061F822
:1001E0000AA090E8000C82448344AAF10107DA4592
:1001F00001D100F056F8AFF2090EBAE80F0013F083
:10020000010F18BFFB1A43F0010318476C3F0000B1
:100210008C3F00000A444FF0000C10F8013B13F033
:10022000070408BF10F8014B1D1108BF10F8015B4F
:10023000641E05D010F8016B641E01F8016BF9D142
:1002400013F0080F1EBF10F8014BAD1C0C1B09D199
:100250006D1E58BF01F801CBFAD505E014F8016B0B
:1002600001F8016B6D1EF9D59142D6D3704700009D
:100270000023002400250026103A28BF78C1FBD8AF
:10028000520728BF30C148BF0B607047642900F097
:100290007580002070471FB503F058FF1FBD10B5D3
:1002A00010BD00F016FA1146FFF7F5FF03F0E2FE6D
:1002B00000F034FA03B4FFF7F2FF03BC00F03CFA9D
:1002C0000948804709480047FEE7FEE7FEE7FEE7EA
:1002D000FEE7FEE7FEE7FEE7FEE7FEE70448054926
:1002E000054A064B704700008D280008D901000818
:1002F0000814002008200020081C0020081C0020F2
:100300000FB41CB5084B06AA7B44694600900598BB
:1003100000F0C7F904460020694600F0D5F92046F0
:100320001CBC5DF814FB0000BD03000070B5044662
:1003300085690068C10601D5302600E02026C00787
:1003400007D070BDD4E9012130469047206A401C97
:1003500020626D1EF6D570BD70B5044685690078C3
:10036000C00707D170BDD4E9012120209047206A41
:10037000401C20626D1EF6D570BD00002DE9F041D5
:100380000646002410687529314616A510D0AFF333
:100390000080002802DA404213A507E031688A078E
:1003A00001D512A502E0490704D511A5012401E0F9
:1003B000AFF3008000210A2206F1240709E0B0FB18
:1003C000F2FCB0FBF2F302FB1C003030785418460C
:1003D000491C0028F3D123462A463046BDE8F041A7
:1003E00000F000B9000000002D0000002B0000000C
:1003F000200000002DE9F05F894604464FF0000A16
:10040000DFF824B1FB44C0F820A02046E16888470B
:1004100000287DD0252806D0D4E901219047206A04
:10042000401C2062F1E700255F462046E1688847CE
:100430002028064607DB312E05D2B81910F8200C0B
:1004400008B10543F1E7A80701D525F00405C4F874
:100450001CA00027C4F818A02A2E09D0304603F0AB
:100460009DFD38B304EB8708303EC8F8186019E0EA
:1004700059F8041B204604EB87029161E168884724
:10048000012F064618D1E069002820DA25F0200562
:100490001DE0D8F8180000EB800006EB4000303873
:1004A000C8F818002046E1688847064603F076FD44
:1004B0000028EED1012F0AD02E2E08D12046E16867
:1004C00088477F1C0646022F45F02005C4DBA06943
:1004D000002803DA404245F00105A061E80701D099
:1004E00025F01005A6B1A6F14100192802D8203642
:1004F00045F400654A463146204625604D46FFF7E3
:10050000C5FE60B1012807D0ED1D25F0070000E011
:1005100007E000F1080978E705F1040975E73046BE
:100520007AE7206ABDE8F09F5E3D000010B5203AF2
:10053000C0F00B80B1E81850203AA0E81850B1E89C
:100540001850A0E81850BFF4F5AF5FEA027C24BF52
:10055000B1E81850A0E8185044BF18C918C0BDE849
:1005600010405FEA827C24BF51F8043B40F8043B12
:1005700008BF7047D20728BF31F8023B48BF11F8C7
:10058000012B28BF20F8023B48BF00F8012B704721
:100590004FF0000200B5134694469646203922BF1C
:1005A000A0E80C50A0E80C50B1F12001BFF4F7AF67
:1005B000090728BFA0E80C5048BF0CC05DF804EB49
:1005C000890028BF40F8042B08BF704748BF20F8B7
:1005D000022B11F0804F18BF00F8012B70477047B5
:1005E000704770472DE9F0470D46994692460446FC
:1005F00000F124080168880604D5E06921F01001A3
:10060000216000E00120A84201DD471B00E0002737
:10061000A1697A1902EB0900081AA0612078C006C6
:1006200002D42046FFF782FE002608E0D4E901212B
:100630001AF806009047206A401C761C20624E453E
:10064000F4DB2078C0060AD52046FFF76FFE06E0EF
:10065000D4E9012130209047206A401C2062381ED6
:10066000A7F10107F4DC07E0D4E9012118F805003F
:100670009047206A401C2062281EA5F10105F3DC8A
:100680002046FFF769FE2078000602D50220BDE86B
:10069000F0870120FBE7000001694A1C026108782D
:1006A000704700B58FB0CDE90131002105910549B2
:1006B0007944CDE9031011466846FFF79BFE0FB061
:1006C00000BD0000E5FFFFFF0A6802F8010B0A60A9
:1006D0007047754600F02CF8AE4605006946534653
:1006E00020F00700854618B020B5FFF7F7FDBDE8FC
:1006F00020404FF000064FF000074FF000084FF089
:10070000000B21F00701AC46ACE8C009ACE8C00919
:10071000ACE8C009ACE8C0098D46704710B5044686
:10072000AFF300802046BDE81040FFF7C3BD0000D6
:1007300000487047A813002001491820ABBEFEE70F
:10074000260002007047FEE7002070470020704737
:1007500010B500220449054802F023FA0449034871
:1007600002F016FA002010BDA80F0020D8060020C5
:10077000A80B002010B50146034802F009FA024810
:1007800002F0CEF9002010BDD806002000207047EE
:10079000094A10B5D2F8BC22D2F814220AB10120BD
:1007A00010BD0A460146044802F0FBF9BDE81040BE
:1007B000014802F060BA0000D8060020704772B607
:1007C000FEE700002DE9F04FDFF82092002301261C
:1007D0000324A9F1040B85B00F2709F1040AABF13A
:1007E000040EFAE006FA03F52A407CD091F804C022
:1007F0000CF0030CBCF1010F02D0BCF1020F26D1AA
:10080000D0F808C0CDF800C04FEA430C04FA0CF849
:10081000CDF810C0DDF800C02CEA080CCDF800C0FF
:10082000D1F80C80DDF810C008FA0CF8DDF800C033
:1008300048EA0C08C0F80880D0F804C02CEA050C7F
:100840000D79C5F300159D4045EA0C0545600D790D
:10085000ED43AD070ED0C5684FEA430804FA08FC23
:1008600025EA0C05D1F808C00CFA08FC4CEA050C86
:10087000C0F80CC00D7905F00305022D16D1DD0876
:1008800000EB850CCDF808C0DCF820805D074FEA4E
:10089000D56C07FA0CF528EA05080D6905FA0CF580
:1008A000DDF808C045EA0805CCF8205005684FEA95
:1008B000430CCDF808C004FA0CFC25EA0C0591F8AD
:1008C00004C00CF00308DDF808C008FA0CF848EA88
:1008D0000508C0F800804D6815F4403F7CD0444DB9
:1008E000D5F860C000E077E04CF0010CC5F860C0BE
:1008F0002D6E23F0030C05F0010500953D4D654478
:100900000295AD684FEA837C4FEA1C7807FA08FC31
:1009100025EA0C05B0F1904F06D0DFF8DCC0604549
:1009200005D14FF0010C20E04FF0000C1DE0DFF886
:10093000CCC0604502D14FF0020C16E0DFF8C0C019
:10094000604502D14FF0030C0FE0DFF8B8C06045FE
:1009500002D14FF0040C08E0DFF8ACC0604502D1D2
:100960004FF0050C01E04FF0060C0CFA08FC4CEAC5
:10097000050C029DC5F808C0D9F80050CC46D1F846
:10098000048095435FEAC82800D51543CCF8005091
:10099000DAF80050D446D1F8048095435FEA8828FD
:1009A00000D51543CCF80050DBF80050DC46D1F8F8
:1009B000048095435FEA883800D51543CCF8005091
:1009C000DEF80050F446D1F8048095435FEAC83859
:1009D00000D51543CCF800505B1C0A6832FA03F5C9
:1009E0007FF400AF05B0BDE8F08F000008040140BF
:1009F00000100240000001400004004800080048C8
:100A0000000C00480010004800140048006908402D
:100A100000D001207047426921EA02030A4043EAFC
:100A20000241816170470AB18161704781627047FC
:100A30000148806870470000040000200248816877
:100A400042681144816070470400002010B5002402
:100A5000032000F073F80F2000F008F808B101241B
:100A600001E000F025F8204610BD000070B50E4EE4
:100A700005460024706898B14FF47A71B1FBF0F02C
:100A80000A490968B1FBF0F001F0D5FB40B9102D1F
:100A900006D200222946501E00F030F8356000E0F2
:100AA0000124204670BD000004000020100000203A
:100AB0000A4882B0016E41F001010166016E01F049
:100AC00001010091816D41F080518165806D00F0E0
:100AD0008050009002B000F09DBD00000010024068
:100AE000002809DB00F01F0201219140400980002D
:100AF00000F1E020C0F8001170470000F0B40E4B88
:100B00001B680C46C3F30223C3F10705042D00D96B
:100B10000425191D072901D2002300E0DB1E012650
:100B200006FA05F1491E214099409E40761E164066
:100B30003143F0BC03F022BA0CED00E0064900F0AE
:100B4000070208684FF6FF03184040EA0220034AF4
:100B500010430860704700000CED00E00000FA054B
:100B600001220168C0F8E822002280F8E02231F872
:100B7000540F40F001000880088840F0020008800F
:100B80001046704770B50F4D044669B101290AD16E
:100B9000D4F8F00202F044FBA069002803D02868D2
:100BA00040F00600286070BDA06928B101F02EFE5B
:100BB000286820F006002860D4F8F002BDE87040F4
:100BC00002F0C6BA10ED00E010B50C0607D501F032
:100BD000070101EB810100EBC100283005E001EBCA
:100BE000810100EBC10000F5B47099B232B101226D
:100BF00002730181190C4181002010BD0022027393
:100C0000C180F9E701EB810200EBC202D0F8F002EB
:100C1000D26B02F078B901EB810200EBC202D0F88E
:100C2000F002D2F87C2102F0C2B970B504460B067E
:100C300001F0070000EB800104EBC1014FF001025D
:100C40004FF0000503D581F82920283103E081F811
:100C5000695101F5B471087094F8A802012808D010
:100C600084F8A822206802F00BFE84F8A852002025
:100C700070BD022070BD70B5044601F00F006268BF
:100C8000904201D9012070BD0B0601F0070000EB76
:100C9000800104EBC1014FF001024FF0000503D5C4
:100CA00081F82920283103E081F8695101F5B471F8
:100CB0008D70087094F8A802012808D084F8A82242
:100CC000206802F07CFE84F8A852002070BD02204B
:100CD00070BD2DE9F04704685FEA42480B788D69E2
:100CE000B4F850804FF0000C4BF68F7748F2800636
:100CF00048F68F7948F2C00A444428D540F20248A9
:100D000008EBC30834F80840C4F30904A54203D330
:100D10002D1B8D6102D00BE0C1F818C0D0F800C0C7
:100D20003CF823503D4085F4005535432CF82350C2
:100D3000520609D50B78056835F8232002EA090226
:100D400042EA0A0225F8232074B30A8927E040F218
:100D5000064808EBC30834F80840C4F30904A54268
:100D600003D32D1B8D6102D00BE0C1F818C0D0F861
:100D700000C03CF823503D4085F4005535432CF825
:100D80002350520609D40D78036833F8252002EA6F
:100D9000090242EA0A0223F825202CB14A8949694E
:100DA0000068234603F0BBF82046BDE8F0872DE934
:100DB000F047054600680C465FEA42681646D1F8DF
:100DC00018C02278B0F8508048F68F774CF280092E
:100DD0004FF400434FF6FF7A4FF0000140447BD5BB
:100DE00040F2024808EBC20830F80800C0F30900DE
:100DF000844514D9BCEB000CC4F818C010D076049C
:100E000008D5D5F800C03CF822603E4046EA090605
:100E10002CF8226094F82420012A50D04EE1A161E0
:100E2000607810B1012813D01AE02868B0F850306B
:100E3000184400EBC200B0F8022422F4F842A0F8F3
:100E40000224B0F8022442F40042A0F8022407E091
:100E50002868B0F85030184400EBC200A0F8021423
:100E60006278286812B1012A11D018E0B0F8501049
:100E70000844217800EBC100B0F8061421F4F841D1
:100E8000A0F80614B0F8061441F4004105E0B0F8EB
:100E900050201044227800EBC200A0F806142178FC
:100EA0002846FFF7AFFE7004B8D521782A6832F8DB
:100EB0002100384040EA090022F82100FEE0626982
:100EC00002446261E2690244E2612669226AB24236
:100ED00003D33046111A04E038E084F824100AB134
:100EE00010462162617811B1012923D02BE02968D5
:100EF000B1F850203E281144227801EBC20101F2E2
:100F0000024106D94209C60600D1521E43EA822296
:100F10000EE030B14208C30700D0521C0AEA822218
:100F200006E00A8822F4F8420A800A8842F4004265
:100F30000A8008E02968B1F850201144227801EBBA
:100F4000C201A1F8020483B22289B3E040F206484C
:100F500008EBC20830F80800C0F30900844514D338
:100F6000BCEB000CC4F818C010D0760408D4D5F837
:100F700000C03CF822603E4046EA09062CF8226098
:100F800094F82420012A50D098E0A161607810B133
:100F9000012813D01AE02868B0F85030184400EB4C
:100FA000C200B0F8022422F4F842A0F80224B0F8FB
:100FB000022442F40042A0F8022407E02868B0F8B6
:100FC0005030184400EBC200A0F802146278286880
:100FD00012B1012A11D018E0B0F85010084421785D
:100FE00000EBC100B0F8061421F4F841A0F8061493
:100FF000B0F8061441F4004105E0B0F85020104468
:10100000227800EBC200A0F8061421782846FFF7EA
:10101000F9FD700452D42278296831F82200384052
:1010200040EA090021F8220048E062690244626156
:10103000E2690244E2612669226AB24203D3304681
:10104000111A216204E00AB11046216284F82410CA
:101050006278296812B1012A22D029E0B1F8502023
:101060003E281144227801EBC20101F2064106D963
:101070004209C60600D1521E43EA82220EE030B178
:101080004208C30700D0521C0AEA822206E00A88FE
:1010900022F4F8420A800A8842F400420A8007E0FB
:1010A000B1F850201144227801EBC201A1F80604E6
:1010B000628983B26169286802F04CFF227829684E
:1010C00031F8220048F6BF73184080F0300048F233
:1010D0008003184321F822000020BDE8F08701F0CA
:1010E000070101EB810100EBC100D0F884017047DA
:1010F0002DE9F04104460F0601F0070000EB8001E6
:1011000004EBC1014FF001064FF0000503D581F853
:101110002960283103E081F8695101F5B471087044
:101120000A61CB704A7802B1C881022B00D10D71DF
:1011300094F8A802012809D084F8A862206802F077
:101140006BFA284684F8A852BDE8F0810220FBE73C
:1011500070B50C4601F0070505EB850100EBC101F8
:10116000C1E95F230022C1F8842181F8692181F857
:10117000685101F5B4716207006802F075FC002047
:1011800070BD70B5044601F007006268904201D955
:10119000012070BD0B064FF000054FF0010207D58E
:1011A00000EB800104EBC10181F82920283107E020
:1011B00001EB810104EBC10181F8695101F5B471C2
:1011C0008A70087094F8A802012808D084F8A82230
:1011D000206802F030FC84F8A852002070BD022084
:1011E00070BD70B50C4601F0070505EB850100EBFD
:1011F000C101C1E90F23012281F84C208B64002337
:101200004B6481F8292001F8285F6207006802F02A
:101210002BFC002070BD10B50446006802F07CFE77
:10122000010404D52046BDE8104001F0C5B84105D1
:101230000ED5206830F8441F21F4806101802046DB
:1012400000F01CF92046BDE81040002100F042B932
:10125000410405D5206830F8441F21F480417DE029
:10126000810405D5206830F8441F21F4005175E051
:10127000C1041FD5206830F8401F21F0040101800F
:10128000206830F8401F21F00801018094F8E00246
:10129000012806D1002084F8E00201462046FFF72D
:1012A00071FC204600F0FEF8206830F8441F21F45D
:1012B000805153E0010512D5206830F8401F41F0FD
:1012C00008010180206830F8441F21F4006101808A
:1012D000206830F8401F41F0040101800AE0010657
:1012E00029D5206830F8441F21F08001018094F84E
:1012F000E00218B1204600F01DF910BD206830F85A
:10130000401F41F004010180206830F8401F41F087
:1013100008010180012084F8E0022068B0F8540040
:101320003C2101EA9000C4F8E4022046BDE81040E8
:101330000121FFF727BC810509D5206830F8441F3B
:1013400021F400710180204600F0C0F810BDC005F6
:10135000FCD5206830F8441F21F48071018010BD55
:1013600070B586B0040004D094F8A902002518B125
:1013700007E0012006B070BD84F8A852204600F0B6
:1013800049F8032084F8A902206802F010FB00202D
:1013900001260EE000EB800104EBC10181F8296019
:1013A00001F8280FC881CD700D614D61401CC0B29D
:1013B0008D6161688142EDD8002011E000EB800171
:1013C00004EBC10181F8695181F8680181F86B5122
:1013D000C1F87851C1F87C51401CC0B2C1F88051AD
:1013E00061688142EAD8142204F110016846FFF7CF
:1013F0009DF894E80F0002F0D1FA84F8245084F8A4
:10140000A962E069012802D12046FFF7A9FB00206C
:10141000B0E7000010B592B0044644216846FFF7DB
:10142000B7F814492068884222D140140090002067
:101430000D90684600F0FEF808B1FFF7C0F90E48BD
:10144000816D41F400018165806D002200F400008F
:10145000119011461320FFF751FB1320FFF740FBBB
:10146000002211461420FFF749FB1420FFF738FB38
:1014700012B010BD005C00400010024070B5044680
:1014800080680125022801D0FFF799F92946D4F890
:10149000F00201F077FED4F8F002BDE8704001F0F0
:1014A0002ABE000010B50446806930B106480168C4
:1014B00021F00601016001F0A9F9D4F8F002BDE8BD
:1014C000104001F045BE000010ED00E0D0F8F00241
:1014D00001F048BE10B5044690F8A80201280BD0D0
:1014E000012084F8A80284F82410206802F02BFD63
:1014F000002084F8A80210BD022010BDD0F8F02210
:1015000000F52C71104601F049BE10B5044690F864
:10151000A80201280CD0012084F8A802206802F05B
:10152000E6FC206802F033FA002084F8A80210BD1F
:10153000022010BD10B50446D0F8F00201F070FE94
:10154000A069002804D00348016841F00601016049
:1015500010BD000010ED00E02B492C4B0A68322131
:101560004A432B4940B1B0F5007F086829D020F4E8
:10157000C06040F480602CE00868C0F3412002287D
:1015800004D051F8800F20F4807022E0D1F8800060
:1015900020F48070C1F88000086820F4C06040F436
:1015A00000700860B2FBF3F0401C00E0401E4A6986
:1015B000520501D50028F9D1486940050AD5032014
:1015C0007047C0F34120022806D051F8800F40F444
:1015D0008070086000207047D1F8800040F480706F
:1015E000C1F88000086820F4C06040F40070086012
:1015F000B2FBF3F0401C00E0401E4A695205DBD507
:101600000028F9D1D8E700001000002040420F0068
:10161000007000400248816841F480418160704759
:10162000007000400248016841F480710160704719
:10163000007000402DE9F8430446006800269D4DE7
:1016400000035ED5A86D0027C00008D4A86D40F047
:101650008050A865A86D012700F080500090DFF849
:101660005892D9F8001041F48071C9F80010FFF7C2
:10167000DFF9804606E000BFFFF7DAF9A0EB0800CB
:1016800002282BD8D9F80000C005F5D5D5F8900070
:1016900010F4407014D0216C814211D0D5F8900024
:1016A000D5F8901020F4407041F48031C5F89010C6
:1016B000D5F8901021F48031C5F89010C5F890004D
:1016C000C00711D0FFF7B4F9804641F2883907E02E
:1016D000FFF7AEF9A0EB0801494501D903260BE05D
:1016E000D5F890008007F3D5D5F89000216C20F450
:1016F00040700843C5F890001FB1A86D20F08050DD
:10170000A8652078C00707D0D5F88800616820F068
:1017100003000843C5F888002078800707D5D5F86E
:101720008800A16820F00C000843C5F888002078E4
:10173000400707D5D5F88800E16820F0300008435D
:10174000C5F888002078000707D5D5F888002169FA
:1017500020F0C0000843C5F888002078800607D52F
:10176000D5F88800616920F440600843C5F8880016
:101770002078400607D5D5F88800A16920F44050AC
:101780000843C5F888002078000607D5D5F88800FA
:10179000E16920F440400843C5F888002088C0056E
:1017A00007D5D5F88800216A20F440300843C5F8F1
:1017B00088002088800507D5D5F88800616A20F464
:1017C00040200843C5F88800208840050FD5D5F88B
:1017D0008800A16A20F440100843C5F88800A06A78
:1017E000B0F5801F03D1E86840F48010E8602088DD
:1017F00000050FD5D5F88800E16A20F440000843C1
:10180000C5F88800E06AB0F5800F03D1E86840F4BD
:101810008010E8602088C0040FD5D5F88800216BBF
:1018200020F040700843C5F88800206BB0F1807F3D
:1018300003D1E86840F48010E86020884FF0006130
:1018400080040ED5D5F88800626B20F0406010430C
:10185000C5F88800606B884203D1E86840F48010C6
:10186000E860208840040ED5D5F88800A26B20F0EF
:1018700040601043C5F88800A06B884203D1E86837
:1018800040F48010E860208800040FD5D5F8880067
:10189000E16B20F040500843C5F88800E06BB0F1E0
:1018A000805F03D1E86840F48030E8603046BDE8EE
:1018B000F883000000100240007000402DE9F0475E
:1018C0000E4605004FF0000725D0DFF8AC81D8F8B0
:1018D000000000F00F00B0420CD2D8F8001021F048
:1018E0000F013143C8F80010D8F8000000F00F00D5
:1018F000B04210D12968614CC80741F2883A5AD0E9
:101900006868DFF87C91032808D0022820682DD071
:10191000400500282CDB0120BDE8F087206880010D
:10192000F9D5E06800F00302E068C0F30310401C42
:10193000032A19D0534A00BFB2FBF0F0E268C2F3A9
:1019400006225043E268C2F34162521C5200B0FBCF
:10195000F2F0484517D9A06810F0F00F0CD08807B6
:1019600011D5A86840B10EE0474AE5E78003D0E70B
:1019700000F092F8484506D9A06820F0F00040F049
:101980008000A0608027A068696820F003000843F9
:10199000A060FFF74DF8814606E000BFFFF748F86A
:1019A000A0EB090151453AD8A068696800F00C0025
:1019B000B0EB810FF2D12868810714D5400703D519
:1019C000A06840F4E060A0602878000705D5A06812
:1019D00020F4605040F4E060A060A068A96820F0A6
:1019E000F000084304E0802F03D1A06820F0F0004D
:1019F000A060D8F80010404601F00F01B14216D99E
:101A0000016821F00F0131430160FFF711F807462B
:101A100007E000BFFFF70CF8C11B514501D90320B7
:101A20007AE7D8F8000000F00F00B042F2D1287831
:101A3000400705D5A068E96820F4E0600843A0608D
:101A40002878000706D5A068296920F4605040EA8C
:101A5000C100A06000F020F8A1680C4AC1F3031196
:101A6000515C01F01F01C84009490860094800683D
:101A7000BDE8F047FEF7FABF002002400010024028
:101A800000B4C4040024F40000127A005641000897
:101A90001000002004000020184910B58868C0F329
:101AA00081021748012A0BD08A684310C2F38102D1
:101AB000022A06D08A68C2F38102032A03D00020DA
:101AC00010BD184610BDCA6802F00304CA68C2F30C
:101AD0000312521C032C02D0B0FBF2F001E0B3FB66
:101AE000F2F0CA68C968C2F306225043C1F34161EB
:101AF000491C4900B0FBF1F010BD0000001002408D
:101B00000024F4002DE9F84304007AD02078FA4D3F
:101B1000C00747D0A868E96800F00C0001F0030195
:101B20000C2802D0082817D001E0032914D06068DF
:101B3000B0F5803F17D0B0F5A02F286817D020F45B
:101B400080302860286820F4802028606068E0B138
:101B5000FEF76EFF064614E02868800322D5606811
:101B60000028D2D01EE0286840F48030EDE740F431
:101B700080202860F7E700BFFEF75AFF801B64282B
:101B800070D828688003F7D50CE0FEF751FF0646B1
:101B900005E000BFFEF74CFF801B6428F0D82868E2
:101BA0008003F7D4207880074CD5A868E96800F056
:101BB0000C0001F003010C2802D004280DD001E034
:101BC00002290AD0E068002828682BD040F48070F1
:101BD0002860FEF72DFF064619E02868400502D56B
:101BE000E068002891D06868217C20F0FE4040EA3F
:101BF00001606860C1480068FEF738FF002800D126
:101C000020E076E1FEF714FF801B0228B8D8286890
:101C10004005F7D56868217C20F0FE4040EA01606D
:101C200068600FE020F480702860FEF701FF064630
:101C300005E000BFFEF7FCFE801B0228A0D8286844
:101C40004005F7D42078000729D560690028D5F829
:101C5000940013D040F00100C5F89400FEF7E8FEB0
:101C6000064606E090E000BFFEF7E2FE801B022879
:101C700086D8D5F894008007F6D510E020F0010052
:101C8000C5F89400FEF7D4FE064604E0FEF7D0FE49
:101C9000801B022878D8D5F894008007F6D42078E5
:101CA000400761D5A86D0026C00008D4A86D40F09B
:101CB0008050A865A86D012600F0805000909048E3
:101CC0000168C90511D40168804641F48071016042
:101CD000FEF7AEFE074604E0FEF7AAFEC01B022890
:101CE00052D8D8F80000C005F6D5A068012815D054
:101CF0000528D5F8900016D020F00100C5F8900016
:101D0000D5F8900020F00400C5F89000A06841F2DA
:101D10008838B8B1FEF78CFE07460EE0D5F8900083
:101D200040F00100F0E740F00400C5F89000F5E74E
:101D3000FEF77EFEC11B414526D8D5F890008007EE
:101D4000F6D50CE0FEF774FE074604E0FEF770FEE1
:101D5000C11B414518D8D5F890008007F6D41EB1B4
:101D6000A86D20F08050A8652078800629D5A0694C
:101D70000028D5F8980013D040F00100C5F898006D
:101D8000FEF756FE064606E077E000BFFEF750FE7F
:101D9000801B022877D8D5F898008007F6D510E088
:101DA00020F00100C5F89800FEF742FE064604E068
:101DB000FEF73EFE801B022865D8D5F89800800704
:101DC000F6D4E069F0B3A968C1F38101032961D0B9
:101DD0000228286820F0807028600BD0E86820F086
:101DE0000300E860E86847490840E860FEF720FE25
:101DF00004464BE0FEF71CFE064604E0FEF718FE24
:101E0000801B02283FD828688001F7D4F4E9080134
:101E10006FF00F0202EB01110843218A52044908B6
:101E200002EB4151A26841EA02210843217D4FF0B3
:101E30007E42490802EB41610843217B40EAC160D0
:101E4000E96800E062E0304A11400843E860286831
:101E500040F080702860E86840F08070E860FEF72D
:101E6000E7FD044605E000BFFEF7E2FD001B022887
:101E700009D828688001F7D548E004E0FEF7D8FDCE
:101E8000001B022802D90320BDE8F88328688001DE
:101E9000F4D43BE00128F7D0E868226A00F003019F
:101EA000914226D1616A00F0F00209011039914295
:101EB0001FD1A26A00F4FE41B1EB022F19D194F8B0
:101EC0002C2000F07841B1EBC26F12D1218E00F4CA
:101ED000C00249084905A1F50011914209D194F8C1
:101EE000341000F0C06049084906A1F10071814238
:101EF0000CD00120C8E700000010024004000020C0
:101F000000700040FFFFEEFE0C809F010020BBE749
:101F100010B500680B4641680D480140080CD870A8
:101F2000C1F304245C7001F03F049C70C1F34231A2
:101F3000197052B900F0FEFBD870587800F0FAFB27
:101F40005870987800F0F6FB9870002010BD0000E3
:101F50003FFFFF0010B50B460168896859600168B2
:101F60000969C1F30E019960006801680D480140DC
:101F7000C1F305401870C1F306245C7001F07F04C2
:101F80009C70890DD97052B900F0D4FB1870587844
:101F900000F0D0FB5870987800F0CCFB98700020CF
:101FA00010BD00007F7F7F0070B504004FF001007E
:101FB00040D094F8250028B9002084F82400204659
:101FC00000F03CF8022084F825002168CA2048620D
:101FD000216853204862204600F0C2FB10BB2068F5
:101FE0008169154A11408161216888696268A36925
:101FF000104322691A43104388612189E06840EA4E
:10200000014021680861204600F0CFFB50B9D4E9B7
:102010000721114322686369956925F060452B43C8
:10202000194391612268FF215162002802D10121E8
:1020300084F8251070BD0000BFFF8FFB10B592B073
:10204000044644216846FEF7A3FA104920688842F6
:1020500019D14FF400200090C01210906846FFF78D
:10206000E9FA08B1FEF7ABFB094850F8901F41F4BC
:10207000004140F83819016841F48061016000684E
:1020800000F48060119012B010BD000000280040E4
:102090000010024070B5044690F824000B46012859
:1020A0001BD0012684F82460022084F82500B2B1F8
:1020B0009878D97840EA014558781978000240EAC2
:1020C000413005432168CA20486221685320486294
:1020D000204600F045FBD0B120E0022070BD5878CA
:1020E000C10603D500F0EF000A305870D87800F030
:1020F0002AFB0504587800F026FB45EA002598786D
:1021000000F021FB0543187845EA4035DAE7084836
:10211000054020684560204600F047FB2268FF210B
:10212000516208B984F82560002184F8241070BD3C
:102130003FFFFF002DE9F041044690F8240090464F
:102140000D46012811D0012784F82470022084F85C
:1021500025002168CA204862216853204862204631
:1021600000F0FEFA002618B129E00220BDE8F08157
:102170002068B8F1000F80694FEA406024D0002841
:1021800000DBEE70A8782978EA7840EA01406978A7
:10219000090241EA82510843184908402168086051
:1021A0002068816921F480218161D5E90301084318
:1021B00021688A6910438861204600F0F6FA226897
:1021C000FF215162A0B115E0002800DBEE702878F5
:1021D00000F0B9FA0304687800F0B5FA43EA002386
:1021E000A87800F0B0FA0343E87843EA8050D3E7D8
:1021F00084F8257084F82460B8E700007F7F7F00B2
:1022000070B504460068C16821F02001C160FEF786
:102210000FFC05464FF47A7607E000BFFEF708FC96
:10222000401BB04201D9032070BD2068C068800601
:10223000F4D5002070BD10B5401EB0F1807F01D3F1
:10224000012010BD4FF0E02460610F21601701F004
:1022500095FE0020A06107202061002010BDFEE750
:10226000F0B500230A24302537261F4611E000BFB1
:10227000B4EB107F02D905EB107C01E006EB107C7B
:1022800001F813C001EB430C00015B1C8CF80170DA
:10229000DBB29342ECD3F0BD0D4808B5C16C41F000
:1022A0000401C164C16C01F004010091C16C41F0F2
:1022B0002001C164C16C01F020010091C16C41F0AA
:1022C0000101C164C06C00F00100009008BD000075
:1022D0000010024010B586B014216846FEF758F988
:1022E0001E4800241C490594C0E900147F21816028
:1022F000FF21C0E903144FF080414461C0E9064169
:102300000462FFF751FE08B1FEF759FA8DF800405C
:102310008DF801408DF80240019403940122694632
:102320000E480494FFF706FF08B1FEF748FA0120B3
:102330008DF814008DF815008DF8160023208DF807
:102340001700012205A90548FFF7A4FE002801D0C7
:10235000FEF735FA06B010BD002800409C010020B1
:1023600010B500220F49104800F0A8FD08B1FEF793
:1023700026FA0E490C4800F07BFF08B1FEF71FFA61
:102380000B49094800F0E0FB08B1FEF718FA0648CF
:1023900000F0E8FF002803D0BDE81040FEF70FBAB8
:1023A00010BD000014000020D806002064010020A9
:1023B00074000020FEE7FEE72DE9F84F044640F6E2
:1023C0008F7A40F2064B48F60F784FF00009A7E1EC
:1023D000B0F8441011F00F0539D030F82560310401
:1023E0007ED530F8251001EA0A0141F0800120F87D
:1023F000251005EB850004EBC00797F8740107F57D
:10240000B47700286DD0F87802286BD03A7821682C
:1024100031F8220048F68F73184048F2C003184381
:1024200021F822003978206830F821205204B0F8D1
:10243000502002EB00037DD540F2024202EBC101C5
:10244000595A8905890D009175D03A89C7E0C906A6
:102450002CD4018801EA080141F400410180206880
:1024600004F12805B0F850102A78014440F20240E7
:1024700000EBC200085AC0F309006064E16B01443C
:10248000E16300212046FEF7BDFB94F824000028FC
:102490009DD0A86900289AD194F8240040F08001CA
:1024A0002068A0F84C1084F8249039E1018804F5E4
:1024B000B4750A051ED5B0F850102A7801440BEB0C
:1024C000C200085A04F52C71C0F30903EB61EA88D5
:1024D000206801F024FD2168088800EA0A0002E073
:1024E00098E05FE06CE040F0800008802046FFF755
:1024F00005F815E10904D8D5018801EA0A0141F07F
:10250000800101802068B0F850102A7801440BEB5C
:10251000C200085A83059B0DEB6110D0696971B147
:10252000EA88206801F0FBFCE96968690844002139
:10253000686101E04BE049E02046FEF76CFB206853
:1025400001880905B1D4B0F850100844296900F297
:1025500006403E2908D94A09C90600D1521E4FF447
:10256000004141EA822108E0A1B14A08C90700D030
:10257000521C4FF6FF7101EA822101802168088810
:102580004BF68F72104080F4405048F280021043A6
:102590000880C5E0018821F4F8410180018841F4F8
:1025A0000041EAE72068B0F850103B780A180BEBBE
:1025B000C301515A8905890D009114D0FA880EE0A3
:1025C000324639462046FEF784FB00900BE00BEBC9
:1025D000C101595A8905890D009104D07A89796918
:1025E000009B01F09CFCF96900980844F861796946
:1025F000009808447861B86918B139690098814237
:1026000004D939782046FEF706FB03E039462068F6
:1026100001F02AFA300677D505EB850004EBC001FE
:10262000206830F8252002EA080242F4004220F82F
:10263000252091F82B002831022848D0C1F81890A5
:10264000087B4A4608B3700620D5487810B10128A7
:1026500012D03AE02068B0F8502010440A7800EB1D
:10266000C200B0F8022422F4F842A0F80224B0F824
:10267000022442F4004206E02068B0F850301844CA
:102680000B7800EBC300A0F802241EE04B78206812
:1026900013B1012B11D018E0B0F8502010440A7883
:1026A00000EBC200B0F8062422F4F842A0F8062499
:1026B000B0F8062442F4004205E0B0F85030184467
:1026C0000B7800EBC300A0F80624097820E0F005A1
:1026D00022D42068B0F850200B78104440F2024217
:1026E00002EBC302805A8A69C0F3090082420CD906
:1026F000121A8A610BD04A6902444A61CA691044BD
:10270000C861206801F0B0F90AE0C1F81890D9B2A8
:102710002046FEF777FA03E032462046FEF747FBF5
:102720002068B0F8441009043FF552AE0020BDE81F
:10273000F88F7047010901EB810100F00F0000EBF9
:102740004100C0B270470022014602E00A39C9B216
:10275000521C0A29FAD2100741EA106070470000A3
:102760002DE9F041044600680025C168490619D4E6
:10277000C16841F08001C160FEF75AF906464FF486
:102780007A78032708E000BFFEF752F9801B404526
:1027900002D9032584F825702068C068400601D45A
:1027A000032DF1D12846BDE8F08170B504460068DC
:1027B0000025C16821F08001C160206881694FF067
:1027C0000306890607D42046FFF71AFD98B184F85E
:1027D000256003250FE0816921F0200181612046F9
:1027E000FFF70EFD10B184F825600325206881698C
:1027F00041F020018161284670BD70470178407822
:1028000041EA00207047FEF719B9000010B594B0F6
:1028100038216846FDF7BCFE14210EA8FDF7B8FE6E
:102820000020FEF799FEFEF7FDFE174850F8901FB6
:1028300021F018010160252000904FF480300190B4
:1028400001200290069002200324CDE907045521BF
:10285000CDE909010B900C900D906846FFF752F9F5
:1028600008B172B6FEE70F20CDE90E0400201090EB
:102870001190129004210EA8FFF720F8002801D033
:1028800072B6FEE714B010BD0010024002480168A5
:1028900041F470010160704788ED00E010B50A4610
:1028A000024903A000F0DAFA004810BDA809002090
:1028B00043444320436F6E66696700002DE9F04191
:1028C0000C46D0F8C422D0F8BC12E9B104EB84065F
:1028D00000EB86050027AB693BB102EBC602926BA9
:1028E000B3FBF2F602FB163282B1C1F81472D0F8D3
:1028F000C00203692BB1D1F80802224601F5047128
:1029000098470020BDE8F0810320FBE700231A462A
:102910002146AF6100F08DFCF3E770B5D0F8BC4202
:1029200005466CB100F079FBC4F80C02D5F8C01272
:10293000D4F80402CA6804F503719047002070BD02
:10294000032070BD70B50446812100F0D3FA002544
:1029500025870121204600F0CDFAA4F87851822184
:10296000204600F0C7FAA4F84C50A4F84E50D4F812
:10297000BC0248B1D4F8C00204F52F744068804707
:10298000206800F044FE2560002070BD1220088001
:10299000004870473800002010B5D0F8BC4284B120
:1029A000D0F8C01259B194F80002FF2807D08B6804
:1029B00094F8012221469847FF2084F80002002065
:1029C00010BD032010BD00000A210180004870479F
:1029D0008C0000204321018000487047DC0000206B
:1029E0004321018000487047980000204321018066
:1029F00000487047200100202DE9F04704464FF4BD
:102A0000077000F005FE05004FF0000735D0C4F850
:102A1000BC52207C4FF010084FF40079012680B39F
:102A2000402302228121204600F050FB26874023CC
:102A300002220121204600F049FBA4F87861A4F8A5
:102A40004E80082303228221204600F03FFBA4F899
:102A50004C60D4F8C00200688047C5F81472C5F80D
:102A60001872207CD5F80422A8B140230121204609
:102A700000F038FB0020BDE8F0870220C4F8BC72EB
:102A8000F9E7FFE74B4602228121204600F01EFBBA
:102A900026874B46CCE74B46E8E7000010B50A46D0
:102AA000024903A000F0DAF9004810BDA80900208F
:102AB00043444320496E746572666163650000009B
:102AC00004200880004870473400002010B50A46F2
:102AD000024903A000F0C2F9004810BDA809002077
:102AE00053544D6963726F656C656374726F6E6980
:102AF0006373000010B50A46024903A000F0AEF966
:102B0000004810BDA809002053544D3332205669A7
:102B1000727475616C20436F6D506F7274000000A9
:102B200010B5D0F8BC1251B1027C002AD1F80422B1
:102B300007D04023012100F0D5FA002010BD03206A
:102B400010BD4FF40073F5E719B1C0F8C0120020B2
:102B5000704703207047000010B51A2008800A480B
:102B60000168001D0468001D0068081809D00822CB
:102B70000649FFF775FB0549042210312046FFF78F
:102B80006FFB0248801E10BD9075FF1F5A00002089
:102B9000D0F8BC0218B1C0F804120020704703201E
:102BA0007047D0F8BC0228B1C0F81022C0F8081253
:102BB00000207047032070472DE9FC410646D0F8FD
:102BC000BC7200200C468DF80000ADF804000546EC
:102BD00037B1207810F0600128D0202944D102E0DC
:102BE0000320BDE8FC81E288C2B1000660780AD506
:102BF000D6F8C0128B6839469847E288072A00D970
:102C00000722394628E087F80002A07987F80102F8
:102C1000E2883946304600F072F82AE0D6F8C01251
:102C2000607800228B682146984722E0607830B1B6
:102C300001281ED00A2809D00B2815D110E096F8DB
:102C40009C02032810D1022201A905E096F89C02FB
:102C5000032809D101226946304600F06AF808E0ED
:102C600096F89C02032804D02146304600F03CF838
:102C700003252846B5E710B5D0F8BC12012219B1DA
:102C8000D1F8143213B10FE0032010BD0122C1F8B6
:102C90001422D1F81022C262D1F81032D1F80822E1
:102CA000812100F0C6FA0022104610BD0C200880D9
:102CB000004870474C00002010B5D0F8B8220AB187
:102CC00052689047002010BD134610B50A460021F7
:102CD00000F008FA002010BD134610B50A46002186
:102CE00000F0A7FA002010BD10B50446802100F0C6
:102CF00085FA2046BDE81040002100F07FBA10B5EB
:102D00000323C0F89432C0F858211346C0F85C2160
:102D10000A46002100F0E6F9002010BD10B505219B
:102D2000C0F8941200231A46194600F0DBF900207F
:102D300010BD10B50223C0F8943282611346C261FF
:102D40000A46002100F075FA002010BD10B50421DC
:102D5000C0F8941200231A46194600F06AFA0020BF
:102D600010BDF8B504460020ADF8000048880D46B7
:102D7000010A062947D006DC01290FD0022912D00A
:102D8000032962D11DE0072946D00F295DD1D4F86F
:102D9000B402C26920E0694690473BE0D4F8B4121F
:102DA000207C0A68F7E7207C02260028D4F8B802C5
:102DB00005D0C16A684688470146467036E0816A98
:102DC000F8E7C0B2062840D2DFE800F003090D1191
:102DD0001519D4F8B4024268B2B3207CDBE7D4F80A
:102DE000B4028268F8E7D4F8B402C268F4E7D4F811
:102DF000B4020269F0E7D4F8B4024269ECE7D4F80F
:102E0000B4028269E8E7207CF0B9D4F8B802416BDB
:102E100068468847014609E0207CA8B9D4F8B80282
:102E2000016B68468847014607204870EA888AB1E6
:102E3000BDF8000040B1824200D90246ADF8002042
:102E40002046FFF776FFF8BDFFE729462046FFF74B
:102E50004BFFF8E72046FFF779FFF4E770B5002352
:102E600000281ED00025044602E06D1CEDB2641C53
:102E70002678002EF9D1022404EB45041480127840
:102E8000CA545B1C0322CA5400245B1C06E0CA54CB
:102E90005B1CDAB28C54521CD3B2401C0278002A5C
:102EA000F5D170BD01004FF0000004D0012901D020
:102EB000022901D0032070470120704778B1002318
:102EC000C0F8B832C0F8C032C0F8CC3209B1C0F88E
:102ED000B412012180F89C12027000F0A3B8032004
:102EE000704710B5D0F8C402FDF7C5FEBDE810402C
:102EF000FFF7D8BF10B5D0F8C402FDF796FEBDE8C5
:102F00001040FFF7CFBF70B51646044621B194F8C4
:102F10009C02032841D048E0D4F8941204F1140034
:102F20000025022932D1D0E902318B4206D95A1A42
:102F3000826031462046FFF7CFFE0FE0994214D160
:102F40004068884211D3D4F8981288420DD20022EA
:102F500011462046FFF7C0FEC4F8985200231A46D7
:102F60001946204600F0BEF810E094F89C020328B1
:102F700005D1D4F8B802C16809B12046884780213C
:102F8000204600F03BF92046FFF7C8FE94F8A00267
:102F900001280AD184F8A05207E0D4F8B8024269A7
:102FA0001AB120469047002800D1002070BD10B50E
:102FB0001346044621B194F89C02032823D02AE04A
:102FC000D4F8941204F5AA70032924D1D0E902128E
:102FD00091420AD98A1A8260C068824200D30246AE
:102FE00019462046FFF770FE15E094F89C0203286E
:102FF00005D1D4F8B802016909B1204688472046B6
:10300000FFF7A4FE07E0D4F8B80282691AB120469F
:103010009047002800D1002010BDD0F8C402FEF770
:103020005EB8000010B51F4904460122C1F8F00245
:10303000C0F8C4121C48086008204860022088605C
:10304000086100204861C1E9060208620846FEF7EF
:1030500087F908B1FDF7B3FB0022D4F8C4021823A6
:10306000114604F53174FDF7AFFD5823002280218D
:103070002068FDF7A9FDC023002281212068FDF70B
:10308000A3FD4FF48873002201212068FDF79CFD09
:103090004FF48073002282212068FDF795FD002007
:1030A00010BD0000E4030020005C00400A0601F0AF
:1030B0007F01D0F8C40201EB810100EBC10002D511
:1030C00090F82A00704790F86A01704710B51C46C6
:1030D0001346D0F8C4022246FEF70AF8BDE81040B5
:1030E000FFF7E0BE10B5D0F8C402FEF731F8BDE836
:1030F0001040FFF7D7BE70B50125044680F89C52FA
:103100000020C4F894026060C4F8A402D4F8B802A5
:10311000E0B1D4F8BC1221B1426812B100212046BE
:1031200090470022402311462046FFF7CFFF40265C
:10313000A4F864513346002280212046C4F860611F
:10314000FFF7C4FFA5840020266270BD032070BD78
:1031500090F89C12042903D190F89D1280F89C12DB
:103160000020704710B5D0F8B81221B190F89C2219
:10317000032A02D004E0032010BDC96901B18847C9
:10318000002010BD01740020704710B5D0F8C402B3
:10319000FEF7A0F9BDE81040FFF784BE70B5044605
:1031A00000F2AA20054600F04DF80120C4F8940270
:1031B000B4F8B002C4F8980294F8AA0210F01F0103
:1031C0000AD001290ED0022912D000F08001204639
:1031D000BDE8704000F012B829462046BDE87040B6
:1031E00000F0C2B829462046BDE8704000F0E6B9BC
:1031F00029462046BDE8704000F040B910B5D0F82F
:10320000C402FDF7BEFFBDE81040FFF74BBE10B58E
:10321000D0F8C402FEF779F9BDE81040FFF742BECE
:1032200090F89C1280F89D12042180F89C120020D6
:10323000704710B5D0F8C402FDF7D3FFBDE81040C9
:10324000FFF730BE70B5054611F8010B28700878FD
:1032500068704C1C2046FFF7D1FA6880A41C2046F9
:10326000FFF7CCFAA880A01CFFF7C8FAE88070BD71
:1032700038B504460020ADF8000049B1C4F8B812D2
:10328000C96A19B168468847C4F8CC02002038BD25
:10329000032038BD02460320D2F8B832002B02D0FA
:1032A0001B681046184770472DE9F0410F462C4E19
:1032B0008978002504463170012906D9394620460F
:1032C000FFF712FD0320BDE8F08194F89C0202286C
:1032D0000CD003281DD039462046FFF705FD317874
:1032E0002046FFF7E9FC03252846ECE799B3204682
:1032F0006160FFF7CFFF050004D039462046FFF795
:10330000F3FCF1E72046FFF721FD032084F89C023F
:10331000EAE74FF00208C1B1606888421BD0C1B231
:103320002046FFF7C9FC317820466160FFF7B2FF05
:10333000050010D039462046FFF7D6FC21792046FB
:10334000FFF7BAFC84F89C82CEE784F89C82204682
:103350006160FFF7B1FC2046FFF7F8FCC4E700000E
:1033600088000020FFF753BF2DE9F0410A780025BF
:1033700012F0600208D0202A01D0402A71D1D0F882
:10338000B8229268904731E04B78002201260A2B40
:1033900067D2DFE803F0415E6658660805662D29AE
:1033A000FFF7DFFC5FE004468888D8B9C888C8B951
:1033B0004888802816D200F07F0794F89C020328E2
:1033C00010D084F89E7239462046FFF7DEFE204674
:1033D000FFF7BCFC1FB1022084F89C0243E084F894
:1033E0009C6240E020463CE0FFF75EFF05463AE085
:1033F000CB88012B35D190F89C32012B04D0022BC5
:1034000002D0032B2DD104E08260012200F10801DB
:1034100016E00122011D13E090F89C22012A03D03E
:10342000022A01D0032A1CD1CA88022A19D1C660F7
:10343000D0F8A41209B10321C160022200F10C01ED
:10344000FFF777FC0FE0498801290CD1C0F8A4628E
:1034500011E090F89C32012B08D0022B06D0032BF0
:1034600004D0FFF741FC2846BDE8F08149880129D6
:10347000F9D1C0F8A422FFF769FCF4E72DE9F04187
:103480000D46044628780026097910F060000BD01C
:10349000202801D040286DD1D4F8B802294682688E
:1034A00020469047064686E06878A8B3012822D0D7
:1034B00003287CD194F89C02022802D0032876D1FC
:1034C0000BE0002973D0802971D02046FFF796FECB
:1034D00080212046FFF792FE6DE0688838B931B14F
:1034E000802904D0E88810B92046FFF787FE2046DF
:1034F000FFF72CFC5FE094F89C020228E1D003283F
:1035000055D16888A8BB480602D02046FFF7E9FCE1
:103510002046FFF71BFCBFE7FFE794F89C0200275B
:10352000022802D0032842D111E009B180293ED1FE
:10353000080601F07F0000EB800004EB800101D55C
:10354000143101E001F5AA7102220F602BE0080698
:1035500001F00F0000EB800004EB80000BD5808CA5
:1035600040B101F07F0000EB800004EB80051435D2
:103570000CE020E01BE0B0F86401C0B101F07F0076
:1035800000EB800004EB800505F5AA7541B18029A8
:1035900006D02046FFF78AFD10B10120286000E028
:1035A0002F60022229462046FFF7C3FB03E029468D
:1035B0002046FFF799FB3046BDE8F08170B506461E
:1035C000087800240D4610F0600003D0202801D0B8
:1035D000402817D196F89C02012803D0022801D078
:1035E00003280FD1287901280CD8D6F8B8028268B0
:1035F000304690470446E888204306D13046FFF71E
:10360000A5FB02E03046FFF76FFB204670BD704718
:1036100000487047C40100202DE9F0470C780026CF
:1036200030F8243048F68F121340CA78002A7DD033
:10363000012A7CD0022A02D0032A79D0012648F23E
:103640008002134320F824300D7830F8254048F6E6
:103650008F731C402C43144320F825400D7B48F207
:10366000C00748F6BF744CF2800C4BF68F79E5B377
:10367000CD7891F80080022DC24630F828507CD0D9
:1036800048F68F6805EA080555EA020520F82A5031
:10369000B0F8505091F80080054405EBC805B1F82A
:1036A000088028F00108A5F80084B0F8505091F87F
:1036B0000080054405EBC805B1F80A8028F0010830
:1036C000A5F804844D7891F80080002D30F828503A
:1036D0004FEA45457ED0002D06DA30F828501D40CF
:1036E00045EA0C0520F8285000E030E091F800C0D1
:1036F00030F82C506D0605D530F82C501D403D4358
:1037000020F82C50CB780D78012B30F8253003EAC7
:10371000040301D083F02003134320F825300B78F5
:1037200030F8231001EA0901114302E006E00BE042
:1037300007E020F823103046BDE8F08743F400731B
:103740007DE743F4C0637AE743F4806377E74D781D
:103750004DB3B0F8505091F800C0054405EBCC05CE
:10376000B1F806C02CF0010CA5F800C491F800C017
:1037700030F82C506D0607D500E05BE030F82C5097
:103780001D403D4320F82C50CB78012B06D00B7800
:1037900030F82310214081F02001C5E70B7830F884
:1037A00023102140C0E7B0F850400D78044404EBEA
:1037B000C504CD8825F00105A4F80454B0F85040A4
:1037C0000D78044404EBC5040D6904F206443E2D53
:1037D0000AD900E034E06F09ED0600D17F1E4FF4F6
:1037E000004545EA872508E0E5B16F08ED0700D000
:1037F0007F1C4FF6FF7505EA872525800D7830F888
:103800002540640406D530F825401C4044EA0C04E9
:1038100020F825400B7830F8231001EA090181F4E3
:10382000405181E7258825F4F8452580258845F411
:103830000045E2E71D4048F2801845EA080525E703
:10384000002D06DA30F828501D4045EA0C0520F816
:10385000285091F800C030F82C506D0605D530F88E
:103860002C501D403D4320F82C500D7830F8253069
:1038700003EA090383F44053134320F825308DE70E
:103880002DE9F04391F80C804F780A7848F6BF7C18
:103890004BF68F7948F2800348F2C0054CF280065F
:1038A00048F68F74B8F1000F28D0002F30F822703E
:1038B0004FEA474748D0002F05DA30F822702740FA
:1038C000374320F822700A7830F822707F0605D539
:1038D00030F8227027402F4320F822700D7830F8FE
:1038E00025202240324320F825200C7830F824206F
:1038F00002EA0C021A4320F824201AE07FB130F8C3
:103900002260760605D530F8226026402E4320F846
:1039100022600A7830F8221001EA0C010EE030F83B
:1039200022506D0405D530F822502540354320F84B
:1039300022500A7830F8221001EA0901194320F8D0
:1039400022100020BDE8F083002F05DA30F8227045
:103950002740374320F822700A7830F82260760634
:1039600005D530F8226026402E4320F822600E78DC
:1039700030F8262022402A4320F826200C7830F800
:10398000242002EA09021A4320F82420C1E730F873
:10399000581F41F40041018000207047012120F8A8
:1039A000401F00210180818001820846704730F865
:1039B000401F4BF68072914301800020704730B564
:1039C0000A7BB2BB4A7848F68F7548F28004C2B1D0
:1039D0000B7830F82320520607D530F823202A40F0
:1039E00048F2C0052A4320F82320CA78012A20D0B3
:1039F0000A7830F8221048F6BF73194081F0200190
:103A000014E00A7830F822305B0407D530F8223011
:103A10002B404CF280052B4320F822300A7830F8F6
:103A200022104BF68F73194081F44051214320F846
:103A30002210002030BD10B54A780978002A48F2DB
:103A4000800330F8212005D048F6BF74224082F070
:103A5000100204E04BF68F74224082F480521A4325
:103A600020F82120002010BD2DE9F0470D464B78AD
:103A7000097B04464FF0000948F68F7248F2800A2D
:103A80004FF400474FF6FF78012B09D000297DD075
:103A9000E87802287BD001287AD00120BDE8F087A1
:103AA000AE692869864200D9064691B1E9780229B3
:103AB0001ED0286A801B2862287834F82010490616
:103AC000B4F85010214401EBC0006ED5A0F8066494
:103AD000FFE0B3B2EA882046696900F03BFAB4F827
:103AE00050002978204400EBC100A0F80264F6E001
:103AF000296A814273D9297834F82100104048F2AC
:103B00008012104324F82100286A801B286228783C
:103B100034F820104906697876D511B1012921D0F1
:103B200027E0B4F850103E2E214401EBC00000F213
:103B3000064006D97109F20600D1491E47EA8121E3
:103B40000EE036B17108F20700D0491C08EA812165
:103B500006E0018821F4F8410180018841F4004128
:103B6000018006E0B4F85020111901EBC000A0F864
:103B700006646A89B3B22046696900F0EBF96869A6
:103B8000304468612969286A884202E0CCE0EBE0B1
:103B900054E102D9801B286202E00646C5F8209055
:103BA000687818B1012824D02BE028E0B4F8500040
:103BB0002978204400EBC10000F202403E2E06D9D5
:103BC0007109F20600D1491E47EA81210FE03EB19A
:103BD0007108F20700D0491C08EA812107E08EE055
:103BE000018821F4F8410180018841F400410180FD
:103BF00007E0B4F850002978204400EBC100A0F899
:103C000002642A8966E0FFE711B1012921D027E08B
:103C1000B4F850103E2E214401EBC00000F20240E7
:103C200006D97109F20600D1491E47EA81210EE04A
:103C300036B17108F20700D0491C08EA812106E07C
:103C4000018821F4F8410180018841F4004101809C
:103C500006E0B4F85010214401EBC000A0F8026463
:103C60002A89B3B22046696900F074F96869304462
:103C700068612969286A884202D9801B286202E0AB
:103C80000646C5F82090687810B1012830D020E0B1
:103C9000B4F850002978204400EBC10000F206403F
:103CA0003E2E06D97109F20600D1491E47EA81214C
:103CB0000EE036B17108F20700D0491C08EA8121F4
:103CC00006E0018821F4F8410180018841F40041B7
:103CD00001806A89B3B22046696900F03BF929780E
:103CE00034F8210048F6BF72104080F03000F8E050
:103CF000B4F850100819297800EBC100E6E62A78DC
:103D000034F8220048F68F63184040EA0A0024F88D
:103D10002200B4F850002A78204400EBC2008BB295
:103D2000A0F802342A89D6E7A9692869814202D914
:103D3000091AA961B4E00846C5F81890B0E000BFC0
:103D400047EA82200EE030B14208C00700D0521C82
:103D500008EA822006E0088820F4F84008800888F5
:103D600040F400400880B4E00BBBB4F85000297860
:103D7000204400EBC100296900F202403E2906D927
:103D80004B09C90600D15B1E47EA83210EE031B121
:103D90004B08C90700D05B1C08EA832106E00188B4
:103DA00021F4F8410180018841F4004101806878E4
:103DB00010B1012823D02BE0B4F85000297820441A
:103DC00000EBC100296900F206403E2906D94B09E3
:103DD000C90600D15B1E47EA83210EE031B14B08D2
:103DE000C90700D05B1C08EA832106E0018821F4A2
:103DF000F8410180018841F40041018008E0B4F8F5
:103E000050100819297800EBC100298AA0F806147F
:103E1000E86978B3297834F82100430401D54306D2
:103E200003D444F24003184253D134F82100104027
:103E300048F2C002104324F821004AE0A969286929
:103E4000814202D9091AA96102E00846C5F8189012
:103E50000BBBB4F850102A78214401EBC20101F2E7
:103E600002413E2807D94209C30600D1521E47EA43
:103E700082220FE02DE030B14208C30700D0521C6F
:103E800008EA822206E00A8822F4F8420A800A88B8
:103E900042F400420A80697811B1012911D018E07A
:103EA000B4F850102A78214401EBC20101F2064116
:103EB0003E287FF648AF4209C0067FF441AF521E4C
:103EC0003EE7B4F8502011192A7801EBC201A1F89D
:103ED0000604297834F821004BF68F72104080F4E4
:103EE000405040EA0A0024F821000020D6E50021D5
:103EF000A0F844104BF68071A0F8401000207047E5
:103F00000148FDF788B90000E40300200148FDF7EF
:103F100082B90000E4030020B0F84400704710B5F7
:103F200010445C0800F5806008D030F8022B01F8DE
:103F3000012B120A01F8012B641EF6D1DA0701D019
:103F40000088087010BD11B98021A0F84C10002025
:103F50007047000010B55B1C10445B0800F58060E2
:103F60000AD000BF11F8012B11F8014B42EA0422DC
:103F700020F8022B5B1EF5D110BDFEE70907090EE4
:103F8000002804DB00F1E02080F80014704700F006
:103F90000F0000F1E02080F8141D704730380A2827
:103FA00001D20120704700207047000010B54FF487
:103FB00000510348FCF72AFD012800D0002010BD65
:103FC0000008004800B587B014216846FCF7E0FA05
:103FD0000A48C16C41F00401C164C06C694600F03C
:103FE000040005904FF40050009000200190022042
:103FF00002900348FCF7E6FB07B000BD001002404A
:104000000008004810B586B014216846FCF7C0FAD5
:104010000D48C16C41F00401C164C06C0B4C00F050
:1040200004000590002240212046FCF7FCFC4020C3
:10403000009001200021CDE901010391694620464D
:10404000FCF7C0FB06B010BD00100240000800489D
:10405000044B08B1012200E0002240211846FCF781
:10406000E2BC00000008004840210148FCF7D3BC36
:104070000008004892B0FCF7E9FCFEF7C7FBFEF72A
:104080000BF9FEF727F9FEF76BF9FFF79BFFFFF738
:10409000B9FFFCF7CDFC00F1C804FCF7C9FC204EC9
:1040A000FCF7C6FC0546FFF781FF30B1A542F7D308
:1040B00005F1C804FFF7D8FFF2E7A542F0D305F5F4
:1040C000FA74002204A91748FDF744FF002209A949
:1040D0001448FDF71DFF9DF81200317888421AD070
:1040E00030700120FFF7B4FF9DF826009DF81230D4
:1040F0009DF811209DF810108DE80F009DF82530D7
:104100009DF8272008A10AA8FCF7FAF881B20AA8AE
:10411000FCF73EFBC4E70020FFF79AFFC0E7000072
:10412000000000209C0100203230253032642E2512
:104130003032642E2530326420253032643A253006
:10414000326420253032640D0A0000004FF04070C8
:10415000E1EE100A704700000000000000000102BC
:10416000030406070809040000080000000000001E
:10417000000200010000100098410008000000202B
:104180009C010000140200086C4200089C01002001
:104190006C1E00007002000841321082011324F4EA
:1041A000138D291408C12A1B08CD041AF5041359CC
:1041B0002B1C089D2804190C13AD2C100C080403AB
:1041C00009041201010202021640830440571D0235
:1041D0000102034114050F0C1C0107101721031ADB
:1041E0001A031351071B084D041A49041A75041ABF
:1041F0008D0441130A06293B2A408C1C09024357AF
:10420000111DC03209049D1A020B1305241610015A
:10421000052401180901042402020524066C150571
:10422000820308151009040133020A1D0705010263
:10423000432C070581070938442A40072A810711C2
:104240002B0907440A3B044413F9291B0845044B76
:10425000B92BE81A990C13BD281B081B08C11AE1D9
:0C426000101AD5041AED041AC90400005D
:04000005080001D915
:00000001FF
