Component: ARM Compiler 5.06 update 7 (build 960) Tool: armlink [4d3601]

==============================================================================

Section Cross References

    startup_stm32g431xx.o(STACK) refers (Special) to heapauxi.o(.text) for __use_two_region_memory
    startup_stm32g431xx.o(HEAP) refers (Special) to heapauxi.o(.text) for __use_two_region_memory
    startup_stm32g431xx.o(RESET) refers (Special) to heapauxi.o(.text) for __use_two_region_memory
    startup_stm32g431xx.o(RESET) refers to startup_stm32g431xx.o(STACK) for __initial_sp
    startup_stm32g431xx.o(RESET) refers to startup_stm32g431xx.o(.text) for Reset_Handler
    startup_stm32g431xx.o(RESET) refers to stm32g4xx_it.o(i.NMI_Handler) for NMI_Handler
    startup_stm32g431xx.o(RESET) refers to stm32g4xx_it.o(i.HardFault_Handler) for HardFault_Handler
    startup_stm32g431xx.o(RESET) refers to stm32g4xx_it.o(i.MemManage_Handler) for MemManage_Handler
    startup_stm32g431xx.o(RESET) refers to stm32g4xx_it.o(i.BusFault_Handler) for BusFault_Handler
    startup_stm32g431xx.o(RESET) refers to stm32g4xx_it.o(i.UsageFault_Handler) for UsageFault_Handler
    startup_stm32g431xx.o(RESET) refers to stm32g4xx_it.o(i.SVC_Handler) for SVC_Handler
    startup_stm32g431xx.o(RESET) refers to stm32g4xx_it.o(i.DebugMon_Handler) for DebugMon_Handler
    startup_stm32g431xx.o(RESET) refers to stm32g4xx_it.o(i.PendSV_Handler) for PendSV_Handler
    startup_stm32g431xx.o(RESET) refers to stm32g4xx_it.o(i.SysTick_Handler) for SysTick_Handler
    startup_stm32g431xx.o(RESET) refers to stm32g4xx_it.o(i.USB_LP_IRQHandler) for USB_LP_IRQHandler
    startup_stm32g431xx.o(.text) refers (Special) to heapauxi.o(.text) for __use_two_region_memory
    startup_stm32g431xx.o(.text) refers to system_stm32g4xx.o(i.SystemInit) for SystemInit
    startup_stm32g431xx.o(.text) refers to __main.o(!!!main) for __main
==============================================================================

Removing Unused input sections from the image.

    Removing board.o(.rev16_text), (4 bytes).
    Removing board.o(.revsh_text), (4 bytes).
    Removing board.o(.rrx_text), (6 bytes).
    Removing flash_access.o(.rev16_text), (4 bytes).
    Removing flash_access.o(.revsh_text), (4 bytes).
    Removing flash_access.o(.rrx_text), (6 bytes).
    Removing main.o(.rev16_text), (4 bytes).
    Removing main.o(.revsh_text), (4 bytes).
    Removing main.o(.rrx_text), (6 bytes).
    Removing gpio.o(.rev16_text), (4 bytes).
    Removing gpio.o(.revsh_text), (4 bytes).
    Removing gpio.o(.rrx_text), (6 bytes).
    Removing rtc.o(.rev16_text), (4 bytes).
    Removing rtc.o(.revsh_text), (4 bytes).
    Removing rtc.o(.rrx_text), (6 bytes).
    Removing rtc.o(i.HAL_RTC_MspDeInit), (40 bytes).
    Removing stm32g4xx_it.o(.rev16_text), (4 bytes).
    Removing stm32g4xx_it.o(.revsh_text), (4 bytes).
==============================================================================

Image Symbol Table

    Local Symbols

    Symbol Name                              Value     Ov Type        Size  Object(Section)

    ../Core/Src/gpio.c                       0x00000000   Number         0  gpio.o ABSOLUTE
    ../Core/Src/main.c                       0x00000000   Number         0  main.o ABSOLUTE
    ../Core/Src/rtc.c                        0x00000000   Number         0  rtc.o ABSOLUTE
    ../Core/Src/stm32g4xx_hal_msp.c          0x00000000   Number         0  stm32g4xx_hal_msp.o ABSOLUTE
    ../Core/Src/stm32g4xx_it.c               0x00000000   Number         0  stm32g4xx_it.o ABSOLUTE
    ../Core/Src/system_stm32g4xx.c           0x00000000   Number         0  system_stm32g4xx.o ABSOLUTE
    ../Drivers/STM32G4xx_HAL_Driver/Src/stm32g4xx_hal.c 0x00000000   Number         0  stm32g4xx_hal.o ABSOLUTE
    ../Drivers/STM32G4xx_HAL_Driver/Src/stm32g4xx_hal_cortex.c 0x00000000   Number         0  stm32g4xx_hal_cortex.o ABSOLUTE
    ../Drivers/STM32G4xx_HAL_Driver/Src/stm32g4xx_hal_dma.c 0x00000000   Number         0  stm32g4xx_hal_dma.o ABSOLUTE
    ../Drivers/STM32G4xx_HAL_Driver/Src/stm32g4xx_hal_dma_ex.c 0x00000000   Number         0  stm32g4xx_hal_dma_ex.o ABSOLUTE
    ../Drivers/STM32G4xx_HAL_Driver/Src/stm32g4xx_hal_exti.c 0x00000000   Number         0  stm32g4xx_hal_exti.o ABSOLUTE
    ../Drivers/STM32G4xx_HAL_Driver/Src/stm32g4xx_hal_flash.c 0x00000000   Number         0  stm32g4xx_hal_flash.o ABSOLUTE
    ../Drivers/STM32G4xx_HAL_Driver/Src/stm32g4xx_hal_flash_ex.c 0x00000000   Number         0  stm32g4xx_hal_flash_ex.o ABSOLUTE
    ../Drivers/STM32G4xx_HAL_Driver/Src/stm32g4xx_hal_flash_ramfunc.c 0x00000000   Number         0  stm32g4xx_hal_flash_ramfunc.o ABSOLUTE
    ../Drivers/STM32G4xx_HAL_Driver/Src/stm32g4xx_hal_gpio.c 0x00000000   Number         0  stm32g4xx_hal_gpio.o ABSOLUTE
    ../Drivers/STM32G4xx_HAL_Driver/Src/stm32g4xx_hal_pcd.c 0x00000000   Number         0  stm32g4xx_hal_pcd.o ABSOLUTE
    ../Drivers/STM32G4xx_HAL_Driver/Src/stm32g4xx_hal_pcd_ex.c 0x00000000   Number         0  stm32g4xx_hal_pcd_ex.o ABSOLUTE
    ../Drivers/STM32G4xx_HAL_Driver/Src/stm32g4xx_hal_pwr.c 0x00000000   Number         0  stm32g4xx_hal_pwr.o ABSOLUTE
    ../Drivers/STM32G4xx_HAL_Driver/Src/stm32g4xx_hal_pwr_ex.c 0x00000000   Number         0  stm32g4xx_hal_pwr_ex.o ABSOLUTE
    ../Drivers/STM32G4xx_HAL_Driver/Src/stm32g4xx_hal_rcc.c 0x00000000   Number         0  stm32g4xx_hal_rcc.o ABSOLUTE
    ../Drivers/STM32G4xx_HAL_Driver/Src/stm32g4xx_hal_rcc_ex.c 0x00000000   Number         0  stm32g4xx_hal_rcc_ex.o ABSOLUTE
    ../Drivers/STM32G4xx_HAL_Driver/Src/stm32g4xx_hal_rtc.c 0x00000000   Number         0  stm32g4xx_hal_rtc.o ABSOLUTE
    ../Drivers/STM32G4xx_HAL_Driver/Src/stm32g4xx_hal_rtc_ex.c 0x00000000   Number         0  stm32g4xx_hal_rtc_ex.o ABSOLUTE
    ../Drivers/STM32G4xx_HAL_Driver/Src/stm32g4xx_hal_tim.c 0x00000000   Number         0  stm32g4xx_hal_tim.o ABSOLUTE
    ../Drivers/STM32G4xx_HAL_Driver/Src/stm32g4xx_hal_tim_ex.c 0x00000000   Number         0  stm32g4xx_hal_tim_ex.o ABSOLUTE
    ../Drivers/STM32G4xx_HAL_Driver/Src/stm32g4xx_ll_usb.c 0x00000000   Number         0  stm32g4xx_ll_usb.o ABSOLUTE
    ../Middlewares/ST/STM32_USB_Device_Library/Class/MSC/Src/usbd_msc.c 0x00000000   Number         0  usbd_msc.o ABSOLUTE
    ../Middlewares/ST/STM32_USB_Device_Library/Class/MSC/Src/usbd_msc_bot.c 0x00000000   Number         0  usbd_msc_bot.o ABSOLUTE
    ../Middlewares/ST/STM32_USB_Device_Library/Class/MSC/Src/usbd_msc_data.c 0x00000000   Number         0  usbd_msc_data.o ABSOLUTE
    ../Middlewares/ST/STM32_USB_Device_Library/Class/MSC/Src/usbd_msc_scsi.c 0x00000000   Number         0  usbd_msc_scsi.o ABSOLUTE
    ../Middlewares/ST/STM32_USB_Device_Library/Core/Src/usbd_core.c 0x00000000   Number         0  usbd_core.o ABSOLUTE
    ../Middlewares/ST/STM32_USB_Device_Library/Core/Src/usbd_ctlreq.c 0x00000000   Number         0  usbd_ctlreq.o ABSOLUTE
    ../Middlewares/ST/STM32_USB_Device_Library/Core/Src/usbd_ioreq.c 0x00000000   Number         0  usbd_ioreq.o ABSOLUTE
    ../USB_Device/App/usb_device.c           0x00000000   Number         0  usb_device.o ABSOLUTE
    ../USB_Device/App/usbd_desc.c            0x00000000   Number         0  usbd_desc.o ABSOLUTE
    ../USB_Device/App/usbd_storage_if.c      0x00000000   Number         0  usbd_storage_if.o ABSOLUTE
    ../USB_Device/Target/usbd_conf.c         0x00000000   Number         0  usbd_conf.o ABSOLUTE
    ../clib/angel/boardlib.s                 0x00000000   Number         0  boardinit1.o ABSOLUTE
    ../clib/angel/boardlib.s                 0x00000000   Number         0  boardinit2.o ABSOLUTE
    ../clib/angel/boardlib.s                 0x00000000   Number         0  boardshut.o ABSOLUTE
    ../clib/angel/boardlib.s                 0x00000000   Number         0  boardinit3.o ABSOLUTE
    ../clib/angel/dczerorl2.s                0x00000000   Number         0  __dczerorl2.o ABSOLUTE
    ../clib/angel/handlers.s                 0x00000000   Number         0  __scatter_zi.o ABSOLUTE
    ../clib/angel/kernel.s                   0x00000000   Number         0  __rtentry2.o ABSOLUTE
    ../clib/angel/kernel.s                   0x00000000   Number         0  __rtentry4.o ABSOLUTE
    ../clib/angel/kernel.s                   0x00000000   Number         0  rtexit2.o ABSOLUTE
    ../clib/angel/kernel.s                   0x00000000   Number         0  rtexit.o ABSOLUTE
    ../clib/angel/kernel.s                   0x00000000   Number         0  __rtentry.o ABSOLUTE
    ../clib/angel/rt.s                       0x00000000   Number         0  rt_raise.o ABSOLUTE
    ../clib/angel/scatter.s                  0x00000000   Number         0  __scatter.o ABSOLUTE
    ../clib/angel/startup.s                  0x00000000   Number         0  __main.o ABSOLUTE
    ../clib/angel/sys.s                      0x00000000   Number         0  indicate_semi.o ABSOLUTE
    ../clib/angel/sys.s                      0x00000000   Number         0  use_no_semi.o ABSOLUTE
    ../clib/angel/sys.s                      0x00000000   Number         0  sys_stackheap_outer.o ABSOLUTE
    ../clib/angel/sys.s                      0x00000000   Number         0  libspace.o ABSOLUTE
    ../clib/angel/sysapp.c                   0x00000000   Number         0  sys_command.o ABSOLUTE
    ../clib/angel/sysapp.c                   0x00000000   Number         0  sys_wrch.o ABSOLUTE
    ../clib/angel/sysapp.c                   0x00000000   Number         0  sys_exit.o ABSOLUTE
    ../clib/armsys.c                         0x00000000   Number         0  argv_veneer.o ABSOLUTE
    ../clib/armsys.c                         0x00000000   Number         0  no_argv.o ABSOLUTE
    ../clib/armsys.c                         0x00000000   Number         0  argv_veneer.o ABSOLUTE
    ../clib/armsys.c                         0x00000000   Number         0  _get_argv_nomalloc.o ABSOLUTE
    ../clib/heapalloc.c                      0x00000000   Number         0  hrguard.o ABSOLUTE
    ../clib/heapaux.c                        0x00000000   Number         0  heapauxi.o ABSOLUTE
    ../clib/libinit.s                        0x00000000   Number         0  libshutdown.o ABSOLUTE
    ../clib/libinit.s                        0x00000000   Number         0  libshutdown2.o ABSOLUTE
    ../clib/libinit.s                        0x00000000   Number         0  libinit2.o ABSOLUTE
    ../clib/libinit.s                        0x00000000   Number         0  libinit.o ABSOLUTE
    ../clib/memcpset.s                       0x00000000   Number         0  rt_memclr_w.o ABSOLUTE
    ../clib/memcpset.s                       0x00000000   Number         0  rt_memcpy_w.o ABSOLUTE
    ../clib/signal.c                         0x00000000   Number         0  defsig_pvfn_inner.o ABSOLUTE
    ../clib/signal.c                         0x00000000   Number         0  defsig_stak_inner.o ABSOLUTE
    ../clib/signal.c                         0x00000000   Number         0  defsig_rtred_inner.o ABSOLUTE
    ../clib/signal.c                         0x00000000   Number         0  defsig_fpe_inner.o ABSOLUTE
    ../clib/signal.c                         0x00000000   Number         0  defsig_segv_inner.o ABSOLUTE
    ../clib/signal.c                         0x00000000   Number         0  defsig_rtmem_formal.o ABSOLUTE
    ../clib/signal.c                         0x00000000   Number         0  defsig_cppl_inner.o ABSOLUTE
    ../clib/signal.c                         0x00000000   Number         0  defsig_abrt_inner.o ABSOLUTE
    ../clib/signal.c                         0x00000000   Number         0  defsig_other.o ABSOLUTE
    ../clib/signal.c                         0x00000000   Number         0  defsig_general.o ABSOLUTE
    ../clib/signal.c                         0x00000000   Number         0  __raise.o ABSOLUTE
    ../clib/signal.c                         0x00000000   Number         0  defsig_rtmem_outer.o ABSOLUTE
    ../clib/signal.c                         0x00000000   Number         0  defsig_rtmem_inner.o ABSOLUTE
    ../clib/signal.c                         0x00000000   Number         0  defsig_exit.o ABSOLUTE
    ../clib/signal.s                         0x00000000   Number         0  defsig.o ABSOLUTE
    ../clib/stdlib.c                         0x00000000   Number         0  exit.o ABSOLUTE
    ../fplib/fpinit.s                        0x00000000   Number         0  fpinit.o ABSOLUTE
    ..\Core\Src\board.c                      0x00000000   Number         0  board.o ABSOLUTE
    ..\Core\Src\flash_access.c               0x00000000   Number         0  flash_access.o ABSOLUTE
    ..\Core\Src\gpio.c                       0x00000000   Number         0  gpio.o ABSOLUTE
    ..\Core\Src\main.c                       0x00000000   Number         0  main.o ABSOLUTE
    ..\Core\Src\rtc.c                        0x00000000   Number         0  rtc.o ABSOLUTE
    ..\Core\Src\stm32g4xx_hal_msp.c          0x00000000   Number         0  stm32g4xx_hal_msp.o ABSOLUTE
    ..\Core\Src\stm32g4xx_it.c               0x00000000   Number         0  stm32g4xx_it.o ABSOLUTE
    ..\Core\Src\system_stm32g4xx.c           0x00000000   Number         0  system_stm32g4xx.o ABSOLUTE
    ..\Drivers\STM32G4xx_HAL_Driver\Src\stm32g4xx_hal.c 0x00000000   Number         0  stm32g4xx_hal.o ABSOLUTE
    ..\Drivers\STM32G4xx_HAL_Driver\Src\stm32g4xx_hal_cortex.c 0x00000000   Number         0  stm32g4xx_hal_cortex.o ABSOLUTE
    ..\Drivers\STM32G4xx_HAL_Driver\Src\stm32g4xx_hal_dma.c 0x00000000   Number         0  stm32g4xx_hal_dma.o ABSOLUTE
    ..\Drivers\STM32G4xx_HAL_Driver\Src\stm32g4xx_hal_dma_ex.c 0x00000000   Number         0  stm32g4xx_hal_dma_ex.o ABSOLUTE
    ..\Drivers\STM32G4xx_HAL_Driver\Src\stm32g4xx_hal_exti.c 0x00000000   Number         0  stm32g4xx_hal_exti.o ABSOLUTE
    ..\Drivers\STM32G4xx_HAL_Driver\Src\stm32g4xx_hal_flash.c 0x00000000   Number         0  stm32g4xx_hal_flash.o ABSOLUTE
    ..\Drivers\STM32G4xx_HAL_Driver\Src\stm32g4xx_hal_flash_ex.c 0x00000000   Number         0  stm32g4xx_hal_flash_ex.o ABSOLUTE
    ..\Drivers\STM32G4xx_HAL_Driver\Src\stm32g4xx_hal_flash_ramfunc.c 0x00000000   Number         0  stm32g4xx_hal_flash_ramfunc.o ABSOLUTE
    ..\Drivers\STM32G4xx_HAL_Driver\Src\stm32g4xx_hal_gpio.c 0x00000000   Number         0  stm32g4xx_hal_gpio.o ABSOLUTE
    ..\Drivers\STM32G4xx_HAL_Driver\Src\stm32g4xx_hal_pcd.c 0x00000000   Number         0  stm32g4xx_hal_pcd.o ABSOLUTE
    ..\Drivers\STM32G4xx_HAL_Driver\Src\stm32g4xx_hal_pcd_ex.c 0x00000000   Number         0  stm32g4xx_hal_pcd_ex.o ABSOLUTE
    ..\Drivers\STM32G4xx_HAL_Driver\Src\stm32g4xx_hal_pwr.c 0x00000000   Number         0  stm32g4xx_hal_pwr.o ABSOLUTE
    ..\Drivers\STM32G4xx_HAL_Driver\Src\stm32g4xx_hal_pwr_ex.c 0x00000000   Number         0  stm32g4xx_hal_pwr_ex.o ABSOLUTE
    ..\Drivers\STM32G4xx_HAL_Driver\Src\stm32g4xx_hal_rcc.c 0x00000000   Number         0  stm32g4xx_hal_rcc.o ABSOLUTE
    ..\Drivers\STM32G4xx_HAL_Driver\Src\stm32g4xx_hal_rcc_ex.c 0x00000000   Number         0  stm32g4xx_hal_rcc_ex.o ABSOLUTE
    ..\Drivers\STM32G4xx_HAL_Driver\Src\stm32g4xx_hal_rtc.c 0x00000000   Number         0  stm32g4xx_hal_rtc.o ABSOLUTE
    ..\Drivers\STM32G4xx_HAL_Driver\Src\stm32g4xx_hal_rtc_ex.c 0x00000000   Number         0  stm32g4xx_hal_rtc_ex.o ABSOLUTE
    ..\Drivers\STM32G4xx_HAL_Driver\Src\stm32g4xx_hal_tim.c 0x00000000   Number         0  stm32g4xx_hal_tim.o ABSOLUTE
    ..\Drivers\STM32G4xx_HAL_Driver\Src\stm32g4xx_hal_tim_ex.c 0x00000000   Number         0  stm32g4xx_hal_tim_ex.o ABSOLUTE
    ..\Drivers\STM32G4xx_HAL_Driver\Src\stm32g4xx_ll_usb.c 0x00000000   Number         0  stm32g4xx_ll_usb.o ABSOLUTE
    ..\Middlewares\ST\STM32_USB_Device_Library\Class\MSC\Src\usbd_msc.c 0x00000000   Number         0  usbd_msc.o ABSOLUTE
    ..\Middlewares\ST\STM32_USB_Device_Library\Class\MSC\Src\usbd_msc_bot.c 0x00000000   Number         0  usbd_msc_bot.o ABSOLUTE
    ..\Middlewares\ST\STM32_USB_Device_Library\Class\MSC\Src\usbd_msc_data.c 0x00000000   Number         0  usbd_msc_data.o ABSOLUTE
    ..\Middlewares\ST\STM32_USB_Device_Library\Class\MSC\Src\usbd_msc_scsi.c 0x00000000   Number         0  usbd_msc_scsi.o ABSOLUTE
    ..\Middlewares\ST\STM32_USB_Device_Library\Core\Src\usbd_core.c 0x00000000   Number         0  usbd_core.o ABSOLUTE
    ..\Middlewares\ST\STM32_USB_Device_Library\Core\Src\usbd_ctlreq.c 0x00000000   Number         0  usbd_ctlreq.o ABSOLUTE
    ..\Middlewares\ST\STM32_USB_Device_Library\Core\Src\usbd_ioreq.c 0x00000000   Number         0  usbd_ioreq.o ABSOLUTE
    ..\USB_Device\App\usb_device.c           0x00000000   Number         0  usb_device.o ABSOLUTE
    ..\USB_Device\App\usbd_desc.c            0x00000000   Number         0  usbd_desc.o ABSOLUTE
    ..\USB_Device\App\usbd_storage_if.c      0x00000000   Number         0  usbd_storage_if.o ABSOLUTE
    ..\USB_Device\Target\usbd_conf.c         0x00000000   Number         0  usbd_conf.o ABSOLUTE
    ..\\Core\\Src\\board.c                   0x00000000   Number         0  board.o ABSOLUTE
    ..\\Core\\Src\\flash_access.c            0x00000000   Number         0  flash_access.o ABSOLUTE
    dc.s                                     0x00000000   Number         0  dc.o ABSOLUTE
    startup_stm32g431xx.s                    0x00000000   Number         0  startup_stm32g431xx.o ABSOLUTE
    RESET                                    0x08000000   Section      472  startup_stm32g431xx.o(RESET)
    !!!main                                  0x080001d8   Section        8  __main.o(!!!main)
    !!!scatter                               0x080001e0   Section       52  __scatter.o(!!!scatter)
    !!dczerorl2                              0x08000214   Section       90  __dczerorl2.o(!!dczerorl2)
    !!handler_zi                             0x08000270   Section       28  __scatter_zi.o(!!handler_zi)
    .ARM.Collect$$libinit$$00000000          0x0800028c   Section        2  libinit.o(.ARM.Collect$$libinit$$00000000)
    .ARM.Collect$$libinit$$00000001          0x0800028e   Section        4  libinit2.o(.ARM.Collect$$libinit$$00000001)
    .ARM.Collect$$libinit$$00000004          0x08000292   Section        0  libinit2.o(.ARM.Collect$$libinit$$00000004)
    .ARM.Collect$$libinit$$0000000A          0x08000292   Section        0  libinit2.o(.ARM.Collect$$libinit$$0000000A)
    .ARM.Collect$$libinit$$0000000C          0x08000292   Section        0  libinit2.o(.ARM.Collect$$libinit$$0000000C)
    .ARM.Collect$$libinit$$0000000E          0x08000292   Section        0  libinit2.o(.ARM.Collect$$libinit$$0000000E)
    .ARM.Collect$$libinit$$00000011          0x08000292   Section        0  libinit2.o(.ARM.Collect$$libinit$$00000011)
    .ARM.Collect$$libinit$$00000013          0x08000292   Section        0  libinit2.o(.ARM.Collect$$libinit$$00000013)
    .ARM.Collect$$libinit$$00000015          0x08000292   Section        0  libinit2.o(.ARM.Collect$$libinit$$00000015)
    .ARM.Collect$$libinit$$00000017          0x08000292   Section        0  libinit2.o(.ARM.Collect$$libinit$$00000017)
    .ARM.Collect$$libinit$$00000019          0x08000292   Section        0  libinit2.o(.ARM.Collect$$libinit$$00000019)
    .ARM.Collect$$libinit$$0000001B          0x08000292   Section        0  libinit2.o(.ARM.Collect$$libinit$$0000001B)
    .ARM.Collect$$libinit$$0000001D          0x08000292   Section        0  libinit2.o(.ARM.Collect$$libinit$$0000001D)
    .ARM.Collect$$libinit$$0000001F          0x08000292   Section        0  libinit2.o(.ARM.Collect$$libinit$$0000001F)
    .ARM.Collect$$libinit$$00000021          0x08000292   Section        0  libinit2.o(.ARM.Collect$$libinit$$00000021)
    .ARM.Collect$$libinit$$00000023          0x08000292   Section        0  libinit2.o(.ARM.Collect$$libinit$$00000023)
    .ARM.Collect$$libinit$$00000025          0x08000292   Section        0  libinit2.o(.ARM.Collect$$libinit$$00000025)
    .ARM.Collect$$libinit$$0000002C          0x08000292   Section        0  libinit2.o(.ARM.Collect$$libinit$$0000002C)
    .ARM.Collect$$libinit$$0000002E          0x08000292   Section        0  libinit2.o(.ARM.Collect$$libinit$$0000002E)
    .ARM.Collect$$libinit$$00000030          0x08000292   Section        0  libinit2.o(.ARM.Collect$$libinit$$00000030)
    .ARM.Collect$$libinit$$00000032          0x08000292   Section        0  libinit2.o(.ARM.Collect$$libinit$$00000032)
    .ARM.Collect$$libinit$$00000033          0x08000292   Section        2  libinit2.o(.ARM.Collect$$libinit$$00000033)
    .ARM.Collect$$libshutdown$$00000000      0x08000294   Section        2  libshutdown.o(.ARM.Collect$$libshutdown$$00000000)
    .ARM.Collect$$libshutdown$$00000002      0x08000296   Section        0  libshutdown2.o(.ARM.Collect$$libshutdown$$00000002)
    .ARM.Collect$$libshutdown$$00000004      0x08000296   Section        0  libshutdown2.o(.ARM.Collect$$libshutdown$$00000004)
    .ARM.Collect$$libshutdown$$00000006      0x08000296   Section        0  libshutdown2.o(.ARM.Collect$$libshutdown$$00000006)
    .ARM.Collect$$libshutdown$$00000009      0x08000296   Section        0  libshutdown2.o(.ARM.Collect$$libshutdown$$00000009)
    .ARM.Collect$$libshutdown$$0000000C      0x08000296   Section        0  libshutdown2.o(.ARM.Collect$$libshutdown$$0000000C)
    .ARM.Collect$$libshutdown$$0000000E      0x08000296   Section        0  libshutdown2.o(.ARM.Collect$$libshutdown$$0000000E)
    .ARM.Collect$$libshutdown$$00000011      0x08000296   Section        0  libshutdown2.o(.ARM.Collect$$libshutdown$$00000011)
    .ARM.Collect$$libshutdown$$00000012      0x08000296   Section        2  libshutdown2.o(.ARM.Collect$$libshutdown$$00000012)
    .ARM.Collect$$rtentry$$00000000          0x08000298   Section        0  __rtentry.o(.ARM.Collect$$rtentry$$00000000)
    .ARM.Collect$$rtentry$$00000002          0x08000298   Section        0  __rtentry2.o(.ARM.Collect$$rtentry$$00000002)
    .ARM.Collect$$rtentry$$00000004          0x08000298   Section        6  __rtentry4.o(.ARM.Collect$$rtentry$$00000004)
    .ARM.Collect$$rtentry$$00000009          0x0800029e   Section        0  __rtentry2.o(.ARM.Collect$$rtentry$$00000009)
    .ARM.Collect$$rtentry$$0000000A          0x0800029e   Section        4  __rtentry2.o(.ARM.Collect$$rtentry$$0000000A)
    .ARM.Collect$$rtentry$$0000000C          0x080002a2   Section        0  __rtentry2.o(.ARM.Collect$$rtentry$$0000000C)
    .ARM.Collect$$rtentry$$0000000D          0x080002a2   Section        8  __rtentry2.o(.ARM.Collect$$rtentry$$0000000D)
    .ARM.Collect$$rtexit$$00000000           0x080002aa   Section        2  rtexit.o(.ARM.Collect$$rtexit$$00000000)
    .ARM.Collect$$rtexit$$00000002           0x080002ac   Section        0  rtexit2.o(.ARM.Collect$$rtexit$$00000002)
    .ARM.Collect$$rtexit$$00000003           0x080002ac   Section        4  rtexit2.o(.ARM.Collect$$rtexit$$00000003)
    .ARM.Collect$$rtexit$$00000004           0x080002b0   Section        6  rtexit2.o(.ARM.Collect$$rtexit$$00000004)
    .text                                    0x080002b8   Section       64  startup_stm32g431xx.o(.text)
    $v0                                      0x080002b8   Number         0  startup_stm32g431xx.o(.text)
    .text                                    0x080002f8   Section      100  rt_memcpy_w.o(.text)
    .text                                    0x0800035c   Section       78  rt_memclr_w.o(.text)
    .text                                    0x080003aa   Section        0  heapauxi.o(.text)
    .text                                    0x080003b0   Section       74  sys_stackheap_outer.o(.text)
    .text                                    0x080003fa   Section        0  exit.o(.text)
    .text                                    0x0800040c   Section        8  libspace.o(.text)
    .text                                    0x08000414   Section        0  sys_exit.o(.text)
    .text                                    0x08000420   Section        2  use_no_semi.o(.text)
    .text                                    0x08000422   Section        0  indicate_semi.o(.text)
    i.BusFault_Handler                       0x08000422   Section        0  stm32g4xx_it.o(i.BusFault_Handler)
    i.DebugMon_Handler                       0x08000424   Section        0  stm32g4xx_it.o(i.DebugMon_Handler)
    i.Error_Handler                          0x08000426   Section        0  main.o(i.Error_Handler)
    i.FLASH_FlushCaches                      0x0800042c   Section        0  stm32g4xx_hal_flash_ex.o(i.FLASH_FlushCaches)
    i.FLASH_MassErase                        0x08000488   Section        0  stm32g4xx_hal_flash_ex.o(i.FLASH_MassErase)
    FLASH_MassErase                          0x08000489   Thumb Code    24  stm32g4xx_hal_flash_ex.o(i.FLASH_MassErase)
    i.FLASH_PageErase                        0x080004a4   Section        0  stm32g4xx_hal_flash_ex.o(i.FLASH_PageErase)
    i.FLASH_Program_DoubleWord               0x080004cc   Section        0  stm32g4xx_hal_flash.o(i.FLASH_Program_DoubleWord)
    FLASH_Program_DoubleWord                 0x080004cd   Thumb Code    22  stm32g4xx_hal_flash.o(i.FLASH_Program_DoubleWord)
    i.FLASH_Program_Fast                     0x080004e8   Section        0  stm32g4xx_hal_flash.o(i.FLASH_Program_Fast)
    FLASH_Program_Fast                       0x080004e9   Thumb Code    38  stm32g4xx_hal_flash.o(i.FLASH_Program_Fast)
    i.FLASH_WaitForLastOperation             0x08000514   Section        0  stm32g4xx_hal_flash.o(i.FLASH_WaitForLastOperation)
    i.HAL_FLASHEx_Erase                      0x08000574   Section        0  stm32g4xx_hal_flash_ex.o(i.HAL_FLASHEx_Erase)
    i.HAL_FLASH_Program                      0x08000648   Section        0  stm32g4xx_hal_flash.o(i.HAL_FLASH_Program)
    i.HAL_FLASH_Unlock                       0x080006c4   Section        0  stm32g4xx_hal_flash.o(i.HAL_FLASH_Unlock)
    i.HAL_GPIO_Init                          0x080006ec   Section        0  stm32g4xx_hal_gpio.o(i.HAL_GPIO_Init)
    i.HAL_GPIO_ReadPin                       0x08000934   Section        0  stm32g4xx_hal_gpio.o(i.HAL_GPIO_ReadPin)
    i.HAL_GPIO_TogglePin                     0x0800093e   Section        0  stm32g4xx_hal_gpio.o(i.HAL_GPIO_TogglePin)
    i.HAL_GPIO_WritePin                      0x0800094e   Section        0  stm32g4xx_hal_gpio.o(i.HAL_GPIO_WritePin)
    i.HAL_GetTick                            0x08000958   Section        0  stm32g4xx_hal.o(i.HAL_GetTick)
    i.HAL_IncTick                            0x08000964   Section        0  stm32g4xx_hal.o(i.HAL_IncTick)
    i.HAL_Init                               0x08000974   Section        0  stm32g4xx_hal.o(i.HAL_Init)
    i.HAL_InitTick                           0x08000994   Section        0  stm32g4xx_hal.o(i.HAL_InitTick)
    i.HAL_MspInit                            0x080009d8   Section        0  stm32g4xx_hal_msp.o(i.HAL_MspInit)
    i.HAL_NVIC_EnableIRQ                     0x08000a08   Section        0  stm32g4xx_hal_cortex.o(i.HAL_NVIC_EnableIRQ)
    i.HAL_NVIC_SetPriority                   0x08000a24   Section        0  stm32g4xx_hal_cortex.o(i.HAL_NVIC_SetPriority)
    i.HAL_NVIC_SetPriorityGrouping           0x08000a64   Section        0  stm32g4xx_hal_cortex.o(i.HAL_NVIC_SetPriorityGrouping)
    i.HAL_PCDEx_ActivateLPM                  0x08000a88   Section        0  stm32g4xx_hal_pcd_ex.o(i.HAL_PCDEx_ActivateLPM)
    i.HAL_PCDEx_LPM_Callback                 0x08000aac   Section        0  usbd_conf.o(i.HAL_PCDEx_LPM_Callback)
    i.HAL_PCDEx_PMAConfig                    0x08000af0   Section        0  stm32g4xx_hal_pcd_ex.o(i.HAL_PCDEx_PMAConfig)
    i.HAL_PCD_DataInStageCallback            0x08000b2c   Section        0  usbd_conf.o(i.HAL_PCD_DataInStageCallback)
    i.HAL_PCD_DataOutStageCallback           0x08000b3e   Section        0  usbd_conf.o(i.HAL_PCD_DataOutStageCallback)
    i.HAL_PCD_EP_Close                       0x08000b52   Section        0  stm32g4xx_hal_pcd.o(i.HAL_PCD_EP_Close)
    i.HAL_PCD_EP_ClrStall                    0x08000b9e   Section        0  stm32g4xx_hal_pcd.o(i.HAL_PCD_EP_ClrStall)
    i.HAL_PCD_EP_DB_Receive                  0x08000bfa   Section        0  stm32g4xx_hal_pcd.o(i.HAL_PCD_EP_DB_Receive)
    HAL_PCD_EP_DB_Receive                    0x08000bfb   Thumb Code   220  stm32g4xx_hal_pcd.o(i.HAL_PCD_EP_DB_Receive)
    i.HAL_PCD_EP_DB_Transmit                 0x08000cd6   Section        0  stm32g4xx_hal_pcd.o(i.HAL_PCD_EP_DB_Transmit)
    HAL_PCD_EP_DB_Transmit                   0x08000cd7   Thumb Code   816  stm32g4xx_hal_pcd.o(i.HAL_PCD_EP_DB_Transmit)
    i.HAL_PCD_EP_Flush                       0x08001006   Section        0  stm32g4xx_hal_pcd.o(i.HAL_PCD_EP_Flush)
    i.HAL_PCD_EP_GetRxCount                  0x0800100a   Section        0  stm32g4xx_hal_pcd.o(i.HAL_PCD_EP_GetRxCount)
    i.HAL_PCD_EP_Open                        0x0800101c   Section        0  stm32g4xx_hal_pcd.o(i.HAL_PCD_EP_Open)
    i.HAL_PCD_EP_Receive                     0x0800107c   Section        0  stm32g4xx_hal_pcd.o(i.HAL_PCD_EP_Receive)
    i.HAL_PCD_EP_SetStall                    0x080010ae   Section        0  stm32g4xx_hal_pcd.o(i.HAL_PCD_EP_SetStall)
    i.HAL_PCD_EP_Transmit                    0x0800110e   Section        0  stm32g4xx_hal_pcd.o(i.HAL_PCD_EP_Transmit)
    i.HAL_PCD_IRQHandler                     0x08001142   Section        0  stm32g4xx_hal_pcd.o(i.HAL_PCD_IRQHandler)
    i.HAL_PCD_Init                           0x0800128c   Section        0  stm32g4xx_hal_pcd.o(i.HAL_PCD_Init)
    i.HAL_PCD_MspInit                        0x08001340   Section        0  usbd_conf.o(i.HAL_PCD_MspInit)
    i.HAL_PCD_ResetCallback                  0x08001398   Section        0  usbd_conf.o(i.HAL_PCD_ResetCallback)
    i.HAL_PCD_ResumeCallback                 0x080013c0   Section        0  usbd_conf.o(i.HAL_PCD_ResumeCallback)
    i.HAL_PCD_SOFCallback                    0x080013e8   Section        0  usbd_conf.o(i.HAL_PCD_SOFCallback)
    i.HAL_PCD_SetAddress                     0x080013f0   Section        0  stm32g4xx_hal_pcd.o(i.HAL_PCD_SetAddress)
    i.HAL_PCD_SetupStageCallback             0x08001418   Section        0  usbd_conf.o(i.HAL_PCD_SetupStageCallback)
    i.HAL_PCD_Start                          0x08001426   Section        0  stm32g4xx_hal_pcd.o(i.HAL_PCD_Start)
    i.HAL_PCD_SuspendCallback                0x08001450   Section        0  usbd_conf.o(i.HAL_PCD_SuspendCallback)
    i.HAL_PWREx_ControlVoltageScaling        0x08001474   Section        0  stm32g4xx_hal_pwr_ex.o(i.HAL_PWREx_ControlVoltageScaling)
    i.HAL_PWREx_DisableUCPDDeadBattery       0x08001530   Section        0  stm32g4xx_hal_pwr_ex.o(i.HAL_PWREx_DisableUCPDDeadBattery)
    i.HAL_PWR_EnableBkUpAccess               0x08001540   Section        0  stm32g4xx_hal_pwr.o(i.HAL_PWR_EnableBkUpAccess)
    i.HAL_RCCEx_PeriphCLKConfig              0x08001550   Section        0  stm32g4xx_hal_rcc_ex.o(i.HAL_RCCEx_PeriphCLKConfig)
    i.HAL_RCC_ClockConfig                    0x080017d8   Section        0  stm32g4xx_hal_rcc.o(i.HAL_RCC_ClockConfig)
    i.HAL_RCC_GetSysClockFreq                0x080019b4   Section        0  stm32g4xx_hal_rcc.o(i.HAL_RCC_GetSysClockFreq)
    i.HAL_RCC_OscConfig                      0x08001a20   Section        0  stm32g4xx_hal_rcc.o(i.HAL_RCC_OscConfig)
    i.HAL_RTC_GetDate                        0x08001e2c   Section        0  stm32g4xx_hal_rtc.o(i.HAL_RTC_GetDate)
    i.HAL_RTC_GetTime                        0x08001e70   Section        0  stm32g4xx_hal_rtc.o(i.HAL_RTC_GetTime)
    i.HAL_RTC_Init                           0x08001ec4   Section        0  stm32g4xx_hal_rtc.o(i.HAL_RTC_Init)
    i.HAL_RTC_MspInit                        0x08001f58   Section        0  rtc.o(i.HAL_RTC_MspInit)
    i.HAL_RTC_SetDate                        0x08001fb0   Section        0  stm32g4xx_hal_rtc.o(i.HAL_RTC_SetDate)
    i.HAL_RTC_SetTime                        0x08002050   Section        0  stm32g4xx_hal_rtc.o(i.HAL_RTC_SetTime)
    i.HAL_RTC_WaitForSynchro                 0x0800211c   Section        0  stm32g4xx_hal_rtc.o(i.HAL_RTC_WaitForSynchro)
    i.HAL_SYSTICK_Config                     0x08002152   Section        0  stm32g4xx_hal_cortex.o(i.HAL_SYSTICK_Config)
    i.HardFault_Handler                      0x0800217a   Section        0  stm32g4xx_it.o(i.HardFault_Handler)
    i.IntToUnicode                           0x0800217c   Section        0  usbd_desc.o(i.IntToUnicode)
    IntToUnicode                             0x0800217d   Thumb Code    56  usbd_desc.o(i.IntToUnicode)
    i.MSC_BOT_Abort                          0x080021b4   Section        0  usbd_msc_bot.o(i.MSC_BOT_Abort)
    MSC_BOT_Abort                            0x080021b5   Thumb Code    72  usbd_msc_bot.o(i.MSC_BOT_Abort)
    i.MSC_BOT_CBW_Decode                     0x080021fc   Section        0  usbd_msc_bot.o(i.MSC_BOT_CBW_Decode)
    MSC_BOT_CBW_Decode                       0x080021fd   Thumb Code   206  usbd_msc_bot.o(i.MSC_BOT_CBW_Decode)
    i.MSC_BOT_CplClrFeature                  0x080022d0   Section        0  usbd_msc_bot.o(i.MSC_BOT_CplClrFeature)
    i.MSC_BOT_DataIn                         0x0800230c   Section        0  usbd_msc_bot.o(i.MSC_BOT_DataIn)
    i.MSC_BOT_DataOut                        0x0800234a   Section        0  usbd_msc_bot.o(i.MSC_BOT_DataOut)
    i.MSC_BOT_DeInit                         0x08002388   Section        0  usbd_msc_bot.o(i.MSC_BOT_DeInit)
    i.MSC_BOT_Init                           0x08002396   Section        0  usbd_msc_bot.o(i.MSC_BOT_Init)
    i.MSC_BOT_Reset                          0x080023e2   Section        0  usbd_msc_bot.o(i.MSC_BOT_Reset)
    i.MSC_BOT_SendCSW                        0x0800241c   Section        0  usbd_msc_bot.o(i.MSC_BOT_SendCSW)
    i.MX_GPIO_Init                           0x0800245c   Section        0  gpio.o(i.MX_GPIO_Init)
    i.MX_RTC_Init                            0x08002498   Section        0  rtc.o(i.MX_RTC_Init)
    i.MX_USB_Device_Init                     0x08002524   Section        0  usb_device.o(i.MX_USB_Device_Init)
    i.MemManage_Handler                      0x08002578   Section        0  stm32g4xx_it.o(i.MemManage_Handler)
    i.NMI_Handler                            0x0800257a   Section        0  stm32g4xx_it.o(i.NMI_Handler)
    i.PCD_EP_ISR_Handler                     0x0800257c   Section        0  stm32g4xx_hal_pcd.o(i.PCD_EP_ISR_Handler)
    PCD_EP_ISR_Handler                       0x0800257d   Thumb Code   890  stm32g4xx_hal_pcd.o(i.PCD_EP_ISR_Handler)
    i.PendSV_Handler                         0x080028f6   Section        0  stm32g4xx_it.o(i.PendSV_Handler)
    i.RTC_Bcd2ToByte                         0x080028f8   Section        0  stm32g4xx_hal_rtc.o(i.RTC_Bcd2ToByte)
    i.RTC_ByteToBcd2                         0x0800290a   Section        0  stm32g4xx_hal_rtc.o(i.RTC_ByteToBcd2)
    i.RTC_EnterInitMode                      0x08002924   Section        0  stm32g4xx_hal_rtc.o(i.RTC_EnterInitMode)
    i.RTC_ExitInitMode                       0x0800296e   Section        0  stm32g4xx_hal_rtc.o(i.RTC_ExitInitMode)
    i.SCSI_CheckAddressRange                 0x080029be   Section        0  usbd_msc_scsi.o(i.SCSI_CheckAddressRange)
    SCSI_CheckAddressRange                   0x080029bf   Thumb Code    38  usbd_msc_scsi.o(i.SCSI_CheckAddressRange)
    i.SCSI_Inquiry                           0x080029e4   Section        0  usbd_msc_scsi.o(i.SCSI_Inquiry)
    SCSI_Inquiry                             0x080029e5   Thumb Code   108  usbd_msc_scsi.o(i.SCSI_Inquiry)
    i.SCSI_ProcessCmd                        0x08002a58   Section        0  usbd_msc_scsi.o(i.SCSI_ProcessCmd)
    i.SCSI_ProcessRead                       0x08002bb0   Section        0  usbd_msc_scsi.o(i.SCSI_ProcessRead)
    SCSI_ProcessRead                         0x08002bb1   Thumb Code   154  usbd_msc_scsi.o(i.SCSI_ProcessRead)
    i.SCSI_ProcessWrite                      0x08002c4a   Section        0  usbd_msc_scsi.o(i.SCSI_ProcessWrite)
    SCSI_ProcessWrite                        0x08002c4b   Thumb Code   166  usbd_msc_scsi.o(i.SCSI_ProcessWrite)
    i.SCSI_Read10                            0x08002cf0   Section        0  usbd_msc_scsi.o(i.SCSI_Read10)
    SCSI_Read10                              0x08002cf1   Thumb Code   172  usbd_msc_scsi.o(i.SCSI_Read10)
    i.SCSI_Read12                            0x08002d9c   Section        0  usbd_msc_scsi.o(i.SCSI_Read12)
    SCSI_Read12                              0x08002d9d   Thumb Code   182  usbd_msc_scsi.o(i.SCSI_Read12)
    i.SCSI_ReadCapacity10                    0x08002e52   Section        0  usbd_msc_scsi.o(i.SCSI_ReadCapacity10)
    SCSI_ReadCapacity10                      0x08002e53   Thumb Code   110  usbd_msc_scsi.o(i.SCSI_ReadCapacity10)
    i.SCSI_ReadCapacity16                    0x08002ec0   Section        0  usbd_msc_scsi.o(i.SCSI_ReadCapacity16)
    SCSI_ReadCapacity16                      0x08002ec1   Thumb Code   162  usbd_msc_scsi.o(i.SCSI_ReadCapacity16)
    i.SCSI_ReadFormatCapacity                0x08002f62   Section        0  usbd_msc_scsi.o(i.SCSI_ReadFormatCapacity)
    SCSI_ReadFormatCapacity                  0x08002f63   Thumb Code   126  usbd_msc_scsi.o(i.SCSI_ReadFormatCapacity)
    i.SCSI_RequestSense                      0x08002fe0   Section        0  usbd_msc_scsi.o(i.SCSI_RequestSense)
    SCSI_RequestSense                        0x08002fe1   Thumb Code   128  usbd_msc_scsi.o(i.SCSI_RequestSense)
    i.SCSI_SenseCode                         0x08003060   Section        0  usbd_msc_scsi.o(i.SCSI_SenseCode)
    i.SCSI_TestUnitReady                     0x080030a4   Section        0  usbd_msc_scsi.o(i.SCSI_TestUnitReady)
    SCSI_TestUnitReady                       0x080030a5   Thumb Code    94  usbd_msc_scsi.o(i.SCSI_TestUnitReady)
    i.SCSI_UpdateBotData                     0x08003102   Section        0  usbd_msc_scsi.o(i.SCSI_UpdateBotData)
    SCSI_UpdateBotData                       0x08003103   Thumb Code    32  usbd_msc_scsi.o(i.SCSI_UpdateBotData)
    i.SCSI_Write10                           0x08003122   Section        0  usbd_msc_scsi.o(i.SCSI_Write10)
    SCSI_Write10                             0x08003123   Thumb Code   200  usbd_msc_scsi.o(i.SCSI_Write10)
    i.SCSI_Write12                           0x080031ea   Section        0  usbd_msc_scsi.o(i.SCSI_Write12)
    SCSI_Write12                             0x080031eb   Thumb Code   216  usbd_msc_scsi.o(i.SCSI_Write12)
    i.STORAGE_GetCapacity_FS                 0x080032c2   Section        0  usbd_storage_if.o(i.STORAGE_GetCapacity_FS)
    STORAGE_GetCapacity_FS                   0x080032c3   Thumb Code    12  usbd_storage_if.o(i.STORAGE_GetCapacity_FS)
    i.STORAGE_GetMaxLun_FS                   0x080032ce   Section        0  usbd_storage_if.o(i.STORAGE_GetMaxLun_FS)
    STORAGE_GetMaxLun_FS                     0x080032cf   Thumb Code     4  usbd_storage_if.o(i.STORAGE_GetMaxLun_FS)
    i.STORAGE_Init_FS                        0x080032d2   Section        0  usbd_storage_if.o(i.STORAGE_Init_FS)
    STORAGE_Init_FS                          0x080032d3   Thumb Code    10  usbd_storage_if.o(i.STORAGE_Init_FS)
    i.STORAGE_IsReady_FS                     0x080032dc   Section        0  usbd_storage_if.o(i.STORAGE_IsReady_FS)
    STORAGE_IsReady_FS                       0x080032dd   Thumb Code     4  usbd_storage_if.o(i.STORAGE_IsReady_FS)
    i.STORAGE_IsWriteProtected_FS            0x080032e0   Section        0  usbd_storage_if.o(i.STORAGE_IsWriteProtected_FS)
    STORAGE_IsWriteProtected_FS              0x080032e1   Thumb Code     4  usbd_storage_if.o(i.STORAGE_IsWriteProtected_FS)
    i.STORAGE_Read_FS                        0x080032e4   Section        0  usbd_storage_if.o(i.STORAGE_Read_FS)
    STORAGE_Read_FS                          0x080032e5   Thumb Code    18  usbd_storage_if.o(i.STORAGE_Read_FS)
    i.STORAGE_Write_FS                       0x080032f6   Section        0  usbd_storage_if.o(i.STORAGE_Write_FS)
    STORAGE_Write_FS                         0x080032f7   Thumb Code    18  usbd_storage_if.o(i.STORAGE_Write_FS)
    i.SVC_Handler                            0x08003308   Section        0  stm32g4xx_it.o(i.SVC_Handler)
    i.SWAPBYTE                               0x0800330a   Section        0  usbd_ctlreq.o(i.SWAPBYTE)
    SWAPBYTE                                 0x0800330b   Thumb Code    10  usbd_ctlreq.o(i.SWAPBYTE)
    i.SysTick_Handler                        0x08003314   Section        0  stm32g4xx_it.o(i.SysTick_Handler)
    i.SystemClock_Config                     0x08003318   Section        0  main.o(i.SystemClock_Config)
    i.SystemInit                             0x0800339c   Section        0  system_stm32g4xx.o(i.SystemInit)
    i.USBD_ClrClassConfig                    0x080033ac   Section        0  usbd_core.o(i.USBD_ClrClassConfig)
    i.USBD_CtlContinueRx                     0x080033bc   Section        0  usbd_ioreq.o(i.USBD_CtlContinueRx)
    i.USBD_CtlContinueSendData               0x080033cc   Section        0  usbd_ioreq.o(i.USBD_CtlContinueSendData)
    i.USBD_CtlError                          0x080033dc   Section        0  usbd_ctlreq.o(i.USBD_CtlError)
    i.USBD_CtlReceiveStatus                  0x080033f2   Section        0  usbd_ioreq.o(i.USBD_CtlReceiveStatus)
    i.USBD_CtlSendData                       0x08003408   Section        0  usbd_ioreq.o(i.USBD_CtlSendData)
    i.USBD_CtlSendStatus                     0x08003422   Section        0  usbd_ioreq.o(i.USBD_CtlSendStatus)
    i.USBD_GetDescriptor                     0x08003438   Section        0  usbd_ctlreq.o(i.USBD_GetDescriptor)
    USBD_GetDescriptor                       0x08003439   Thumb Code   250  usbd_ctlreq.o(i.USBD_GetDescriptor)
    i.USBD_GetString                         0x08003532   Section        0  usbd_ctlreq.o(i.USBD_GetString)
    i.USBD_Get_USB_Status                    0x0800357a   Section        0  usbd_conf.o(i.USBD_Get_USB_Status)
    USBD_Get_USB_Status                      0x0800357b   Thumb Code    24  usbd_conf.o(i.USBD_Get_USB_Status)
    i.USBD_Init                              0x08003592   Section        0  usbd_core.o(i.USBD_Init)
    i.USBD_LL_ClearStallEP                   0x080035b8   Section        0  usbd_conf.o(i.USBD_LL_ClearStallEP)
    i.USBD_LL_CloseEP                        0x080035ca   Section        0  usbd_conf.o(i.USBD_LL_CloseEP)
    i.USBD_LL_DataInStage                    0x080035dc   Section        0  usbd_core.o(i.USBD_LL_DataInStage)
    i.USBD_LL_DataOutStage                   0x08003684   Section        0  usbd_core.o(i.USBD_LL_DataOutStage)
    i.USBD_LL_FlushEP                        0x080036f0   Section        0  usbd_conf.o(i.USBD_LL_FlushEP)
    i.USBD_LL_GetRxDataSize                  0x08003702   Section        0  usbd_conf.o(i.USBD_LL_GetRxDataSize)
    i.USBD_LL_Init                           0x0800370c   Section        0  usbd_conf.o(i.USBD_LL_Init)
    i.USBD_LL_IsStallEP                      0x08003780   Section        0  usbd_conf.o(i.USBD_LL_IsStallEP)
    i.USBD_LL_OpenEP                         0x080037a0   Section        0  usbd_conf.o(i.USBD_LL_OpenEP)
    i.USBD_LL_PrepareReceive                 0x080037b8   Section        0  usbd_conf.o(i.USBD_LL_PrepareReceive)
    i.USBD_LL_Reset                          0x080037ca   Section        0  usbd_core.o(i.USBD_LL_Reset)
    i.USBD_LL_Resume                         0x08003824   Section        0  usbd_core.o(i.USBD_LL_Resume)
    i.USBD_LL_SOF                            0x08003838   Section        0  usbd_core.o(i.USBD_LL_SOF)
    i.USBD_LL_SetSpeed                       0x08003858   Section        0  usbd_core.o(i.USBD_LL_SetSpeed)
    i.USBD_LL_SetUSBAddress                  0x0800385e   Section        0  usbd_conf.o(i.USBD_LL_SetUSBAddress)
    i.USBD_LL_SetupStage                     0x08003870   Section        0  usbd_core.o(i.USBD_LL_SetupStage)
    i.USBD_LL_StallEP                        0x080038d0   Section        0  usbd_conf.o(i.USBD_LL_StallEP)
    i.USBD_LL_Start                          0x080038e2   Section        0  usbd_conf.o(i.USBD_LL_Start)
    i.USBD_LL_Suspend                        0x080038f4   Section        0  usbd_core.o(i.USBD_LL_Suspend)
    i.USBD_LL_Transmit                       0x08003906   Section        0  usbd_conf.o(i.USBD_LL_Transmit)
    i.USBD_MSC_ConfigStrDescriptor           0x08003918   Section        0  usbd_desc.o(i.USBD_MSC_ConfigStrDescriptor)
    i.USBD_MSC_DataIn                        0x08003938   Section        0  usbd_msc.o(i.USBD_MSC_DataIn)
    i.USBD_MSC_DataOut                       0x08003942   Section        0  usbd_msc.o(i.USBD_MSC_DataOut)
    i.USBD_MSC_DeInit                        0x0800394c   Section        0  usbd_msc.o(i.USBD_MSC_DeInit)
    i.USBD_MSC_DeviceDescriptor              0x08003984   Section        0  usbd_desc.o(i.USBD_MSC_DeviceDescriptor)
    i.USBD_MSC_GetDeviceQualifierDescriptor  0x08003990   Section        0  usbd_msc.o(i.USBD_MSC_GetDeviceQualifierDescriptor)
    i.USBD_MSC_GetFSCfgDesc                  0x0800399c   Section        0  usbd_msc.o(i.USBD_MSC_GetFSCfgDesc)
    i.USBD_MSC_GetHSCfgDesc                  0x080039a8   Section        0  usbd_msc.o(i.USBD_MSC_GetHSCfgDesc)
    i.USBD_MSC_GetOtherSpeedCfgDesc          0x080039b4   Section        0  usbd_msc.o(i.USBD_MSC_GetOtherSpeedCfgDesc)
    i.USBD_MSC_Init                          0x080039c0   Section        0  usbd_msc.o(i.USBD_MSC_Init)
    i.USBD_MSC_InterfaceStrDescriptor        0x08003a24   Section        0  usbd_desc.o(i.USBD_MSC_InterfaceStrDescriptor)
    i.USBD_MSC_LangIDStrDescriptor           0x08003a48   Section        0  usbd_desc.o(i.USBD_MSC_LangIDStrDescriptor)
    i.USBD_MSC_ManufacturerStrDescriptor     0x08003a54   Section        0  usbd_desc.o(i.USBD_MSC_ManufacturerStrDescriptor)
    i.USBD_MSC_ProductStrDescriptor          0x08003a7c   Section        0  usbd_desc.o(i.USBD_MSC_ProductStrDescriptor)
    i.USBD_MSC_RegisterStorage               0x08003aa4   Section        0  usbd_msc.o(i.USBD_MSC_RegisterStorage)
    i.USBD_MSC_SerialStrDescriptor           0x08003ab4   Section        0  usbd_desc.o(i.USBD_MSC_SerialStrDescriptor)
    i.USBD_MSC_Setup                         0x08003aec   Section        0  usbd_msc.o(i.USBD_MSC_Setup)
    i.USBD_ParseSetupRequest                 0x08003bc0   Section        0  usbd_ctlreq.o(i.USBD_ParseSetupRequest)
    i.USBD_RegisterClass                     0x08003bec   Section        0  usbd_core.o(i.USBD_RegisterClass)
    i.USBD_SetClassConfig                    0x08003c10   Section        0  usbd_core.o(i.USBD_SetClassConfig)
    i.USBD_SetConfig                         0x08003c24   Section        0  usbd_ctlreq.o(i.USBD_SetConfig)
    USBD_SetConfig                           0x08003c25   Thumb Code   182  usbd_ctlreq.o(i.USBD_SetConfig)
    i.USBD_Start                             0x08003ce0   Section        0  usbd_core.o(i.USBD_Start)
    i.USBD_StdDevReq                         0x08003ce4   Section        0  usbd_ctlreq.o(i.USBD_StdDevReq)
    i.USBD_StdEPReq                          0x08003df8   Section        0  usbd_ctlreq.o(i.USBD_StdEPReq)
    i.USBD_StdItfReq                         0x08003f38   Section        0  usbd_ctlreq.o(i.USBD_StdItfReq)
    i.USBD_static_free                       0x08003f8a   Section        0  usbd_conf.o(i.USBD_static_free)
    i.USBD_static_malloc                     0x08003f8c   Section        0  usbd_conf.o(i.USBD_static_malloc)
    i.USB_ActivateEndpoint                   0x08003f94   Section        0  stm32g4xx_ll_usb.o(i.USB_ActivateEndpoint)
    i.USB_DeactivateEndpoint                 0x080041fc   Section        0  stm32g4xx_ll_usb.o(i.USB_DeactivateEndpoint)
    i.USB_DevConnect                         0x0800430a   Section        0  stm32g4xx_ll_usb.o(i.USB_DevConnect)
    i.USB_DevInit                            0x08004318   Section        0  stm32g4xx_ll_usb.o(i.USB_DevInit)
    i.USB_DisableGlobalInt                   0x0800432a   Section        0  stm32g4xx_ll_usb.o(i.USB_DisableGlobalInt)
    i.USB_EPClearStall                       0x0800433a   Section        0  stm32g4xx_ll_usb.o(i.USB_EPClearStall)
    i.USB_EPSetStall                         0x080043b2   Section        0  stm32g4xx_ll_usb.o(i.USB_EPSetStall)
    i.USB_EPStartXfer                        0x080043e4   Section        0  stm32g4xx_ll_usb.o(i.USB_EPStartXfer)
    i.USB_EnableGlobalInt                    0x0800486a   Section        0  stm32g4xx_ll_usb.o(i.USB_EnableGlobalInt)
    i.USB_LP_IRQHandler                      0x0800487c   Section        0  stm32g4xx_it.o(i.USB_LP_IRQHandler)
    i.USB_ReadInterrupts                     0x08004888   Section        0  stm32g4xx_ll_usb.o(i.USB_ReadInterrupts)
    i.USB_ReadPMA                            0x0800488e   Section        0  stm32g4xx_ll_usb.o(i.USB_ReadPMA)
    i.USB_SetDevAddress                      0x080048b6   Section        0  stm32g4xx_ll_usb.o(i.USB_SetDevAddress)
    i.USB_WritePMA                           0x080048c4   Section        0  stm32g4xx_ll_usb.o(i.USB_WritePMA)
    i.UsageFault_Handler                     0x080048ea   Section        0  stm32g4xx_it.o(i.UsageFault_Handler)
    i.__NVIC_SetPriority                     0x080048ec   Section        0  stm32g4xx_hal_cortex.o(i.__NVIC_SetPriority)
    __NVIC_SetPriority                       0x080048ed   Thumb Code    32  stm32g4xx_hal_cortex.o(i.__NVIC_SetPriority)
    i.board_button_getstate                  0x0800490c   Section        0  board.o(i.board_button_getstate)
    i.board_button_init                      0x08004924   Section        0  board.o(i.board_button_init)
    i.board_led_init                         0x08004964   Section        0  board.o(i.board_led_init)
    i.board_led_set                          0x080049b0   Section        0  board.o(i.board_led_set)
    i.board_led_toggle                       0x080049c8   Section        0  board.o(i.board_led_toggle)
    i.flash_init                             0x080049d4   Section        0  flash_access.o(i.flash_init)
    i.flash_read_multi_blocks                0x080049e0   Section        0  flash_access.o(i.flash_read_multi_blocks)
    i.flash_write_multi_blocks               0x08004a08   Section        0  flash_access.o(i.flash_write_multi_blocks)
    i.main                                   0x08004a70   Section        0  main.o(i.main)
    x$fpl$fpinit                             0x08004af4   Section       10  fpinit.o(x$fpl$fpinit)
    $v0                                      0x08004af4   Number         0  fpinit.o(x$fpl$fpinit)
    .constdata                               0x08004afe   Section       36  usbd_storage_if.o(.constdata)
    .constdata                               0x08004b22   Section       16  system_stm32g4xx.o(.constdata)
    .data                                    0x20000000   Section        1  main.o(.data)
    Seconds_o                                0x20000000   Data           1  main.o(.data)
    .data                                    0x20000004   Section       32  usbd_desc.o(.data)
    .data                                    0x20000024   Section       50  usbd_desc.o(.data)
    .data                                    0x20000058   Section       32  usbd_storage_if.o(.data)
    .data                                    0x20000078   Section       12  stm32g4xx_hal.o(.data)
    .data                                    0x20000084   Section       32  stm32g4xx_hal_flash.o(.data)
    .data                                    0x200000a4   Section        4  system_stm32g4xx.o(.data)
    .data                                    0x200000a8   Section        1  usbd_ctlreq.o(.data)
    cfgidx                                   0x200000a8   Data           1  usbd_ctlreq.o(.data)
    .data                                    0x200000ac   Section       56  usbd_msc.o(.data)
    .data                                    0x200000e4   Section      106  usbd_msc.o(.data)
    USBD_MSC_CfgHSDesc                       0x200000e4   Data          32  usbd_msc.o(.data)
    USBD_MSC_CfgFSDesc                       0x20000104   Data          32  usbd_msc.o(.data)
    USBD_MSC_OtherSpeedCfgDesc               0x20000124   Data          32  usbd_msc.o(.data)
    USBD_MSC_DeviceQualifierDesc             0x20000144   Data          10  usbd_msc.o(.data)
    .data                                    0x2000014e   Section        6  usbd_msc_data.o(.data)
    .data                                    0x20000154   Section        8  usbd_msc_data.o(.data)
    .data                                    0x2000015c   Section       23  usbd_msc_data.o(.data)
    .data                                    0x20000173   Section       27  usbd_msc_data.o(.data)
    .bss                                     0x20000190   Section       40  rtc.o(.bss)
    .bss                                     0x200001b8   Section     2924  usbd_conf.o(.bss)
    mem                                      0x200001b8   Data        2168  usbd_conf.o(.bss)
    .bss                                     0x20000d24   Section      720  usb_device.o(.bss)
    .bss                                     0x20000ff4   Section      512  usbd_desc.o(.bss)
    .bss                                     0x200011f4   Section       96  libspace.o(.bss)
    HEAP                                     0x20001258   Section     2048  startup_stm32g431xx.o(HEAP)
    Heap_Mem                                 0x20001258   Data        2048  startup_stm32g431xx.o(HEAP)
    STACK                                    0x20001a58   Section     1024  startup_stm32g431xx.o(STACK)
    Stack_Mem                                0x20001a58   Data        1024  startup_stm32g431xx.o(STACK)
    __initial_sp                             0x20001e58   Data           0  startup_stm32g431xx.o(STACK)

    Global Symbols

    Symbol Name                              Value     Ov Type        Size  Object(Section)

    BuildAttributes$$THM_ISAv4$E$P$D$K$B$S$7EM$VFPi3$EXTD16$VFPS$VFMA$PE$A:L22UL41UL21$X:L11$S22US41US21$IEEE1$IW$USESV6$~STKCKD$USESV7$~SHL$OSPACE$ROPI$EBA8$UX$STANDARDLIB$REQ8$PRES8$EABIv2 0x00000000   Number         0  anon$$obj.o ABSOLUTE
    __ARM_use_no_argv                        0x00000000   Number         0  main.o ABSOLUTE
    __ARM_exceptions_init                     - Undefined Weak Reference
    __alloca_initialize                       - Undefined Weak Reference
    __arm_fini_                               - Undefined Weak Reference
    __arm_preinit_                            - Undefined Weak Reference
    __cpp_initialize__aeabi_                  - Undefined Weak Reference
    __cxa_finalize                            - Undefined Weak Reference
    __rt_locale                               - Undefined Weak Reference
    __sigvec_lookup                           - Undefined Weak Reference
    _atexit_init                              - Undefined Weak Reference
    _call_atexit_fns                          - Undefined Weak Reference
    _clock_init                               - Undefined Weak Reference
    _fp_trap_init                             - Undefined Weak Reference
    _fp_trap_shutdown                         - Undefined Weak Reference
    _get_lc_collate                           - Undefined Weak Reference
    _get_lc_ctype                             - Undefined Weak Reference
    _get_lc_monetary                          - Undefined Weak Reference
    _get_lc_numeric                           - Undefined Weak Reference
    _get_lc_time                              - Undefined Weak Reference
    _getenv_init                              - Undefined Weak Reference
    _handle_redirection                       - Undefined Weak Reference
    _init_alloc                               - Undefined Weak Reference
    _init_user_alloc                          - Undefined Weak Reference
    _initio                                   - Undefined Weak Reference
    _rand_init                                - Undefined Weak Reference
    _signal_finish                            - Undefined Weak Reference
    _signal_init                              - Undefined Weak Reference
    _terminate_alloc                          - Undefined Weak Reference
    _terminate_user_alloc                     - Undefined Weak Reference
    _terminateio                              - Undefined Weak Reference
    __Vectors_Size                           0x000001d8   Number         0  startup_stm32g431xx.o ABSOLUTE
    __Vectors                                0x08000000   Data           4  startup_stm32g431xx.o(RESET)
    __Vectors_End                            0x080001d8   Data           0  startup_stm32g431xx.o(RESET)
    __main                                   0x080001d9   Thumb Code     8  __main.o(!!!main)
    __scatterload                            0x080001e1   Thumb Code     0  __scatter.o(!!!scatter)
    __scatterload_rt2                        0x080001e1   Thumb Code    44  __scatter.o(!!!scatter)
    __scatterload_rt2_thumb_only             0x080001e1   Thumb Code     0  __scatter.o(!!!scatter)
    __scatterload_null                       0x080001ef   Thumb Code     0  __scatter.o(!!!scatter)
    __decompress                             0x08000215   Thumb Code    90  __dczerorl2.o(!!dczerorl2)
    __decompress1                            0x08000215   Thumb Code     0  __dczerorl2.o(!!dczerorl2)
    __scatterload_zeroinit                   0x08000271   Thumb Code    28  __scatter_zi.o(!!handler_zi)
    __rt_lib_init                            0x0800028d   Thumb Code     0  libinit.o(.ARM.Collect$$libinit$$00000000)
    __rt_lib_init_fp_1                       0x0800028f   Thumb Code     0  libinit2.o(.ARM.Collect$$libinit$$00000001)
    __rt_lib_init_alloca_1                   0x08000293   Thumb Code     0  libinit2.o(.ARM.Collect$$libinit$$0000002E)
    __rt_lib_init_argv_1                     0x08000293   Thumb Code     0  libinit2.o(.ARM.Collect$$libinit$$0000002C)
    __rt_lib_init_atexit_1                   0x08000293   Thumb Code     0  libinit2.o(.ARM.Collect$$libinit$$0000001B)
    __rt_lib_init_clock_1                    0x08000293   Thumb Code     0  libinit2.o(.ARM.Collect$$libinit$$00000021)
    __rt_lib_init_cpp_1                      0x08000293   Thumb Code     0  libinit2.o(.ARM.Collect$$libinit$$00000032)
    __rt_lib_init_exceptions_1               0x08000293   Thumb Code     0  libinit2.o(.ARM.Collect$$libinit$$00000030)
    __rt_lib_init_fp_trap_1                  0x08000293   Thumb Code     0  libinit2.o(.ARM.Collect$$libinit$$0000001F)
    __rt_lib_init_getenv_1                   0x08000293   Thumb Code     0  libinit2.o(.ARM.Collect$$libinit$$00000023)
    __rt_lib_init_heap_1                     0x08000293   Thumb Code     0  libinit2.o(.ARM.Collect$$libinit$$0000000A)
    __rt_lib_init_lc_collate_1               0x08000293   Thumb Code     0  libinit2.o(.ARM.Collect$$libinit$$00000011)
    __rt_lib_init_lc_ctype_1                 0x08000293   Thumb Code     0  libinit2.o(.ARM.Collect$$libinit$$00000013)
    __rt_lib_init_lc_monetary_1              0x08000293   Thumb Code     0  libinit2.o(.ARM.Collect$$libinit$$00000015)
    __rt_lib_init_lc_numeric_1               0x08000293   Thumb Code     0  libinit2.o(.ARM.Collect$$libinit$$00000017)
    __rt_lib_init_lc_time_1                  0x08000293   Thumb Code     0  libinit2.o(.ARM.Collect$$libinit$$00000019)
    __rt_lib_init_preinit_1                  0x08000293   Thumb Code     0  libinit2.o(.ARM.Collect$$libinit$$00000004)
    __rt_lib_init_rand_1                     0x08000293   Thumb Code     0  libinit2.o(.ARM.Collect$$libinit$$0000000E)
    __rt_lib_init_return                     0x08000293   Thumb Code     0  libinit2.o(.ARM.Collect$$libinit$$00000033)
    __rt_lib_init_signal_1                   0x08000293   Thumb Code     0  libinit2.o(.ARM.Collect$$libinit$$0000001D)
    __rt_lib_init_stdio_1                    0x08000293   Thumb Code     0  libinit2.o(.ARM.Collect$$libinit$$00000025)
    __rt_lib_init_user_alloc_1               0x08000293   Thumb Code     0  libinit2.o(.ARM.Collect$$libinit$$0000000C)
    __rt_lib_shutdown                        0x08000295   Thumb Code     0  libshutdown.o(.ARM.Collect$$libshutdown$$00000000)
    __rt_lib_shutdown_cpp_1                  0x08000297   Thumb Code     0  libshutdown2.o(.ARM.Collect$$libshutdown$$00000004)
    __rt_lib_shutdown_fini_1                 0x08000297   Thumb Code     0  libshutdown2.o(.ARM.Collect$$libshutdown$$00000002)
    __rt_lib_shutdown_fp_trap_1              0x08000297   Thumb Code     0  libshutdown2.o(.ARM.Collect$$libshutdown$$00000009)
    __rt_lib_shutdown_heap_1                 0x08000297   Thumb Code     0  libshutdown2.o(.ARM.Collect$$libshutdown$$00000011)
    __rt_lib_shutdown_return                 0x08000297   Thumb Code     0  libshutdown2.o(.ARM.Collect$$libshutdown$$00000012)
    __rt_lib_shutdown_signal_1               0x08000297   Thumb Code     0  libshutdown2.o(.ARM.Collect$$libshutdown$$0000000C)
    __rt_lib_shutdown_stdio_1                0x08000297   Thumb Code     0  libshutdown2.o(.ARM.Collect$$libshutdown$$00000006)
    __rt_lib_shutdown_user_alloc_1           0x08000297   Thumb Code     0  libshutdown2.o(.ARM.Collect$$libshutdown$$0000000E)
    __rt_entry                               0x08000299   Thumb Code     0  __rtentry.o(.ARM.Collect$$rtentry$$00000000)
    __rt_entry_presh_1                       0x08000299   Thumb Code     0  __rtentry2.o(.ARM.Collect$$rtentry$$00000002)
    __rt_entry_sh                            0x08000299   Thumb Code     0  __rtentry4.o(.ARM.Collect$$rtentry$$00000004)
    __rt_entry_li                            0x0800029f   Thumb Code     0  __rtentry2.o(.ARM.Collect$$rtentry$$0000000A)
    __rt_entry_postsh_1                      0x0800029f   Thumb Code     0  __rtentry2.o(.ARM.Collect$$rtentry$$00000009)
    __rt_entry_main                          0x080002a3   Thumb Code     0  __rtentry2.o(.ARM.Collect$$rtentry$$0000000D)
    __rt_entry_postli_1                      0x080002a3   Thumb Code     0  __rtentry2.o(.ARM.Collect$$rtentry$$0000000C)
    __rt_exit                                0x080002ab   Thumb Code     0  rtexit.o(.ARM.Collect$$rtexit$$00000000)
    __rt_exit_ls                             0x080002ad   Thumb Code     0  rtexit2.o(.ARM.Collect$$rtexit$$00000003)
    __rt_exit_prels_1                        0x080002ad   Thumb Code     0  rtexit2.o(.ARM.Collect$$rtexit$$00000002)
    __rt_exit_exit                           0x080002b1   Thumb Code     0  rtexit2.o(.ARM.Collect$$rtexit$$00000004)
    Reset_Handler                            0x080002b9   Thumb Code     8  startup_stm32g431xx.o(.text)
    ADC1_2_IRQHandler                        0x080002d3   Thumb Code     0  startup_stm32g431xx.o(.text)
    COMP1_2_3_IRQHandler                     0x080002d3   Thumb Code     0  startup_stm32g431xx.o(.text)
    COMP4_IRQHandler                         0x080002d3   Thumb Code     0  startup_stm32g431xx.o(.text)
    CORDIC_IRQHandler                        0x080002d3   Thumb Code     0  startup_stm32g431xx.o(.text)
    CRS_IRQHandler                           0x080002d3   Thumb Code     0  startup_stm32g431xx.o(.text)
    DMA1_Channel1_IRQHandler                 0x080002d3   Thumb Code     0  startup_stm32g431xx.o(.text)
    DMA1_Channel2_IRQHandler                 0x080002d3   Thumb Code     0  startup_stm32g431xx.o(.text)
    DMA1_Channel3_IRQHandler                 0x080002d3   Thumb Code     0  startup_stm32g431xx.o(.text)
    DMA1_Channel4_IRQHandler                 0x080002d3   Thumb Code     0  startup_stm32g431xx.o(.text)
    DMA1_Channel5_IRQHandler                 0x080002d3   Thumb Code     0  startup_stm32g431xx.o(.text)
    DMA1_Channel6_IRQHandler                 0x080002d3   Thumb Code     0  startup_stm32g431xx.o(.text)
    DMA2_Channel1_IRQHandler                 0x080002d3   Thumb Code     0  startup_stm32g431xx.o(.text)
    DMA2_Channel2_IRQHandler                 0x080002d3   Thumb Code     0  startup_stm32g431xx.o(.text)
    DMA2_Channel3_IRQHandler                 0x080002d3   Thumb Code     0  startup_stm32g431xx.o(.text)
    DMA2_Channel4_IRQHandler                 0x080002d3   Thumb Code     0  startup_stm32g431xx.o(.text)
    DMA2_Channel5_IRQHandler                 0x080002d3   Thumb Code     0  startup_stm32g431xx.o(.text)
    DMA2_Channel6_IRQHandler                 0x080002d3   Thumb Code     0  startup_stm32g431xx.o(.text)
    DMAMUX_OVR_IRQHandler                    0x080002d3   Thumb Code     0  startup_stm32g431xx.o(.text)
    EXTI0_IRQHandler                         0x080002d3   Thumb Code     0  startup_stm32g431xx.o(.text)
    EXTI15_10_IRQHandler                     0x080002d3   Thumb Code     0  startup_stm32g431xx.o(.text)
    EXTI1_IRQHandler                         0x080002d3   Thumb Code     0  startup_stm32g431xx.o(.text)
    EXTI2_IRQHandler                         0x080002d3   Thumb Code     0  startup_stm32g431xx.o(.text)
    EXTI3_IRQHandler                         0x080002d3   Thumb Code     0  startup_stm32g431xx.o(.text)
    EXTI4_IRQHandler                         0x080002d3   Thumb Code     0  startup_stm32g431xx.o(.text)
    EXTI9_5_IRQHandler                       0x080002d3   Thumb Code     0  startup_stm32g431xx.o(.text)
    FDCAN1_IT0_IRQHandler                    0x080002d3   Thumb Code     0  startup_stm32g431xx.o(.text)
    FDCAN1_IT1_IRQHandler                    0x080002d3   Thumb Code     0  startup_stm32g431xx.o(.text)
    FLASH_IRQHandler                         0x080002d3   Thumb Code     0  startup_stm32g431xx.o(.text)
    FMAC_IRQHandler                          0x080002d3   Thumb Code     0  startup_stm32g431xx.o(.text)
    FPU_IRQHandler                           0x080002d3   Thumb Code     0  startup_stm32g431xx.o(.text)
    I2C1_ER_IRQHandler                       0x080002d3   Thumb Code     0  startup_stm32g431xx.o(.text)
    I2C1_EV_IRQHandler                       0x080002d3   Thumb Code     0  startup_stm32g431xx.o(.text)
    I2C2_ER_IRQHandler                       0x080002d3   Thumb Code     0  startup_stm32g431xx.o(.text)
    I2C2_EV_IRQHandler                       0x080002d3   Thumb Code     0  startup_stm32g431xx.o(.text)
    I2C3_ER_IRQHandler                       0x080002d3   Thumb Code     0  startup_stm32g431xx.o(.text)
    I2C3_EV_IRQHandler                       0x080002d3   Thumb Code     0  startup_stm32g431xx.o(.text)
    LPTIM1_IRQHandler                        0x080002d3   Thumb Code     0  startup_stm32g431xx.o(.text)
    LPUART1_IRQHandler                       0x080002d3   Thumb Code     0  startup_stm32g431xx.o(.text)
    PVD_PVM_IRQHandler                       0x080002d3   Thumb Code     0  startup_stm32g431xx.o(.text)
    RCC_IRQHandler                           0x080002d3   Thumb Code     0  startup_stm32g431xx.o(.text)
    RNG_IRQHandler                           0x080002d3   Thumb Code     0  startup_stm32g431xx.o(.text)
    RTC_Alarm_IRQHandler                     0x080002d3   Thumb Code     0  startup_stm32g431xx.o(.text)
    RTC_TAMP_LSECSS_IRQHandler               0x080002d3   Thumb Code     0  startup_stm32g431xx.o(.text)
    RTC_WKUP_IRQHandler                      0x080002d3   Thumb Code     0  startup_stm32g431xx.o(.text)
    SAI1_IRQHandler                          0x080002d3   Thumb Code     0  startup_stm32g431xx.o(.text)
    SPI1_IRQHandler                          0x080002d3   Thumb Code     0  startup_stm32g431xx.o(.text)
    SPI2_IRQHandler                          0x080002d3   Thumb Code     0  startup_stm32g431xx.o(.text)
    SPI3_IRQHandler                          0x080002d3   Thumb Code     0  startup_stm32g431xx.o(.text)
    TIM1_BRK_TIM15_IRQHandler                0x080002d3   Thumb Code     0  startup_stm32g431xx.o(.text)
    TIM1_CC_IRQHandler                       0x080002d3   Thumb Code     0  startup_stm32g431xx.o(.text)
    TIM1_TRG_COM_TIM17_IRQHandler            0x080002d3   Thumb Code     0  startup_stm32g431xx.o(.text)
    TIM1_UP_TIM16_IRQHandler                 0x080002d3   Thumb Code     0  startup_stm32g431xx.o(.text)
    TIM2_IRQHandler                          0x080002d3   Thumb Code     0  startup_stm32g431xx.o(.text)
    TIM3_IRQHandler                          0x080002d3   Thumb Code     0  startup_stm32g431xx.o(.text)
    TIM4_IRQHandler                          0x080002d3   Thumb Code     0  startup_stm32g431xx.o(.text)
    TIM6_DAC_IRQHandler                      0x080002d3   Thumb Code     0  startup_stm32g431xx.o(.text)
    TIM7_IRQHandler                          0x080002d3   Thumb Code     0  startup_stm32g431xx.o(.text)
    TIM8_BRK_IRQHandler                      0x080002d3   Thumb Code     0  startup_stm32g431xx.o(.text)
    TIM8_CC_IRQHandler                       0x080002d3   Thumb Code     0  startup_stm32g431xx.o(.text)
    TIM8_TRG_COM_IRQHandler                  0x080002d3   Thumb Code     0  startup_stm32g431xx.o(.text)
    TIM8_UP_IRQHandler                       0x080002d3   Thumb Code     0  startup_stm32g431xx.o(.text)
    UART4_IRQHandler                         0x080002d3   Thumb Code     0  startup_stm32g431xx.o(.text)
    UCPD1_IRQHandler                         0x080002d3   Thumb Code     0  startup_stm32g431xx.o(.text)
    USART1_IRQHandler                        0x080002d3   Thumb Code     0  startup_stm32g431xx.o(.text)
    USART2_IRQHandler                        0x080002d3   Thumb Code     0  startup_stm32g431xx.o(.text)
    USART3_IRQHandler                        0x080002d3   Thumb Code     0  startup_stm32g431xx.o(.text)
    USBWakeUp_IRQHandler                     0x080002d3   Thumb Code     0  startup_stm32g431xx.o(.text)
    USB_HP_IRQHandler                        0x080002d3   Thumb Code     0  startup_stm32g431xx.o(.text)
    WWDG_IRQHandler                          0x080002d3   Thumb Code     0  startup_stm32g431xx.o(.text)
    __user_initial_stackheap                 0x080002d5   Thumb Code     0  startup_stm32g431xx.o(.text)
    __aeabi_memcpy4                          0x080002f9   Thumb Code     0  rt_memcpy_w.o(.text)
    __aeabi_memcpy8                          0x080002f9   Thumb Code     0  rt_memcpy_w.o(.text)
    __rt_memcpy_w                            0x080002f9   Thumb Code   100  rt_memcpy_w.o(.text)
    _memcpy_lastbytes_aligned                0x08000341   Thumb Code     0  rt_memcpy_w.o(.text)
    __aeabi_memclr4                          0x0800035d   Thumb Code     0  rt_memclr_w.o(.text)
    __aeabi_memclr8                          0x0800035d   Thumb Code     0  rt_memclr_w.o(.text)
    __rt_memclr_w                            0x0800035d   Thumb Code    78  rt_memclr_w.o(.text)
    _memset_w                                0x08000361   Thumb Code     0  rt_memclr_w.o(.text)
    __use_two_region_memory                  0x080003ab   Thumb Code     2  heapauxi.o(.text)
    __rt_heap_escrow$2region                 0x080003ad   Thumb Code     2  heapauxi.o(.text)
    __rt_heap_expand$2region                 0x080003af   Thumb Code     2  heapauxi.o(.text)
    __user_setup_stackheap                   0x080003b1   Thumb Code    74  sys_stackheap_outer.o(.text)
    exit                                     0x080003fb   Thumb Code    18  exit.o(.text)
    __user_libspace                          0x0800040d   Thumb Code     8  libspace.o(.text)
    __user_perproc_libspace                  0x0800040d   Thumb Code     0  libspace.o(.text)
    __user_perthread_libspace                0x0800040d   Thumb Code     0  libspace.o(.text)
    _sys_exit                                0x08000415   Thumb Code     8  sys_exit.o(.text)
    __I$use$semihosting                      0x08000421   Thumb Code     0  use_no_semi.o(.text)
    __use_no_semihosting_swi                 0x08000421   Thumb Code     2  use_no_semi.o(.text)
    BusFault_Handler                         0x08000423   Thumb Code     2  stm32g4xx_it.o(i.BusFault_Handler)
    __semihosting_library_function           0x08000423   Thumb Code     0  indicate_semi.o(.text)
    DebugMon_Handler                         0x08000425   Thumb Code     2  stm32g4xx_it.o(i.DebugMon_Handler)
    Error_Handler                            0x08000427   Thumb Code     4  main.o(i.Error_Handler)
    FLASH_FlushCaches                        0x0800042d   Thumb Code    84  stm32g4xx_hal_flash_ex.o(i.FLASH_FlushCaches)
    FLASH_PageErase                          0x080004a5   Thumb Code    34  stm32g4xx_hal_flash_ex.o(i.FLASH_PageErase)
    FLASH_WaitForLastOperation               0x08000515   Thumb Code    86  stm32g4xx_hal_flash.o(i.FLASH_WaitForLastOperation)
    HAL_FLASHEx_Erase                        0x08000575   Thumb Code   202  stm32g4xx_hal_flash_ex.o(i.HAL_FLASHEx_Erase)
    HAL_FLASH_Program                        0x08000649   Thumb Code   116  stm32g4xx_hal_flash.o(i.HAL_FLASH_Program)
    HAL_FLASH_Unlock                         0x080006c5   Thumb Code    28  stm32g4xx_hal_flash.o(i.HAL_FLASH_Unlock)
    HAL_GPIO_Init                            0x080006ed   Thumb Code   550  stm32g4xx_hal_gpio.o(i.HAL_GPIO_Init)
    HAL_GPIO_ReadPin                         0x08000935   Thumb Code    10  stm32g4xx_hal_gpio.o(i.HAL_GPIO_ReadPin)
    HAL_GPIO_TogglePin                       0x0800093f   Thumb Code    16  stm32g4xx_hal_gpio.o(i.HAL_GPIO_TogglePin)
    HAL_GPIO_WritePin                        0x0800094f   Thumb Code    10  stm32g4xx_hal_gpio.o(i.HAL_GPIO_WritePin)
    HAL_GetTick                              0x08000959   Thumb Code     6  stm32g4xx_hal.o(i.HAL_GetTick)
    HAL_IncTick                              0x08000965   Thumb Code    12  stm32g4xx_hal.o(i.HAL_IncTick)
    HAL_Init                                 0x08000975   Thumb Code    30  stm32g4xx_hal.o(i.HAL_Init)
    HAL_InitTick                             0x08000995   Thumb Code    58  stm32g4xx_hal.o(i.HAL_InitTick)
    HAL_MspInit                              0x080009d9   Thumb Code    42  stm32g4xx_hal_msp.o(i.HAL_MspInit)
    HAL_NVIC_EnableIRQ                       0x08000a09   Thumb Code    26  stm32g4xx_hal_cortex.o(i.HAL_NVIC_EnableIRQ)
    HAL_NVIC_SetPriority                     0x08000a25   Thumb Code    60  stm32g4xx_hal_cortex.o(i.HAL_NVIC_SetPriority)
    HAL_NVIC_SetPriorityGrouping             0x08000a65   Thumb Code    26  stm32g4xx_hal_cortex.o(i.HAL_NVIC_SetPriorityGrouping)
    HAL_PCDEx_ActivateLPM                    0x08000a89   Thumb Code    36  stm32g4xx_hal_pcd_ex.o(i.HAL_PCDEx_ActivateLPM)
    HAL_PCDEx_LPM_Callback                   0x08000aad   Thumb Code    64  usbd_conf.o(i.HAL_PCDEx_LPM_Callback)
    HAL_PCDEx_PMAConfig                      0x08000af1   Thumb Code    60  stm32g4xx_hal_pcd_ex.o(i.HAL_PCDEx_PMAConfig)
    HAL_PCD_DataInStageCallback              0x08000b2d   Thumb Code    18  usbd_conf.o(i.HAL_PCD_DataInStageCallback)
    HAL_PCD_DataOutStageCallback             0x08000b3f   Thumb Code    20  usbd_conf.o(i.HAL_PCD_DataOutStageCallback)
    HAL_PCD_EP_Close                         0x08000b53   Thumb Code    76  stm32g4xx_hal_pcd.o(i.HAL_PCD_EP_Close)
    HAL_PCD_EP_ClrStall                      0x08000b9f   Thumb Code    92  stm32g4xx_hal_pcd.o(i.HAL_PCD_EP_ClrStall)
    HAL_PCD_EP_Flush                         0x08001007   Thumb Code     4  stm32g4xx_hal_pcd.o(i.HAL_PCD_EP_Flush)
    HAL_PCD_EP_GetRxCount                    0x0800100b   Thumb Code    18  stm32g4xx_hal_pcd.o(i.HAL_PCD_EP_GetRxCount)
    HAL_PCD_EP_Open                          0x0800101d   Thumb Code    96  stm32g4xx_hal_pcd.o(i.HAL_PCD_EP_Open)
    HAL_PCD_EP_Receive                       0x0800107d   Thumb Code    50  stm32g4xx_hal_pcd.o(i.HAL_PCD_EP_Receive)
    HAL_PCD_EP_SetStall                      0x080010af   Thumb Code    96  stm32g4xx_hal_pcd.o(i.HAL_PCD_EP_SetStall)
    HAL_PCD_EP_Transmit                      0x0800110f   Thumb Code    52  stm32g4xx_hal_pcd.o(i.HAL_PCD_EP_Transmit)
    HAL_PCD_IRQHandler                       0x08001143   Thumb Code   330  stm32g4xx_hal_pcd.o(i.HAL_PCD_IRQHandler)
    HAL_PCD_Init                             0x0800128d   Thumb Code   178  stm32g4xx_hal_pcd.o(i.HAL_PCD_Init)
    HAL_PCD_MspInit                          0x08001341   Thumb Code    80  usbd_conf.o(i.HAL_PCD_MspInit)
    HAL_PCD_ResetCallback                    0x08001399   Thumb Code    38  usbd_conf.o(i.HAL_PCD_ResetCallback)
    HAL_PCD_ResumeCallback                   0x080013c1   Thumb Code    34  usbd_conf.o(i.HAL_PCD_ResumeCallback)
    HAL_PCD_SOFCallback                      0x080013e9   Thumb Code     8  usbd_conf.o(i.HAL_PCD_SOFCallback)
    HAL_PCD_SetAddress                       0x080013f1   Thumb Code    40  stm32g4xx_hal_pcd.o(i.HAL_PCD_SetAddress)
    HAL_PCD_SetupStageCallback               0x08001419   Thumb Code    14  usbd_conf.o(i.HAL_PCD_SetupStageCallback)
    HAL_PCD_Start                            0x08001427   Thumb Code    42  stm32g4xx_hal_pcd.o(i.HAL_PCD_Start)
    HAL_PCD_SuspendCallback                  0x08001451   Thumb Code    30  usbd_conf.o(i.HAL_PCD_SuspendCallback)
    HAL_PWREx_ControlVoltageScaling          0x08001475   Thumb Code   174  stm32g4xx_hal_pwr_ex.o(i.HAL_PWREx_ControlVoltageScaling)
    HAL_PWREx_DisableUCPDDeadBattery         0x08001531   Thumb Code    12  stm32g4xx_hal_pwr_ex.o(i.HAL_PWREx_DisableUCPDDeadBattery)
    HAL_PWR_EnableBkUpAccess                 0x08001541   Thumb Code    12  stm32g4xx_hal_pwr.o(i.HAL_PWR_EnableBkUpAccess)
    HAL_RCCEx_PeriphCLKConfig                0x08001551   Thumb Code   638  stm32g4xx_hal_rcc_ex.o(i.HAL_RCCEx_PeriphCLKConfig)
    HAL_RCC_ClockConfig                      0x080017d9   Thumb Code   444  stm32g4xx_hal_rcc.o(i.HAL_RCC_ClockConfig)
    HAL_RCC_GetSysClockFreq                  0x080019b5   Thumb Code    98  stm32g4xx_hal_rcc.o(i.HAL_RCC_GetSysClockFreq)
    HAL_RCC_OscConfig                        0x08001a21   Thumb Code  1036  stm32g4xx_hal_rcc.o(i.HAL_RCC_OscConfig)
    HAL_RTC_GetDate                          0x08001e2d   Thumb Code    62  stm32g4xx_hal_rtc.o(i.HAL_RTC_GetDate)
    HAL_RTC_GetTime                          0x08001e71   Thumb Code    78  stm32g4xx_hal_rtc.o(i.HAL_RTC_GetTime)
    HAL_RTC_Init                             0x08001ec5   Thumb Code   142  stm32g4xx_hal_rtc.o(i.HAL_RTC_Init)
    HAL_RTC_MspInit                          0x08001f59   Thumb Code    78  rtc.o(i.HAL_RTC_MspInit)
    HAL_RTC_SetDate                          0x08001fb1   Thumb Code   156  stm32g4xx_hal_rtc.o(i.HAL_RTC_SetDate)
    HAL_RTC_SetTime                          0x08002051   Thumb Code   198  stm32g4xx_hal_rtc.o(i.HAL_RTC_SetTime)
    HAL_RTC_WaitForSynchro                   0x0800211d   Thumb Code    54  stm32g4xx_hal_rtc.o(i.HAL_RTC_WaitForSynchro)
    HAL_SYSTICK_Config                       0x08002153   Thumb Code    40  stm32g4xx_hal_cortex.o(i.HAL_SYSTICK_Config)
    HardFault_Handler                        0x0800217b   Thumb Code     2  stm32g4xx_it.o(i.HardFault_Handler)
    MSC_BOT_CplClrFeature                    0x080022d1   Thumb Code    60  usbd_msc_bot.o(i.MSC_BOT_CplClrFeature)
    MSC_BOT_DataIn                           0x0800230d   Thumb Code    62  usbd_msc_bot.o(i.MSC_BOT_DataIn)
    MSC_BOT_DataOut                          0x0800234b   Thumb Code    62  usbd_msc_bot.o(i.MSC_BOT_DataOut)
    MSC_BOT_DeInit                           0x08002389   Thumb Code    14  usbd_msc_bot.o(i.MSC_BOT_DeInit)
    MSC_BOT_Init                             0x08002397   Thumb Code    76  usbd_msc_bot.o(i.MSC_BOT_Init)
    MSC_BOT_Reset                            0x080023e3   Thumb Code    56  usbd_msc_bot.o(i.MSC_BOT_Reset)
    MSC_BOT_SendCSW                          0x0800241d   Thumb Code    60  usbd_msc_bot.o(i.MSC_BOT_SendCSW)
    MX_GPIO_Init                             0x0800245d   Thumb Code    54  gpio.o(i.MX_GPIO_Init)
    MX_RTC_Init                              0x08002499   Thumb Code   130  rtc.o(i.MX_RTC_Init)
    MX_USB_Device_Init                       0x08002525   Thumb Code    66  usb_device.o(i.MX_USB_Device_Init)
    MemManage_Handler                        0x08002579   Thumb Code     2  stm32g4xx_it.o(i.MemManage_Handler)
    NMI_Handler                              0x0800257b   Thumb Code     2  stm32g4xx_it.o(i.NMI_Handler)
    PendSV_Handler                           0x080028f7   Thumb Code     2  stm32g4xx_it.o(i.PendSV_Handler)
    RTC_Bcd2ToByte                           0x080028f9   Thumb Code    18  stm32g4xx_hal_rtc.o(i.RTC_Bcd2ToByte)
    RTC_ByteToBcd2                           0x0800290b   Thumb Code    24  stm32g4xx_hal_rtc.o(i.RTC_ByteToBcd2)
    RTC_EnterInitMode                        0x08002925   Thumb Code    74  stm32g4xx_hal_rtc.o(i.RTC_EnterInitMode)
    RTC_ExitInitMode                         0x0800296f   Thumb Code    80  stm32g4xx_hal_rtc.o(i.RTC_ExitInitMode)
    SCSI_ProcessCmd                          0x08002a59   Thumb Code   334  usbd_msc_scsi.o(i.SCSI_ProcessCmd)
    SCSI_SenseCode                           0x08003061   Thumb Code    68  usbd_msc_scsi.o(i.SCSI_SenseCode)
    SVC_Handler                              0x08003309   Thumb Code     2  stm32g4xx_it.o(i.SVC_Handler)
    SysTick_Handler                          0x08003315   Thumb Code     4  stm32g4xx_it.o(i.SysTick_Handler)
    SystemClock_Config                       0x08003319   Thumb Code   126  main.o(i.SystemClock_Config)
    SystemInit                               0x0800339d   Thumb Code    12  system_stm32g4xx.o(i.SystemInit)
    USBD_ClrClassConfig                      0x080033ad   Thumb Code    16  usbd_core.o(i.USBD_ClrClassConfig)
    USBD_CtlContinueRx                       0x080033bd   Thumb Code    16  usbd_ioreq.o(i.USBD_CtlContinueRx)
    USBD_CtlContinueSendData                 0x080033cd   Thumb Code    16  usbd_ioreq.o(i.USBD_CtlContinueSendData)
    USBD_CtlError                            0x080033dd   Thumb Code    22  usbd_ctlreq.o(i.USBD_CtlError)
    USBD_CtlReceiveStatus                    0x080033f3   Thumb Code    22  usbd_ioreq.o(i.USBD_CtlReceiveStatus)
    USBD_CtlSendData                         0x08003409   Thumb Code    26  usbd_ioreq.o(i.USBD_CtlSendData)
    USBD_CtlSendStatus                       0x08003423   Thumb Code    22  usbd_ioreq.o(i.USBD_CtlSendStatus)
    USBD_GetString                           0x08003533   Thumb Code    72  usbd_ctlreq.o(i.USBD_GetString)
    USBD_Init                                0x08003593   Thumb Code    38  usbd_core.o(i.USBD_Init)
    USBD_LL_ClearStallEP                     0x080035b9   Thumb Code    18  usbd_conf.o(i.USBD_LL_ClearStallEP)
    USBD_LL_CloseEP                          0x080035cb   Thumb Code    18  usbd_conf.o(i.USBD_LL_CloseEP)
    USBD_LL_DataInStage                      0x080035dd   Thumb Code   168  usbd_core.o(i.USBD_LL_DataInStage)
    USBD_LL_DataOutStage                     0x08003685   Thumb Code   108  usbd_core.o(i.USBD_LL_DataOutStage)
    USBD_LL_FlushEP                          0x080036f1   Thumb Code    18  usbd_conf.o(i.USBD_LL_FlushEP)
    USBD_LL_GetRxDataSize                    0x08003703   Thumb Code     8  usbd_conf.o(i.USBD_LL_GetRxDataSize)
    USBD_LL_Init                             0x0800370d   Thumb Code   108  usbd_conf.o(i.USBD_LL_Init)
    USBD_LL_IsStallEP                        0x08003781   Thumb Code    32  usbd_conf.o(i.USBD_LL_IsStallEP)
    USBD_LL_OpenEP                           0x080037a1   Thumb Code    24  usbd_conf.o(i.USBD_LL_OpenEP)
    USBD_LL_PrepareReceive                   0x080037b9   Thumb Code    18  usbd_conf.o(i.USBD_LL_PrepareReceive)
    USBD_LL_Reset                            0x080037cb   Thumb Code    90  usbd_core.o(i.USBD_LL_Reset)
    USBD_LL_Resume                           0x08003825   Thumb Code    20  usbd_core.o(i.USBD_LL_Resume)
    USBD_LL_SOF                              0x08003839   Thumb Code    32  usbd_core.o(i.USBD_LL_SOF)
    USBD_LL_SetSpeed                         0x08003859   Thumb Code     6  usbd_core.o(i.USBD_LL_SetSpeed)
    USBD_LL_SetUSBAddress                    0x0800385f   Thumb Code    18  usbd_conf.o(i.USBD_LL_SetUSBAddress)
    USBD_LL_SetupStage                       0x08003871   Thumb Code    96  usbd_core.o(i.USBD_LL_SetupStage)
    USBD_LL_StallEP                          0x080038d1   Thumb Code    18  usbd_conf.o(i.USBD_LL_StallEP)
    USBD_LL_Start                            0x080038e3   Thumb Code    18  usbd_conf.o(i.USBD_LL_Start)
    USBD_LL_Suspend                          0x080038f5   Thumb Code    18  usbd_core.o(i.USBD_LL_Suspend)
    USBD_LL_Transmit                         0x08003907   Thumb Code    18  usbd_conf.o(i.USBD_LL_Transmit)
    USBD_MSC_ConfigStrDescriptor             0x08003919   Thumb Code    16  usbd_desc.o(i.USBD_MSC_ConfigStrDescriptor)
    USBD_MSC_DataIn                          0x08003939   Thumb Code    10  usbd_msc.o(i.USBD_MSC_DataIn)
    USBD_MSC_DataOut                         0x08003943   Thumb Code    10  usbd_msc.o(i.USBD_MSC_DataOut)
    USBD_MSC_DeInit                          0x0800394d   Thumb Code    54  usbd_msc.o(i.USBD_MSC_DeInit)
    USBD_MSC_DeviceDescriptor                0x08003985   Thumb Code     8  usbd_desc.o(i.USBD_MSC_DeviceDescriptor)
    USBD_MSC_GetDeviceQualifierDescriptor    0x08003991   Thumb Code     8  usbd_msc.o(i.USBD_MSC_GetDeviceQualifierDescriptor)
    USBD_MSC_GetFSCfgDesc                    0x0800399d   Thumb Code     8  usbd_msc.o(i.USBD_MSC_GetFSCfgDesc)
    USBD_MSC_GetHSCfgDesc                    0x080039a9   Thumb Code     8  usbd_msc.o(i.USBD_MSC_GetHSCfgDesc)
    USBD_MSC_GetOtherSpeedCfgDesc            0x080039b5   Thumb Code     8  usbd_msc.o(i.USBD_MSC_GetOtherSpeedCfgDesc)
    USBD_MSC_Init                            0x080039c1   Thumb Code    98  usbd_msc.o(i.USBD_MSC_Init)
    USBD_MSC_InterfaceStrDescriptor          0x08003a25   Thumb Code    16  usbd_desc.o(i.USBD_MSC_InterfaceStrDescriptor)
    USBD_MSC_LangIDStrDescriptor             0x08003a49   Thumb Code     8  usbd_desc.o(i.USBD_MSC_LangIDStrDescriptor)
    USBD_MSC_ManufacturerStrDescriptor       0x08003a55   Thumb Code    16  usbd_desc.o(i.USBD_MSC_ManufacturerStrDescriptor)
    USBD_MSC_ProductStrDescriptor            0x08003a7d   Thumb Code    16  usbd_desc.o(i.USBD_MSC_ProductStrDescriptor)
    USBD_MSC_RegisterStorage                 0x08003aa5   Thumb Code    14  usbd_msc.o(i.USBD_MSC_RegisterStorage)
    USBD_MSC_SerialStrDescriptor             0x08003ab5   Thumb Code    48  usbd_desc.o(i.USBD_MSC_SerialStrDescriptor)
    USBD_MSC_Setup                           0x08003aed   Thumb Code   212  usbd_msc.o(i.USBD_MSC_Setup)
    USBD_ParseSetupRequest                   0x08003bc1   Thumb Code    44  usbd_ctlreq.o(i.USBD_ParseSetupRequest)
    USBD_RegisterClass                       0x08003bed   Thumb Code    36  usbd_core.o(i.USBD_RegisterClass)
    USBD_SetClassConfig                      0x08003c11   Thumb Code    20  usbd_core.o(i.USBD_SetClassConfig)
    USBD_Start                               0x08003ce1   Thumb Code     4  usbd_core.o(i.USBD_Start)
    USBD_StdDevReq                           0x08003ce5   Thumb Code   276  usbd_ctlreq.o(i.USBD_StdDevReq)
    USBD_StdEPReq                            0x08003df9   Thumb Code   320  usbd_ctlreq.o(i.USBD_StdEPReq)
    USBD_StdItfReq                           0x08003f39   Thumb Code    82  usbd_ctlreq.o(i.USBD_StdItfReq)
    USBD_static_free                         0x08003f8b   Thumb Code     2  usbd_conf.o(i.USBD_static_free)
    USBD_static_malloc                       0x08003f8d   Thumb Code     4  usbd_conf.o(i.USBD_static_malloc)
    USB_ActivateEndpoint                     0x08003f95   Thumb Code   616  stm32g4xx_ll_usb.o(i.USB_ActivateEndpoint)
    USB_DeactivateEndpoint                   0x080041fd   Thumb Code   270  stm32g4xx_ll_usb.o(i.USB_DeactivateEndpoint)
    USB_DevConnect                           0x0800430b   Thumb Code    14  stm32g4xx_ll_usb.o(i.USB_DevConnect)
    USB_DevInit                              0x08004319   Thumb Code    18  stm32g4xx_ll_usb.o(i.USB_DevInit)
    USB_DisableGlobalInt                     0x0800432b   Thumb Code    16  stm32g4xx_ll_usb.o(i.USB_DisableGlobalInt)
    USB_EPClearStall                         0x0800433b   Thumb Code   120  stm32g4xx_ll_usb.o(i.USB_EPClearStall)
    USB_EPSetStall                           0x080043b3   Thumb Code    50  stm32g4xx_ll_usb.o(i.USB_EPSetStall)
    USB_EPStartXfer                          0x080043e5   Thumb Code  1158  stm32g4xx_ll_usb.o(i.USB_EPStartXfer)
    USB_EnableGlobalInt                      0x0800486b   Thumb Code    18  stm32g4xx_ll_usb.o(i.USB_EnableGlobalInt)
    USB_LP_IRQHandler                        0x0800487d   Thumb Code     6  stm32g4xx_it.o(i.USB_LP_IRQHandler)
    USB_ReadInterrupts                       0x08004889   Thumb Code     6  stm32g4xx_ll_usb.o(i.USB_ReadInterrupts)
    USB_ReadPMA                              0x0800488f   Thumb Code    40  stm32g4xx_ll_usb.o(i.USB_ReadPMA)
    USB_SetDevAddress                        0x080048b7   Thumb Code    12  stm32g4xx_ll_usb.o(i.USB_SetDevAddress)
    USB_WritePMA                             0x080048c5   Thumb Code    38  stm32g4xx_ll_usb.o(i.USB_WritePMA)
    UsageFault_Handler                       0x080048eb   Thumb Code     2  stm32g4xx_it.o(i.UsageFault_Handler)
    board_button_getstate                    0x0800490d   Thumb Code    20  board.o(i.board_button_getstate)
    board_button_init                        0x08004925   Thumb Code    56  board.o(i.board_button_init)
    board_led_init                           0x08004965   Thumb Code    68  board.o(i.board_led_init)
    board_led_set                            0x080049b1   Thumb Code    18  board.o(i.board_led_set)
    board_led_toggle                         0x080049c9   Thumb Code     8  board.o(i.board_led_toggle)
    flash_init                               0x080049d5   Thumb Code    10  flash_access.o(i.flash_init)
    flash_read_multi_blocks                  0x080049e1   Thumb Code    34  flash_access.o(i.flash_read_multi_blocks)
    flash_write_multi_blocks                 0x08004a09   Thumb Code    94  flash_access.o(i.flash_write_multi_blocks)
    main                                     0x08004a71   Thumb Code   122  main.o(i.main)
    _fp_init                                 0x08004af5   Thumb Code    10  fpinit.o(x$fpl$fpinit)
    __fplib_config_fpu_vfp                   0x08004afd   Thumb Code     0  fpinit.o(x$fpl$fpinit)
    __fplib_config_pureend_doubles           0x08004afd   Thumb Code     0  fpinit.o(x$fpl$fpinit)
    STORAGE_Inquirydata_FS                   0x08004afe   Data          36  usbd_storage_if.o(.constdata)
    AHBPrescTable                            0x08004b22   Data          16  system_stm32g4xx.o(.constdata)
    Region$$Table$$Base                      0x08004b34   Number         0  anon$$obj.o(Region$$Table)
    Region$$Table$$Limit                     0x08004b54   Number         0  anon$$obj.o(Region$$Table)
    MSC_Desc                                 0x20000004   Data          32  usbd_desc.o(.data)
    USBD_LangIDDesc                          0x20000024   Data           4  usbd_desc.o(.data)
    USBD_MSC_DeviceDesc                      0x20000028   Data          18  usbd_desc.o(.data)
    USBD_StringSerial                        0x2000003c   Data          26  usbd_desc.o(.data)
    USBD_Storage_Interface_fops_FS           0x20000058   Data          32  usbd_storage_if.o(.data)
    uwTickPrio                               0x20000078   Data           4  stm32g4xx_hal.o(.data)
    uwTickFreq                               0x2000007c   Data           4  stm32g4xx_hal.o(.data)
    uwTick                                   0x20000080   Data           4  stm32g4xx_hal.o(.data)
    pFlash                                   0x20000084   Data          32  stm32g4xx_hal_flash.o(.data)
    SystemCoreClock                          0x200000a4   Data           4  system_stm32g4xx.o(.data)
    USBD_MSC                                 0x200000ac   Data          56  usbd_msc.o(.data)
    MSC_Page00_Inquiry_Data                  0x2000014e   Data           6  usbd_msc_data.o(.data)
    MSC_Page80_Inquiry_Data                  0x20000154   Data           8  usbd_msc_data.o(.data)
    MSC_Mode_Sense6_data                     0x2000015c   Data          23  usbd_msc_data.o(.data)
    MSC_Mode_Sense10_data                    0x20000173   Data          27  usbd_msc_data.o(.data)
    hrtc                                     0x20000190   Data          40  rtc.o(.bss)
    hpcd_USB_FS                              0x20000a30   Data         756  usbd_conf.o(.bss)
    hUsbDeviceFS                             0x20000d24   Data         720  usb_device.o(.bss)
    USBD_StrDesc                             0x20000ff4   Data         512  usbd_desc.o(.bss)
    __libspace_start                         0x200011f4   Data          96  libspace.o(.bss)
    __temporary_stack_top$libspace           0x20001254   Data           0  libspace.o(.bss)



==============================================================================

Memory Map of the image

  Image Entry point : 0x080001d9

  Load Region LR_IROM1 (Base: 0x08000000, Size: 0x00004ce4, Max: 0x00020000, ABSOLUTE, COMPRESSED[0x00004c14])

    Execution Region ER_IROM1 (Exec base: 0x08000000, Load base: 0x08000000, Size: 0x00004b54, Max: 0x00020000, ABSOLUTE)

    Exec Addr    Load Addr    Size         Type   Attr      Idx    E Section Name        Object

    0x08000000   0x08000000   0x000001d8   Data   RO            3    RESET               startup_stm32g431xx.o
    0x080001d8   0x080001d8   0x00000008   Code   RO         3844  * !!!main             c_w.l(__main.o)
    0x080001e0   0x080001e0   0x00000034   Code   RO         4005    !!!scatter          c_w.l(__scatter.o)
    0x08000214   0x08000214   0x0000005a   Code   RO         4003    !!dczerorl2         c_w.l(__dczerorl2.o)
    0x0800026e   0x0800026e   0x00000002   PAD
    0x08000270   0x08000270   0x0000001c   Code   RO         4007    !!handler_zi        c_w.l(__scatter_zi.o)
    0x0800028c   0x0800028c   0x00000002   Code   RO         3871    .ARM.Collect$$libinit$$00000000  c_w.l(libinit.o)
    0x0800028e   0x0800028e   0x00000004   Code   RO         3877    .ARM.Collect$$libinit$$00000001  c_w.l(libinit2.o)
    0x08000292   0x08000292   0x00000000   Code   RO         3880    .ARM.Collect$$libinit$$00000004  c_w.l(libinit2.o)
    0x08000292   0x08000292   0x00000000   Code   RO         3883    .ARM.Collect$$libinit$$0000000A  c_w.l(libinit2.o)
    0x08000292   0x08000292   0x00000000   Code   RO         3885    .ARM.Collect$$libinit$$0000000C  c_w.l(libinit2.o)
    0x08000292   0x08000292   0x00000000   Code   RO         3887    .ARM.Collect$$libinit$$0000000E  c_w.l(libinit2.o)
    0x08000292   0x08000292   0x00000000   Code   RO         3890    .ARM.Collect$$libinit$$00000011  c_w.l(libinit2.o)
    0x08000292   0x08000292   0x00000000   Code   RO         3892    .ARM.Collect$$libinit$$00000013  c_w.l(libinit2.o)
    0x08000292   0x08000292   0x00000000   Code   RO         3894    .ARM.Collect$$libinit$$00000015  c_w.l(libinit2.o)
    0x08000292   0x08000292   0x00000000   Code   RO         3896    .ARM.Collect$$libinit$$00000017  c_w.l(libinit2.o)
    0x08000292   0x08000292   0x00000000   Code   RO         3898    .ARM.Collect$$libinit$$00000019  c_w.l(libinit2.o)
    0x08000292   0x08000292   0x00000000   Code   RO         3900    .ARM.Collect$$libinit$$0000001B  c_w.l(libinit2.o)
    0x08000292   0x08000292   0x00000000   Code   RO         3902    .ARM.Collect$$libinit$$0000001D  c_w.l(libinit2.o)
    0x08000292   0x08000292   0x00000000   Code   RO         3904    .ARM.Collect$$libinit$$0000001F  c_w.l(libinit2.o)
    0x08000292   0x08000292   0x00000000   Code   RO         3906    .ARM.Collect$$libinit$$00000021  c_w.l(libinit2.o)
    0x08000292   0x08000292   0x00000000   Code   RO         3908    .ARM.Collect$$libinit$$00000023  c_w.l(libinit2.o)
    0x08000292   0x08000292   0x00000000   Code   RO         3910    .ARM.Collect$$libinit$$00000025  c_w.l(libinit2.o)
    0x08000292   0x08000292   0x00000000   Code   RO         3914    .ARM.Collect$$libinit$$0000002C  c_w.l(libinit2.o)
    0x08000292   0x08000292   0x00000000   Code   RO         3916    .ARM.Collect$$libinit$$0000002E  c_w.l(libinit2.o)
    0x08000292   0x08000292   0x00000000   Code   RO         3918    .ARM.Collect$$libinit$$00000030  c_w.l(libinit2.o)
    0x08000292   0x08000292   0x00000000   Code   RO         3920    .ARM.Collect$$libinit$$00000032  c_w.l(libinit2.o)
    0x08000292   0x08000292   0x00000002   Code   RO         3921    .ARM.Collect$$libinit$$00000033  c_w.l(libinit2.o)
    0x08000294   0x08000294   0x00000002   Code   RO         3941    .ARM.Collect$$libshutdown$$00000000  c_w.l(libshutdown.o)
    0x08000296   0x08000296   0x00000000   Code   RO         3954    .ARM.Collect$$libshutdown$$00000002  c_w.l(libshutdown2.o)
    0x08000296   0x08000296   0x00000000   Code   RO         3956    .ARM.Collect$$libshutdown$$00000004  c_w.l(libshutdown2.o)
    0x08000296   0x08000296   0x00000000   Code   RO         3958    .ARM.Collect$$libshutdown$$00000006  c_w.l(libshutdown2.o)
    0x08000296   0x08000296   0x00000000   Code   RO         3961    .ARM.Collect$$libshutdown$$00000009  c_w.l(libshutdown2.o)
    0x08000296   0x08000296   0x00000000   Code   RO         3964    .ARM.Collect$$libshutdown$$0000000C  c_w.l(libshutdown2.o)
    0x08000296   0x08000296   0x00000000   Code   RO         3966    .ARM.Collect$$libshutdown$$0000000E  c_w.l(libshutdown2.o)
    0x08000296   0x08000296   0x00000000   Code   RO         3969    .ARM.Collect$$libshutdown$$00000011  c_w.l(libshutdown2.o)
    0x08000296   0x08000296   0x00000002   Code   RO         3970    .ARM.Collect$$libshutdown$$00000012  c_w.l(libshutdown2.o)
    0x08000298   0x08000298   0x00000000   Code   RO         3846    .ARM.Collect$$rtentry$$00000000  c_w.l(__rtentry.o)
    0x08000298   0x08000298   0x00000000   Code   RO         3848    .ARM.Collect$$rtentry$$00000002  c_w.l(__rtentry2.o)
    0x08000298   0x08000298   0x00000006   Code   RO         3860    .ARM.Collect$$rtentry$$00000004  c_w.l(__rtentry4.o)
    0x0800029e   0x0800029e   0x00000000   Code   RO         3850    .ARM.Collect$$rtentry$$00000009  c_w.l(__rtentry2.o)
    0x0800029e   0x0800029e   0x00000004   Code   RO         3851    .ARM.Collect$$rtentry$$0000000A  c_w.l(__rtentry2.o)
    0x080002a2   0x080002a2   0x00000000   Code   RO         3853    .ARM.Collect$$rtentry$$0000000C  c_w.l(__rtentry2.o)
    0x080002a2   0x080002a2   0x00000008   Code   RO         3854    .ARM.Collect$$rtentry$$0000000D  c_w.l(__rtentry2.o)
    0x080002aa   0x080002aa   0x00000002   Code   RO         3875    .ARM.Collect$$rtexit$$00000000  c_w.l(rtexit.o)
    0x080002ac   0x080002ac   0x00000000   Code   RO         3923    .ARM.Collect$$rtexit$$00000002  c_w.l(rtexit2.o)
    0x080002ac   0x080002ac   0x00000004   Code   RO         3924    .ARM.Collect$$rtexit$$00000003  c_w.l(rtexit2.o)
    0x080002b0   0x080002b0   0x00000006   Code   RO         3925    .ARM.Collect$$rtexit$$00000004  c_w.l(rtexit2.o)
    0x080002b6   0x080002b6   0x00000002   PAD
    0x080002b8   0x080002b8   0x00000040   Code   RO            4    .text               startup_stm32g431xx.o
    0x080002f8   0x080002f8   0x00000064   Code   RO         3838    .text               c_w.l(rt_memcpy_w.o)
    0x0800035c   0x0800035c   0x0000004e   Code   RO         3840    .text               c_w.l(rt_memclr_w.o)
    0x080003aa   0x080003aa   0x00000006   Code   RO         3842    .text               c_w.l(heapauxi.o)
    0x080003b0   0x080003b0   0x0000004a   Code   RO         3862    .text               c_w.l(sys_stackheap_outer.o)
    0x080003fa   0x080003fa   0x00000012   Code   RO         3864    .text               c_w.l(exit.o)
    0x0800040c   0x0800040c   0x00000008   Code   RO         3872    .text               c_w.l(libspace.o)
    0x08000414   0x08000414   0x0000000c   Code   RO         3933    .text               c_w.l(sys_exit.o)
    0x08000420   0x08000420   0x00000002   Code   RO         3944    .text               c_w.l(use_no_semi.o)
    0x08000422   0x08000422   0x00000000   Code   RO         3946    .text               c_w.l(indicate_semi.o)
    0x08000422   0x08000422   0x00000002   Code   RO          336    i.BusFault_Handler  stm32g4xx_it.o
    0x08000424   0x08000424   0x00000002   Code   RO          337    i.DebugMon_Handler  stm32g4xx_it.o
    0x08000426   0x08000426   0x00000004   Code   RO          207    i.Error_Handler     main.o
    0x0800042a   0x0800042a   0x00000002   PAD
    0x0800042c   0x0800042c   0x0000005c   Code   RO         1861    i.FLASH_FlushCaches  stm32g4xx_hal_flash_ex.o
    0x08000488   0x08000488   0x0000001c   Code   RO         1862    i.FLASH_MassErase   stm32g4xx_hal_flash_ex.o
    0x080004a4   0x080004a4   0x00000028   Code   RO         1864    i.FLASH_PageErase   stm32g4xx_hal_flash_ex.o
    0x080004cc   0x080004cc   0x0000001c   Code   RO         1752    i.FLASH_Program_DoubleWord  stm32g4xx_hal_flash.o
    0x080004e8   0x080004e8   0x0000002c   Code   RO         1753    i.FLASH_Program_Fast  stm32g4xx_hal_flash.o
    0x08000514   0x08000514   0x00000060   Code   RO         1754    i.FLASH_WaitForLastOperation  stm32g4xx_hal_flash.o
    0x08000574   0x08000574   0x000000d4   Code   RO         1868    i.HAL_FLASHEx_Erase  stm32g4xx_hal_flash_ex.o
    0x08000648   0x08000648   0x0000007c   Code   RO         1763    i.HAL_FLASH_Program  stm32g4xx_hal_flash.o
    0x080006c4   0x080006c4   0x00000028   Code   RO         1765    i.HAL_FLASH_Unlock  stm32g4xx_hal_flash.o
    0x080006ec   0x080006ec   0x00000248   Code   RO         1976    i.HAL_GPIO_Init     stm32g4xx_hal_gpio.o
    0x08000934   0x08000934   0x0000000a   Code   RO         1978    i.HAL_GPIO_ReadPin  stm32g4xx_hal_gpio.o
    0x0800093e   0x0800093e   0x00000010   Code   RO         1979    i.HAL_GPIO_TogglePin  stm32g4xx_hal_gpio.o
    0x0800094e   0x0800094e   0x0000000a   Code   RO         1980    i.HAL_GPIO_WritePin  stm32g4xx_hal_gpio.o
    0x08000958   0x08000958   0x0000000c   Code   RO         1289    i.HAL_GetTick       stm32g4xx_hal.o
    0x08000964   0x08000964   0x00000010   Code   RO         1292    i.HAL_IncTick       stm32g4xx_hal.o
    0x08000974   0x08000974   0x0000001e   Code   RO         1293    i.HAL_Init          stm32g4xx_hal.o
    0x08000992   0x08000992   0x00000002   PAD
    0x08000994   0x08000994   0x00000044   Code   RO         1294    i.HAL_InitTick      stm32g4xx_hal.o
    0x080009d8   0x080009d8   0x00000030   Code   RO          418    i.HAL_MspInit       stm32g4xx_hal_msp.o
    0x08000a08   0x08000a08   0x0000001a   Code   RO         2623    i.HAL_NVIC_EnableIRQ  stm32g4xx_hal_cortex.o
    0x08000a22   0x08000a22   0x00000002   PAD
    0x08000a24   0x08000a24   0x00000040   Code   RO         2629    i.HAL_NVIC_SetPriority  stm32g4xx_hal_cortex.o
    0x08000a64   0x08000a64   0x00000024   Code   RO         2630    i.HAL_NVIC_SetPriorityGrouping  stm32g4xx_hal_cortex.o
    0x08000a88   0x08000a88   0x00000024   Code   RO         1081    i.HAL_PCDEx_ActivateLPM  stm32g4xx_hal_pcd_ex.o
    0x08000aac   0x08000aac   0x00000044   Code   RO          442    i.HAL_PCDEx_LPM_Callback  usbd_conf.o
    0x08000af0   0x08000af0   0x0000003c   Code   RO         1087    i.HAL_PCDEx_PMAConfig  stm32g4xx_hal_pcd_ex.o
    0x08000b2c   0x08000b2c   0x00000012   Code   RO          444    i.HAL_PCD_DataInStageCallback  usbd_conf.o
    0x08000b3e   0x08000b3e   0x00000014   Code   RO          445    i.HAL_PCD_DataOutStageCallback  usbd_conf.o
    0x08000b52   0x08000b52   0x0000004c   Code   RO          864    i.HAL_PCD_EP_Close  stm32g4xx_hal_pcd.o
    0x08000b9e   0x08000b9e   0x0000005c   Code   RO          865    i.HAL_PCD_EP_ClrStall  stm32g4xx_hal_pcd.o
    0x08000bfa   0x08000bfa   0x000000dc   Code   RO          866    i.HAL_PCD_EP_DB_Receive  stm32g4xx_hal_pcd.o
    0x08000cd6   0x08000cd6   0x00000330   Code   RO          867    i.HAL_PCD_EP_DB_Transmit  stm32g4xx_hal_pcd.o
    0x08001006   0x08001006   0x00000004   Code   RO          868    i.HAL_PCD_EP_Flush  stm32g4xx_hal_pcd.o
    0x0800100a   0x0800100a   0x00000012   Code   RO          869    i.HAL_PCD_EP_GetRxCount  stm32g4xx_hal_pcd.o
    0x0800101c   0x0800101c   0x00000060   Code   RO          870    i.HAL_PCD_EP_Open   stm32g4xx_hal_pcd.o
    0x0800107c   0x0800107c   0x00000032   Code   RO          871    i.HAL_PCD_EP_Receive  stm32g4xx_hal_pcd.o
    0x080010ae   0x080010ae   0x00000060   Code   RO          872    i.HAL_PCD_EP_SetStall  stm32g4xx_hal_pcd.o
    0x0800110e   0x0800110e   0x00000034   Code   RO          873    i.HAL_PCD_EP_Transmit  stm32g4xx_hal_pcd.o
    0x08001142   0x08001142   0x0000014a   Code   RO          875    i.HAL_PCD_IRQHandler  stm32g4xx_hal_pcd.o
    0x0800128c   0x0800128c   0x000000b2   Code   RO          878    i.HAL_PCD_Init      stm32g4xx_hal_pcd.o
    0x0800133e   0x0800133e   0x00000002   PAD
    0x08001340   0x08001340   0x00000058   Code   RO          450    i.HAL_PCD_MspInit   usbd_conf.o
    0x08001398   0x08001398   0x00000026   Code   RO          451    i.HAL_PCD_ResetCallback  usbd_conf.o
    0x080013be   0x080013be   0x00000002   PAD
    0x080013c0   0x080013c0   0x00000028   Code   RO          452    i.HAL_PCD_ResumeCallback  usbd_conf.o
    0x080013e8   0x080013e8   0x00000008   Code   RO          453    i.HAL_PCD_SOFCallback  usbd_conf.o
    0x080013f0   0x080013f0   0x00000028   Code   RO          884    i.HAL_PCD_SetAddress  stm32g4xx_hal_pcd.o
    0x08001418   0x08001418   0x0000000e   Code   RO          454    i.HAL_PCD_SetupStageCallback  usbd_conf.o
    0x08001426   0x08001426   0x0000002a   Code   RO          886    i.HAL_PCD_Start     stm32g4xx_hal_pcd.o
    0x08001450   0x08001450   0x00000024   Code   RO          455    i.HAL_PCD_SuspendCallback  usbd_conf.o
    0x08001474   0x08001474   0x000000bc   Code   RO         2379    i.HAL_PWREx_ControlVoltageScaling  stm32g4xx_hal_pwr_ex.o
    0x08001530   0x08001530   0x00000010   Code   RO         2391    i.HAL_PWREx_DisableUCPDDeadBattery  stm32g4xx_hal_pwr_ex.o
    0x08001540   0x08001540   0x00000010   Code   RO         2271    i.HAL_PWR_EnableBkUpAccess  stm32g4xx_hal_pwr.o
    0x08001550   0x08001550   0x00000288   Code   RO         1638    i.HAL_RCCEx_PeriphCLKConfig  stm32g4xx_hal_rcc_ex.o
    0x080017d8   0x080017d8   0x000001dc   Code   RO         1513    i.HAL_RCC_ClockConfig  stm32g4xx_hal_rcc.o
    0x080019b4   0x080019b4   0x0000006c   Code   RO         1523    i.HAL_RCC_GetSysClockFreq  stm32g4xx_hal_rcc.o
    0x08001a20   0x08001a20   0x0000040c   Code   RO         1526    i.HAL_RCC_OscConfig  stm32g4xx_hal_rcc.o
    0x08001e2c   0x08001e2c   0x00000044   Code   RO         2763    i.HAL_RTC_GetDate   stm32g4xx_hal_rtc.o
    0x08001e70   0x08001e70   0x00000054   Code   RO         2765    i.HAL_RTC_GetTime   stm32g4xx_hal_rtc.o
    0x08001ec4   0x08001ec4   0x00000094   Code   RO         2766    i.HAL_RTC_Init      stm32g4xx_hal_rtc.o
    0x08001f58   0x08001f58   0x00000058   Code   RO          295    i.HAL_RTC_MspInit   rtc.o
    0x08001fb0   0x08001fb0   0x000000a0   Code   RO         2772    i.HAL_RTC_SetDate   stm32g4xx_hal_rtc.o
    0x08002050   0x08002050   0x000000cc   Code   RO         2773    i.HAL_RTC_SetTime   stm32g4xx_hal_rtc.o
    0x0800211c   0x0800211c   0x00000036   Code   RO         2774    i.HAL_RTC_WaitForSynchro  stm32g4xx_hal_rtc.o
    0x08002152   0x08002152   0x00000028   Code   RO         2634    i.HAL_SYSTICK_Config  stm32g4xx_hal_cortex.o
    0x0800217a   0x0800217a   0x00000002   Code   RO          338    i.HardFault_Handler  stm32g4xx_it.o
    0x0800217c   0x0800217c   0x00000038   Code   RO          708    i.IntToUnicode      usbd_desc.o
    0x080021b4   0x080021b4   0x00000048   Code   RO         3638    i.MSC_BOT_Abort     usbd_msc_bot.o
    0x080021fc   0x080021fc   0x000000d4   Code   RO         3639    i.MSC_BOT_CBW_Decode  usbd_msc_bot.o
    0x080022d0   0x080022d0   0x0000003c   Code   RO         3640    i.MSC_BOT_CplClrFeature  usbd_msc_bot.o
    0x0800230c   0x0800230c   0x0000003e   Code   RO         3641    i.MSC_BOT_DataIn    usbd_msc_bot.o
    0x0800234a   0x0800234a   0x0000003e   Code   RO         3642    i.MSC_BOT_DataOut   usbd_msc_bot.o
    0x08002388   0x08002388   0x0000000e   Code   RO         3643    i.MSC_BOT_DeInit    usbd_msc_bot.o
    0x08002396   0x08002396   0x0000004c   Code   RO         3644    i.MSC_BOT_Init      usbd_msc_bot.o
    0x080023e2   0x080023e2   0x00000038   Code   RO         3645    i.MSC_BOT_Reset     usbd_msc_bot.o
    0x0800241a   0x0800241a   0x00000002   PAD
    0x0800241c   0x0800241c   0x00000040   Code   RO         3646    i.MSC_BOT_SendCSW   usbd_msc_bot.o
    0x0800245c   0x0800245c   0x0000003c   Code   RO          270    i.MX_GPIO_Init      gpio.o
    0x08002498   0x08002498   0x0000008c   Code   RO          296    i.MX_RTC_Init       rtc.o
    0x08002524   0x08002524   0x00000054   Code   RO          673    i.MX_USB_Device_Init  usb_device.o
    0x08002578   0x08002578   0x00000002   Code   RO          339    i.MemManage_Handler  stm32g4xx_it.o
    0x0800257a   0x0800257a   0x00000002   Code   RO          340    i.NMI_Handler       stm32g4xx_it.o
    0x0800257c   0x0800257c   0x0000037a   Code   RO          889    i.PCD_EP_ISR_Handler  stm32g4xx_hal_pcd.o
    0x080028f6   0x080028f6   0x00000002   Code   RO          341    i.PendSV_Handler    stm32g4xx_it.o
    0x080028f8   0x080028f8   0x00000012   Code   RO         2775    i.RTC_Bcd2ToByte    stm32g4xx_hal_rtc.o
    0x0800290a   0x0800290a   0x00000018   Code   RO         2776    i.RTC_ByteToBcd2    stm32g4xx_hal_rtc.o
    0x08002922   0x08002922   0x00000002   PAD
    0x08002924   0x08002924   0x0000004a   Code   RO         2777    i.RTC_EnterInitMode  stm32g4xx_hal_rtc.o
    0x0800296e   0x0800296e   0x00000050   Code   RO         2778    i.RTC_ExitInitMode  stm32g4xx_hal_rtc.o
    0x080029be   0x080029be   0x00000026   Code   RO         3735    i.SCSI_CheckAddressRange  usbd_msc_scsi.o
    0x080029e4   0x080029e4   0x00000074   Code   RO         3736    i.SCSI_Inquiry      usbd_msc_scsi.o
    0x08002a58   0x08002a58   0x00000158   Code   RO         3737    i.SCSI_ProcessCmd   usbd_msc_scsi.o
    0x08002bb0   0x08002bb0   0x0000009a   Code   RO         3738    i.SCSI_ProcessRead  usbd_msc_scsi.o
    0x08002c4a   0x08002c4a   0x000000a6   Code   RO         3739    i.SCSI_ProcessWrite  usbd_msc_scsi.o
    0x08002cf0   0x08002cf0   0x000000ac   Code   RO         3740    i.SCSI_Read10       usbd_msc_scsi.o
    0x08002d9c   0x08002d9c   0x000000b6   Code   RO         3741    i.SCSI_Read12       usbd_msc_scsi.o
    0x08002e52   0x08002e52   0x0000006e   Code   RO         3742    i.SCSI_ReadCapacity10  usbd_msc_scsi.o
    0x08002ec0   0x08002ec0   0x000000a2   Code   RO         3743    i.SCSI_ReadCapacity16  usbd_msc_scsi.o
    0x08002f62   0x08002f62   0x0000007e   Code   RO         3744    i.SCSI_ReadFormatCapacity  usbd_msc_scsi.o
    0x08002fe0   0x08002fe0   0x00000080   Code   RO         3745    i.SCSI_RequestSense  usbd_msc_scsi.o
    0x08003060   0x08003060   0x00000044   Code   RO         3746    i.SCSI_SenseCode    usbd_msc_scsi.o
    0x080030a4   0x080030a4   0x0000005e   Code   RO         3747    i.SCSI_TestUnitReady  usbd_msc_scsi.o
    0x08003102   0x08003102   0x00000020   Code   RO         3748    i.SCSI_UpdateBotData  usbd_msc_scsi.o
    0x08003122   0x08003122   0x000000c8   Code   RO         3749    i.SCSI_Write10      usbd_msc_scsi.o
    0x080031ea   0x080031ea   0x000000d8   Code   RO         3750    i.SCSI_Write12      usbd_msc_scsi.o
    0x080032c2   0x080032c2   0x0000000c   Code   RO          794    i.STORAGE_GetCapacity_FS  usbd_storage_if.o
    0x080032ce   0x080032ce   0x00000004   Code   RO          795    i.STORAGE_GetMaxLun_FS  usbd_storage_if.o
    0x080032d2   0x080032d2   0x0000000a   Code   RO          796    i.STORAGE_Init_FS   usbd_storage_if.o
    0x080032dc   0x080032dc   0x00000004   Code   RO          797    i.STORAGE_IsReady_FS  usbd_storage_if.o
    0x080032e0   0x080032e0   0x00000004   Code   RO          798    i.STORAGE_IsWriteProtected_FS  usbd_storage_if.o
    0x080032e4   0x080032e4   0x00000012   Code   RO          799    i.STORAGE_Read_FS   usbd_storage_if.o
    0x080032f6   0x080032f6   0x00000012   Code   RO          800    i.STORAGE_Write_FS  usbd_storage_if.o
    0x08003308   0x08003308   0x00000002   Code   RO          342    i.SVC_Handler       stm32g4xx_it.o
    0x0800330a   0x0800330a   0x0000000a   Code   RO         3420    i.SWAPBYTE          usbd_ctlreq.o
    0x08003314   0x08003314   0x00000004   Code   RO          343    i.SysTick_Handler   stm32g4xx_it.o
    0x08003318   0x08003318   0x00000084   Code   RO          208    i.SystemClock_Config  main.o
    0x0800339c   0x0800339c   0x00000010   Code   RO         3245    i.SystemInit        system_stm32g4xx.o
    0x080033ac   0x080033ac   0x00000010   Code   RO         3282    i.USBD_ClrClassConfig  usbd_core.o
    0x080033bc   0x080033bc   0x00000010   Code   RO         3493    i.USBD_CtlContinueRx  usbd_ioreq.o
    0x080033cc   0x080033cc   0x00000010   Code   RO         3494    i.USBD_CtlContinueSendData  usbd_ioreq.o
    0x080033dc   0x080033dc   0x00000016   Code   RO         3421    i.USBD_CtlError     usbd_ctlreq.o
    0x080033f2   0x080033f2   0x00000016   Code   RO         3496    i.USBD_CtlReceiveStatus  usbd_ioreq.o
    0x08003408   0x08003408   0x0000001a   Code   RO         3497    i.USBD_CtlSendData  usbd_ioreq.o
    0x08003422   0x08003422   0x00000016   Code   RO         3498    i.USBD_CtlSendStatus  usbd_ioreq.o
    0x08003438   0x08003438   0x000000fa   Code   RO         3422    i.USBD_GetDescriptor  usbd_ctlreq.o
    0x08003532   0x08003532   0x00000048   Code   RO         3423    i.USBD_GetString    usbd_ctlreq.o
    0x0800357a   0x0800357a   0x00000018   Code   RO          456    i.USBD_Get_USB_Status  usbd_conf.o
    0x08003592   0x08003592   0x00000026   Code   RO         3284    i.USBD_Init         usbd_core.o
    0x080035b8   0x080035b8   0x00000012   Code   RO          457    i.USBD_LL_ClearStallEP  usbd_conf.o
    0x080035ca   0x080035ca   0x00000012   Code   RO          458    i.USBD_LL_CloseEP   usbd_conf.o
    0x080035dc   0x080035dc   0x000000a8   Code   RO         3285    i.USBD_LL_DataInStage  usbd_core.o
    0x08003684   0x08003684   0x0000006c   Code   RO         3286    i.USBD_LL_DataOutStage  usbd_core.o
    0x080036f0   0x080036f0   0x00000012   Code   RO          461    i.USBD_LL_FlushEP   usbd_conf.o
    0x08003702   0x08003702   0x00000008   Code   RO          462    i.USBD_LL_GetRxDataSize  usbd_conf.o
    0x0800370a   0x0800370a   0x00000002   PAD
    0x0800370c   0x0800370c   0x00000074   Code   RO          463    i.USBD_LL_Init      usbd_conf.o
    0x08003780   0x08003780   0x00000020   Code   RO          464    i.USBD_LL_IsStallEP  usbd_conf.o
    0x080037a0   0x080037a0   0x00000018   Code   RO          465    i.USBD_LL_OpenEP    usbd_conf.o
    0x080037b8   0x080037b8   0x00000012   Code   RO          466    i.USBD_LL_PrepareReceive  usbd_conf.o
    0x080037ca   0x080037ca   0x0000005a   Code   RO         3291    i.USBD_LL_Reset     usbd_core.o
    0x08003824   0x08003824   0x00000014   Code   RO         3292    i.USBD_LL_Resume    usbd_core.o
    0x08003838   0x08003838   0x00000020   Code   RO         3293    i.USBD_LL_SOF       usbd_core.o
    0x08003858   0x08003858   0x00000006   Code   RO         3294    i.USBD_LL_SetSpeed  usbd_core.o
    0x0800385e   0x0800385e   0x00000012   Code   RO          467    i.USBD_LL_SetUSBAddress  usbd_conf.o
    0x08003870   0x08003870   0x00000060   Code   RO         3295    i.USBD_LL_SetupStage  usbd_core.o
    0x080038d0   0x080038d0   0x00000012   Code   RO          468    i.USBD_LL_StallEP   usbd_conf.o
    0x080038e2   0x080038e2   0x00000012   Code   RO          469    i.USBD_LL_Start     usbd_conf.o
    0x080038f4   0x080038f4   0x00000012   Code   RO         3296    i.USBD_LL_Suspend   usbd_core.o
    0x08003906   0x08003906   0x00000012   Code   RO          471    i.USBD_LL_Transmit  usbd_conf.o
    0x08003918   0x08003918   0x00000020   Code   RO          709    i.USBD_MSC_ConfigStrDescriptor  usbd_desc.o
    0x08003938   0x08003938   0x0000000a   Code   RO         3553    i.USBD_MSC_DataIn   usbd_msc.o
    0x08003942   0x08003942   0x0000000a   Code   RO         3554    i.USBD_MSC_DataOut  usbd_msc.o
    0x0800394c   0x0800394c   0x00000036   Code   RO         3555    i.USBD_MSC_DeInit   usbd_msc.o
    0x08003982   0x08003982   0x00000002   PAD
    0x08003984   0x08003984   0x0000000c   Code   RO          710    i.USBD_MSC_DeviceDescriptor  usbd_desc.o
    0x08003990   0x08003990   0x0000000c   Code   RO         3556    i.USBD_MSC_GetDeviceQualifierDescriptor  usbd_msc.o
    0x0800399c   0x0800399c   0x0000000c   Code   RO         3557    i.USBD_MSC_GetFSCfgDesc  usbd_msc.o
    0x080039a8   0x080039a8   0x0000000c   Code   RO         3558    i.USBD_MSC_GetHSCfgDesc  usbd_msc.o
    0x080039b4   0x080039b4   0x0000000c   Code   RO         3559    i.USBD_MSC_GetOtherSpeedCfgDesc  usbd_msc.o
    0x080039c0   0x080039c0   0x00000062   Code   RO         3560    i.USBD_MSC_Init     usbd_msc.o
    0x08003a22   0x08003a22   0x00000002   PAD
    0x08003a24   0x08003a24   0x00000024   Code   RO          711    i.USBD_MSC_InterfaceStrDescriptor  usbd_desc.o
    0x08003a48   0x08003a48   0x0000000c   Code   RO          712    i.USBD_MSC_LangIDStrDescriptor  usbd_desc.o
    0x08003a54   0x08003a54   0x00000028   Code   RO          713    i.USBD_MSC_ManufacturerStrDescriptor  usbd_desc.o
    0x08003a7c   0x08003a7c   0x00000028   Code   RO          714    i.USBD_MSC_ProductStrDescriptor  usbd_desc.o
    0x08003aa4   0x08003aa4   0x0000000e   Code   RO         3561    i.USBD_MSC_RegisterStorage  usbd_msc.o
    0x08003ab2   0x08003ab2   0x00000002   PAD
    0x08003ab4   0x08003ab4   0x00000038   Code   RO          715    i.USBD_MSC_SerialStrDescriptor  usbd_desc.o
    0x08003aec   0x08003aec   0x000000d4   Code   RO         3562    i.USBD_MSC_Setup    usbd_msc.o
    0x08003bc0   0x08003bc0   0x0000002c   Code   RO         3424    i.USBD_ParseSetupRequest  usbd_ctlreq.o
    0x08003bec   0x08003bec   0x00000024   Code   RO         3297    i.USBD_RegisterClass  usbd_core.o
    0x08003c10   0x08003c10   0x00000014   Code   RO         3299    i.USBD_SetClassConfig  usbd_core.o
    0x08003c24   0x08003c24   0x000000bc   Code   RO         3425    i.USBD_SetConfig    usbd_ctlreq.o
    0x08003ce0   0x08003ce0   0x00000004   Code   RO         3300    i.USBD_Start        usbd_core.o
    0x08003ce4   0x08003ce4   0x00000114   Code   RO         3426    i.USBD_StdDevReq    usbd_ctlreq.o
    0x08003df8   0x08003df8   0x00000140   Code   RO         3427    i.USBD_StdEPReq     usbd_ctlreq.o
    0x08003f38   0x08003f38   0x00000052   Code   RO         3428    i.USBD_StdItfReq    usbd_ctlreq.o
    0x08003f8a   0x08003f8a   0x00000002   Code   RO          472    i.USBD_static_free  usbd_conf.o
    0x08003f8c   0x08003f8c   0x00000008   Code   RO          473    i.USBD_static_malloc  usbd_conf.o
    0x08003f94   0x08003f94   0x00000268   Code   RO         1146    i.USB_ActivateEndpoint  stm32g4xx_ll_usb.o
    0x080041fc   0x080041fc   0x0000010e   Code   RO         1150    i.USB_DeactivateEndpoint  stm32g4xx_ll_usb.o
    0x0800430a   0x0800430a   0x0000000e   Code   RO         1151    i.USB_DevConnect    stm32g4xx_ll_usb.o
    0x08004318   0x08004318   0x00000012   Code   RO         1153    i.USB_DevInit       stm32g4xx_ll_usb.o
    0x0800432a   0x0800432a   0x00000010   Code   RO         1154    i.USB_DisableGlobalInt  stm32g4xx_ll_usb.o
    0x0800433a   0x0800433a   0x00000078   Code   RO         1155    i.USB_EPClearStall  stm32g4xx_ll_usb.o
    0x080043b2   0x080043b2   0x00000032   Code   RO         1156    i.USB_EPSetStall    stm32g4xx_ll_usb.o
    0x080043e4   0x080043e4   0x00000486   Code   RO         1157    i.USB_EPStartXfer   stm32g4xx_ll_usb.o
    0x0800486a   0x0800486a   0x00000012   Code   RO         1158    i.USB_EnableGlobalInt  stm32g4xx_ll_usb.o
    0x0800487c   0x0800487c   0x0000000c   Code   RO          344    i.USB_LP_IRQHandler  stm32g4xx_it.o
    0x08004888   0x08004888   0x00000006   Code   RO         1159    i.USB_ReadInterrupts  stm32g4xx_ll_usb.o
    0x0800488e   0x0800488e   0x00000028   Code   RO         1160    i.USB_ReadPMA       stm32g4xx_ll_usb.o
    0x080048b6   0x080048b6   0x0000000c   Code   RO         1162    i.USB_SetDevAddress  stm32g4xx_ll_usb.o
    0x080048c2   0x080048c2   0x00000002   PAD
    0x080048c4   0x080048c4   0x00000026   Code   RO         1164    i.USB_WritePMA      stm32g4xx_ll_usb.o
    0x080048ea   0x080048ea   0x00000002   Code   RO          345    i.UsageFault_Handler  stm32g4xx_it.o
    0x080048ec   0x080048ec   0x00000020   Code   RO         2636    i.__NVIC_SetPriority  stm32g4xx_hal_cortex.o
    0x0800490c   0x0800490c   0x00000018   Code   RO           13    i.board_button_getstate  board.o
    0x08004924   0x08004924   0x00000040   Code   RO           14    i.board_button_init  board.o
    0x08004964   0x08004964   0x0000004c   Code   RO           15    i.board_led_init    board.o
    0x080049b0   0x080049b0   0x00000018   Code   RO           16    i.board_led_set     board.o
    0x080049c8   0x080049c8   0x0000000c   Code   RO           17    i.board_led_toggle  board.o
    0x080049d4   0x080049d4   0x0000000a   Code   RO          168    i.flash_init        flash_access.o
    0x080049de   0x080049de   0x00000002   PAD
    0x080049e0   0x080049e0   0x00000028   Code   RO          169    i.flash_read_multi_blocks  flash_access.o
    0x08004a08   0x08004a08   0x00000068   Code   RO          170    i.flash_write_multi_blocks  flash_access.o
    0x08004a70   0x08004a70   0x00000084   Code   RO          209    i.main              main.o
    0x08004af4   0x08004af4   0x0000000a   Code   RO         3931    x$fpl$fpinit        fz_wm.l(fpinit.o)
    0x08004afe   0x08004afe   0x00000024   Data   RO          801    .constdata          usbd_storage_if.o
    0x08004b22   0x08004b22   0x00000010   Data   RO         3246    .constdata          system_stm32g4xx.o
    0x08004b32   0x08004b32   0x00000002   PAD
    0x08004b34   0x08004b34   0x00000020   Data   RO         4001    Region$$Table       anon$$obj.o


    Execution Region RW_IRAM1 (Exec base: 0x20000000, Load base: 0x08004b54, Size: 0x00001e58, Max: 0x00008000, ABSOLUTE, COMPRESSED[0x000000c0])

    Exec Addr    Load Addr    Size         Type   Attr      Idx    E Section Name        Object

    0x20000000   COMPRESSED   0x00000001   Data   RW          210    .data               main.o
    0x20000001   COMPRESSED   0x00000003   PAD
    0x20000004   COMPRESSED   0x00000020   Data   RW          717    .data               usbd_desc.o
    0x20000024   COMPRESSED   0x00000032   Data   RW          718    .data               usbd_desc.o
    0x20000056   COMPRESSED   0x00000002   PAD
    0x20000058   COMPRESSED   0x00000020   Data   RW          802    .data               usbd_storage_if.o
    0x20000078   COMPRESSED   0x0000000c   Data   RW         1313    .data               stm32g4xx_hal.o
    0x20000084   COMPRESSED   0x00000020   Data   RW         1766    .data               stm32g4xx_hal_flash.o
    0x200000a4   COMPRESSED   0x00000004   Data   RW         3248    .data               system_stm32g4xx.o
    0x200000a8   COMPRESSED   0x00000001   Data   RW         3429    .data               usbd_ctlreq.o
    0x200000a9   COMPRESSED   0x00000003   PAD
    0x200000ac   COMPRESSED   0x00000038   Data   RW         3563    .data               usbd_msc.o
    0x200000e4   COMPRESSED   0x0000006a   Data   RW         3564    .data               usbd_msc.o
    0x2000014e   COMPRESSED   0x00000006   Data   RW         3708    .data               usbd_msc_data.o
    0x20000154   COMPRESSED   0x00000008   Data   RW         3709    .data               usbd_msc_data.o
    0x2000015c   COMPRESSED   0x00000017   Data   RW         3710    .data               usbd_msc_data.o
    0x20000173   COMPRESSED   0x0000001b   Data   RW         3711    .data               usbd_msc_data.o
    0x2000018e   COMPRESSED   0x00000002   PAD
    0x20000190        -       0x00000028   Zero   RW          297    .bss                rtc.o
    0x200001b8        -       0x00000b6c   Zero   RW          474    .bss                usbd_conf.o
    0x20000d24        -       0x000002d0   Zero   RW          674    .bss                usb_device.o
    0x20000ff4        -       0x00000200   Zero   RW          716    .bss                usbd_desc.o
    0x200011f4        -       0x00000060   Zero   RW         3873    .bss                c_w.l(libspace.o)
    0x20001254   COMPRESSED   0x00000004   PAD
    0x20001258        -       0x00000800   Zero   RW            2    HEAP                startup_stm32g431xx.o
    0x20001a58        -       0x00000400   Zero   RW            1    STACK               startup_stm32g431xx.o


==============================================================================

Image component sizes


      Code (inc. data)   RO Data    RW Data    ZI Data      Debug   Object Name

       200         30          0          0          0     585601   board.o
       154         16          0          0          0       2726   flash_access.o
        60          6          0          0          0        935   gpio.o
       268         16          0          1          0       7880   main.o
       228         20          0          0         40       1947   rtc.o
        64         26        472          0       3072        896   startup_stm32g431xx.o
       126         20          0         12          0       3989   stm32g4xx_hal.o
       198         14          0          0          0      34151   stm32g4xx_hal_cortex.o
       332         42          0         32          0      22977   stm32g4xx_hal_flash.o
       372         28          0          0          0       4466   stm32g4xx_hal_flash_ex.o
       620         34          0          0          0       3908   stm32g4xx_hal_gpio.o
        48          6          0          0          0        966   stm32g4xx_hal_msp.o
      3000          0          0          0          0      16156   stm32g4xx_hal_pcd.o
        96          0          0          0          0       2104   stm32g4xx_hal_pcd_ex.o
        16          4          0          0          0        595   stm32g4xx_hal_pwr.o
       204         18          0          0          0       1505   stm32g4xx_hal_pwr_ex.o
      1620         64          0          0          0       5286   stm32g4xx_hal_rcc.o
       648         10          0          0          0       1980   stm32g4xx_hal_rcc_ex.o
       914         28          0          0          0       8759   stm32g4xx_hal_rtc.o
        32          6          0          0          0       5142   stm32g4xx_it.o
      2376          0          0          0          0      15084   stm32g4xx_ll_usb.o
        16          4         16          4          0       1283   system_stm32g4xx.o
        84         18          0          0        720        908   usb_device.o
       688         36          0          0       2924      22188   usbd_conf.o
       652          0          0          0          0      10611   usbd_core.o
      1264         22          0          1          0      14916   usbd_ctlreq.o
       284        100          0         82        512       6674   usbd_desc.o
       102          0          0          0          0       4124   usbd_ioreq.o
       446         16          0        162          0      10046   usbd_msc.o
       678         10          0          0          0       8081   usbd_msc_bot.o
         0          0          0         64          0       1033   usbd_msc_data.o
      2308         18          0          0          0      18031   usbd_msc_scsi.o
        70          0         36         32          0       5079   usbd_storage_if.o

    ----------------------------------------------------------------------
     18194        612        558        400       7268     830027   Object Totals
         0          0         32          0          0          0   (incl. Generated)
        26          0          2         10          0          0   (incl. Padding)

    ----------------------------------------------------------------------

      Code (inc. data)   RO Data    RW Data    ZI Data      Debug   Library Member Name

        90          0          0          0          0          0   __dczerorl2.o
         8          0          0          0          0         68   __main.o
         0          0          0          0          0          0   __rtentry.o
        12          0          0          0          0          0   __rtentry2.o
         6          0          0          0          0          0   __rtentry4.o
        52          8          0          0          0          0   __scatter.o
        28          0          0          0          0          0   __scatter_zi.o
        18          0          0          0          0         80   exit.o
         6          0          0          0          0        152   heapauxi.o
         0          0          0          0          0          0   indicate_semi.o
         2          0          0          0          0          0   libinit.o
         6          0          0          0          0          0   libinit2.o
         2          0          0          0          0          0   libshutdown.o
         2          0          0          0          0          0   libshutdown2.o
         8          4          0          0         96         68   libspace.o
        78          0          0          0          0         80   rt_memclr_w.o
       100          0          0          0          0         80   rt_memcpy_w.o
         2          0          0          0          0          0   rtexit.o
        10          0          0          0          0          0   rtexit2.o
        12          4          0          0          0         68   sys_exit.o
        74          0          0          0          0         80   sys_stackheap_outer.o
         2          0          0          0          0         68   use_no_semi.o
        10          0          0          0          0        116   fpinit.o

    ----------------------------------------------------------------------
       532         16          0          0        100        860   Library Totals
         4          0          0          0          4          0   (incl. Padding)

    ----------------------------------------------------------------------

      Code (inc. data)   RO Data    RW Data    ZI Data      Debug   Library Name

       518         16          0          0         96        744   c_w.l
        10          0          0          0          0        116   fz_wm.l

    ----------------------------------------------------------------------
       532         16          0          0        100        860   Library Totals

    ----------------------------------------------------------------------

==============================================================================


      Code (inc. data)   RO Data    RW Data    ZI Data      Debug   

     18726        628        558        400       7368     811727   Grand Totals
     18726        628        558        192       7368     811727   ELF Image Totals (compressed)
     18726        628        558        192          0          0   ROM Totals

==============================================================================

    Total RO  Size (Code + RO Data)                19284 (  18.83kB)
    Total RW  Size (RW Data + ZI Data)              7768 (   7.59kB)
    Total ROM Size (Code + RO Data + RW Data)      19476 (  19.02kB)

==============================================================================

