:020000040800F2
:10000000581E0020B90200087B2500087B2100084B
:100010007925000823040008EB48000800000000D0
:10002000000000000000000000000000093300088C
:100030002504000800000000F72800081533000818
:10004000D3020008D3020008D3020008D30200083C
:10005000D3020008D3020008D3020008D30200082C
:10006000D3020008D3020008D3020008D30200081C
:10007000D3020008D3020008D3020008D30200080C
:10008000D302000800000000D3020008D3020008D9
:100090007D480008D3020008D3020008D3020008FC
:1000A000D3020008D3020008D3020008D3020008DC
:1000B000D3020008D3020008D3020008D3020008CC
:1000C000D3020008D3020008D3020008D3020008BC
:1000D000D3020008D3020008D3020008D3020008AC
:1000E000D3020008D3020008D3020008D30200089C
:1000F000D3020008D3020008D30200080000000069
:1001000000000000D302000800000000D302000835
:10011000D302000800000000D3020008D302000848
:10012000D3020008D3020008D3020008D30200085B
:10013000D30200080000000000000000D302000805
:10014000D3020008D30200080000000000000000F5
:10015000000000000000000000000000000000009F
:10016000000000000000000000000000D3020008B2
:10017000D3020008000000000000000000000000A2
:1001800000000000D3020008000000000000000092
:10019000000000000000000000000000000000005F
:1001A0000000000000000000D3020008D302000895
:1001B000D3020008D3020008D302000800000000A8
:1001C00000000000D3020008000000000000000052
:1001D000D3020008D302000800F002F800F05CF837
:1001E0000AA090E8000C82448344AAF10107DA4592
:1001F00001D100F051F8AFF2090EBAE80F0013F088
:10020000010F18BFFB1A43F00103184728490000EB
:10021000484900000A444FF0000C10F8013B13F06D
:10022000070408BF10F8014B1D1108BF10F8015B4F
:10023000641E05D010F8016B641E01F8016BF9D142
:1002400013F0080F1EBF10F8014BAD1C0C1B09D199
:100250006D1E58BF01F801CBFAD505E014F8016B0B
:1002600001F8016B6D1EF9D59142D6D3704700009D
:100270000023002400250026103A28BF78C1FBD8AF
:10028000520728BF30C148BF0B6070471FB504F04C
:1002900031FC1FBD10B510BD00F08AF81146FFF704
:1002A000F5FF04F0E5FB00F0A8F803B4FFF7F2FF58
:1002B00003BC00F0AFF80000094880470948004738
:1002C000FEE7FEE7FEE7FEE7FEE7FEE7FEE7FEE706
:1002D000FEE7FEE704480549054A064B7047000063
:1002E0009D330008D901000858120020581E002034
:1002F000581A0020581A002010B5203AC0F00B8080
:10030000B1E81850203AA0E81850B1E81850A0E819
:100310001850BFF4F5AF5FEA027C24BFB1E8185073
:10032000A0E8185044BF18C918C0BDE810405FEAE3
:10033000827C24BF51F8043B40F8043B08BF70475F
:10034000D20728BF31F8023B48BF11F8012B28BF64
:1003500020F8023B48BF00F8012B70474FF0000225
:1003600000B5134694469646203922BFA0E80C50AB
:10037000A0E80C50B1F12001BFF4F7AF090728BF86
:10038000A0E80C5048BF0CC05DF804EB890028BF02
:1003900040F8042B08BF704748BF20F8022B11F02B
:1003A000804F18BF00F8012B7047704770477047A7
:1003B000754600F02BF8AE4605006946534620F01E
:1003C0000700854618B020B5FFF784FFBDE8204040
:1003D0004FF000064FF000074FF000084FF0000B01
:1003E00021F00701AC46ACE8C009ACE8C009ACE8B4
:1003F000C009ACE8C0098D46704710B50446AFF39C
:1004000000802046BDE81040FFF74FBF004870470E
:10041000F411002001491820ABBEFEE726000200BF
:100420007047FEE7704772B6FEE70000144A117F7E
:100430001448012901D003290FD1036823F4007364
:100440000360036843F400630360036823F40063FC
:100450000360036843F400730360022901D0032999
:100460000BD1016841F480510160016821F4805191
:100470000160016841F480610160002010777047DD
:100480008400002000200240C107054803D04169D4
:1004900041F004014161416941F48031416170479B
:1004A0000020024008494A69C0B222F4FC7242EAC4
:1004B000C0004861486940F002004861486940F462
:1004C000803048617047000000200240054910B5A7
:1004D0004C6944F001044C610260BFF36F8F4360CC
:1004E00010BD000000200240094A10B554694023A5
:1004F00044F480245461EFF3108272B610C95B1E7D
:1005000010C013F0FF03F9D182F3108810BD000072
:100510000020024070B5064600F01EFA0546134C56
:1005200007E000BF00F018FA401BB04201D90320D9
:1005300070BD2069C003F5D420694CF2FA3108403F
:100540000CD00B494A6802434A60810F01D0A1696F
:10055000A161810000D02061012070BD2069C00729
:1005600001D001202061002070BD00000020024069
:10057000840000202DE9F05F054631488946017866
:1005800001290CD00126804606704FF47A7B58462C
:10059000FFF7C0FF07004FF0000A03D04BE0022036
:1005A000BDE8F09F51464046C8F804A0254C22689B
:1005B00092050AD52168490505D5216821F4806195
:1005C0002160032109E0067708E02268520504D57E
:1005D000216821F4806121600221017728680128C7
:1005E00005D04FF0FF31C9F80010AE681CE0686814
:1005F000FFF74AFF5846FFF78DFF0746606920F076
:100600000400606115E030466968FFF74BFF58460B
:10061000FFF780FF0700606920F4FD70606102D081
:10062000C9F8006005E0761CD5E902010844B04233
:10063000E9D8FFF7FBFE88F800A03846B0E70000D5
:1006400084000020002002402DE9F0471B4D0446A5
:100650001646287898468A46012809D00120287035
:100660004FF47A794846FFF755FF002718B119E093
:100670000220BDE8F0876F6024B1012C09D0022C64
:1006800007D00CE0324643465046FFF71FFF0124D7
:100690000CE031465046FFF727FF022C04D04846B5
:1006A000FFF738FF2F70E4E74FF480244846FFF748
:1006B00031FF03494A69A2434A61F3E784000020FD
:1006C00000200240064900204A69002A07DA054A4C
:1006D0008A60054A8A604969002900DA012070476A
:1006E0000020024023016745AB89EFCD2DE9F04F93
:1006F000DFF82092002301260324A9F1040B85B022
:100700000F2709F1040AABF1040EFAE006FA03F52B
:100710002A407CD091F804C00CF0030CBCF1010F0E
:1007200002D0BCF1020F26D1D0F808C0CDF800C02D
:100730004FEA430C04FA0CF8CDF810C0DDF800C005
:100740002CEA080CCDF800C0D1F80C80DDF810C000
:1007500008FA0CF8DDF800C048EA0C08C0F8088078
:10076000D0F804C02CEA050C0D79C5F300159D40A6
:1007700045EA0C0545600D79ED43AD070ED0C5681F
:100780004FEA430804FA08FC25EA0C05D1F808C032
:100790000CFA08FC4CEA050CC0F80CC00D7905F009
:1007A0000305022D16D1DD0800EB850CCDF808C03D
:1007B000DCF820805D074FEAD56C07FA0CF528EAD3
:1007C00005080D6905FA0CF5DDF808C045EA0805CD
:1007D000CCF8205005684FEA430CCDF808C004FA65
:1007E0000CFC25EA0C0591F804C00CF00308DDF8B8
:1007F00008C008FA0CF848EA0508C0F800804D68FF
:1008000015F4403F7CD0444DD5F860C000E077E05F
:100810004CF0010CC5F860C02D6E23F0030C05F000
:10082000010500953D4D65440295AD684FEA837C16
:100830004FEA1C7807FA08FC25EA0C05B0F1904F46
:1008400006D0DFF8DCC0604505D14FF0010C20E098
:100850004FF0000C1DE0DFF8CCC0604502D14FF036
:10086000020C16E0DFF8C0C0604502D14FF0030C67
:100870000FE0DFF8B8C0604502D14FF0040C08E08B
:10088000DFF8ACC0604502D14FF0050C01E04FF03D
:10089000060C0CFA08FC4CEA050C029DC5F808C0D1
:1008A000D9F80050CC46D1F8048095435FEAC828B7
:1008B00000D51543CCF80050DAF80050D446D1F8F2
:1008C000048095435FEA882800D51543CCF8005092
:1008D000DBF80050DC46D1F8048095435FEA8838A5
:1008E00000D51543CCF80050DEF80050F446D1F89E
:1008F000048095435FEAC83800D51543CCF8005012
:100900005B1C0A6832FA03F57FF400AF05B0BDE85E
:10091000F08F000008040140001002400000014078
:100920000004004800080048000C0048001000487F
:10093000001400480069084000D001207047426957
:1009400021EA02030A4043EA0241816170470AB189
:10095000816170478162704701488068704700007C
:100960007800002002488168426811448160704725
:100970007800002010B50024032000F073F80F2049
:1009800000F008F808B1012401E000F025F8204645
:1009900010BD000070B50E4E05460024706898B179
:1009A0004FF47A71B1FBF0F00A490968B1FBF0F03D
:1009B00001F0CFFB40B9102D06D200222946501E6F
:1009C00000F030F8356000E00124204670BD0000E2
:1009D00078000020A40000200A4882B0016E41F097
:1009E00001010166016E01F001010091816D41F08C
:1009F00080518165806D00F08050009002B000F061
:100A000097BD000000100240002809DB00F01F0223
:100A1000012191404009800000F1E020C0F8001160
:100A200070470000F0B40E4B1B680C46C3F3022362
:100A3000C3F10705042D00D90425191D072901D28A
:100A4000002300E0DB1E012606FA05F1491E2140C5
:100A500099409E40761E16403143F0BC03F046BFDD
:100A60000CED00E0064900F0070208684FF6FF03AE
:100A7000184040EA0220034A104308607047000013
:100A80000CED00E00000FA0501220168C0F8E82240
:100A9000002280F8E02231F8540F40F00100088075
:100AA000088840F0020008801046704770B50F4D6E
:100AB000044669B101290AD1D4F8F00202F01AFF04
:100AC000A069002803D0286840F00600286070BDA7
:100AD000A06928B102F020FC286820F006002860F8
:100AE000D4F8F002BDE8704002F09CBE10ED00E0CA
:100AF00010B50C0607D501F0070101EB810100EBF1
:100B0000C100283005E001EB810100EBC10000F5D8
:100B1000B47099B232B1012202730181190C418182
:100B2000002010BD00220273C180F9E701EB8102B1
:100B300000EBC202D0F8F002D26B02F04FBD01EB25
:100B4000810200EBC202D0F8F002D2F87C2102F060
:100B500099BD70B504460B0601F0070000EB80015B
:100B600004EBC1014FF001024FF0000503D581F8FD
:100B70002920283103E081F8695101F5B47108702A
:100B800094F8A802012808D084F8A822206803F06D
:100B900035FB84F8A852002070BD022070BD70B5EE
:100BA000044601F00F006268904201D9012070BD37
:100BB0000B0601F0070000EB800104EBC1014FF0D0
:100BC00001024FF0000503D581F82920283103E008
:100BD00081F8695101F5B4718D70087094F8A8021C
:100BE000012808D084F8A822206803F0A6FB84F826
:100BF000A852002070BD022070BD2DE9F0470468A6
:100C00005FEA42480B788D69B4F850804FF0000CD1
:100C10004BF68F7748F2800648F68F7948F2C00A83
:100C2000444428D540F2024808EBC30834F8084091
:100C3000C4F30904A54203D32D1B8D6102D00BE040
:100C4000C1F818C0D0F800C03CF823503D4085F4EE
:100C5000005535432CF82350520609D50B7805680A
:100C600035F8232002EA090242EA0A0225F8232085
:100C700074B30A8927E040F2064808EBC30834F849
:100C80000840C4F30904A54203D32D1B8D6102D093
:100C90000BE0C1F818C0D0F800C03CF823503D402C
:100CA00085F4005535432CF82350520609D40D78AD
:100CB000036833F8252002EA090242EA0A0223F80F
:100CC00025202CB14A8949690068234603F0DFFDDD
:100CD0002046BDE8F0872DE9F047054600680C4640
:100CE0005FEA42681646D1F818C02278B0F8508002
:100CF00048F68F774CF280094FF400434FF6FF7AA5
:100D00004FF0000140447BD540F2024808EBC20896
:100D100030F80800C0F30900844514D9BCEB000C7E
:100D2000C4F818C010D0760408D5D5F800C03CF837
:100D300022603E4046EA09062CF8226094F82420FE
:100D4000012A50D04EE1A161607810B1012813D082
:100D50001AE02868B0F85030184400EBC200B0F830
:100D6000022422F4F842A0F80224B0F8022442F44B
:100D70000042A0F8022407E02868B0F85030184478
:100D800000EBC200A0F802146278286812B1012AB0
:100D900011D018E0B0F850100844217800EBC100E1
:100DA000B0F8061421F4F841A0F80614B0F80614BF
:100DB00041F4004105E0B0F850201044227800EBE7
:100DC000C200A0F8061421782846FFF7AFFE700491
:100DD000B8D521782A6832F82100384040EA090065
:100DE00022F82100FEE0626902446261E269024485
:100DF000E2612669226AB24203D33046111A04E046
:100E000038E084F824100AB110462162617811B1EB
:100E1000012923D02BE02968B1F850203E28114445
:100E2000227801EBC20101F2024106D94209C6064D
:100E300000D1521E43EA82220EE030B14208C307BD
:100E400000D0521C0AEA822206E00A8822F4F84204
:100E50000A800A8842F400420A8008E02968B1F852
:100E600050201144227801EBC201A1F8020483B2A0
:100E70002289B3E040F2064808EBC20830F80800C7
:100E8000C0F30900844514D3BCEB000CC4F818C0AF
:100E900010D0760408D4D5F800C03CF822603E405B
:100EA00046EA09062CF8226094F82420012A50D042
:100EB00098E0A161607810B1012813D01AE0286889
:100EC000B0F85030184400EBC200B0F8022422F40D
:100ED000F842A0F80224B0F8022442F40042A0F83C
:100EE000022407E02868B0F85030184400EBC20034
:100EF000A0F802146278286812B1012A11D018E013
:100F0000B0F850100844217800EBC100B0F8061486
:100F100021F4F841A0F80614B0F8061441F4004199
:100F200005E0B0F850201044227800EBC200A0F891
:100F3000061421782846FFF7F9FD700452D4227870
:100F4000296831F82200384040EA090021F82200DF
:100F500048E0626902446261E2690244E261266932
:100F6000226AB24203D33046111A216204E00AB168
:100F70001046216284F824106278296812B1012A8F
:100F800022D029E0B1F850203E281144227801EB0C
:100F9000C20101F2064106D94209C60600D1521E1D
:100FA00043EA82220EE030B14208C30700D0521C4F
:100FB0000AEA822206E00A8822F4F8420A800A88B5
:100FC00042F400420A8007E0B1F850201144227830
:100FD00001EBC201A1F80604628983B26169286845
:100FE00003F070FC2278296831F8220048F6BF73BC
:100FF000184080F0300048F28003184321F82200A6
:101000000020BDE8F0870020704701F0070101EBE8
:10101000810100EBC100D0F8840170472DE9F04157
:1010200004460F0601F0070000EB800104EBC1014C
:101030004FF001064FF0000503D581F829602831F3
:1010400003E081F8695101F5B47108700A61CB7051
:101050004A7802B1C881022B00D10D7194F8A80220
:10106000012809D084F8A862206802F093FF28467E
:1010700084F8A852BDE8F0810220FBE770B50C4669
:1010800001F0070505EB850100EBC101C1E95F2314
:101090000022C1F8842181F8692181F8685101F5A5
:1010A000B4716207006803F09DF9002070BD70B54F
:1010B000044601F007006268904201D9012070BD2A
:1010C0000B064FF000054FF0010207D500EB800141
:1010D00004EBC10181F82920283107E001EB8101EF
:1010E00004EBC10181F8695101F5B4718A7008708F
:1010F00094F8A802012808D084F8A822206803F0F8
:1011000058F984F8A852002070BD022070BD70B557
:101110000C4601F0070505EB850100EBC101C1E9B3
:101120000F23012281F84C208B6400234B6481F84B
:10113000292001F8285F6207006803F053F90020B6
:1011400070BD10B50446006803F09EFB010404D591
:101150002046BDE8104001F011BA41050ED52068C7
:1011600030F8441F21F480610180204600F014F91A
:101170002046BDE81040002100F03AB9410405D5F1
:10118000206830F8441F21F480417DE0810405D5BA
:10119000206830F8441F21F4005175E0C1041FD5C8
:1011A000206830F8401F21F004010180206830F8E9
:1011B000401F21F00801018094F8E002012806D1C7
:1011C000002084F8E00201462046FFF76FFC20462D
:1011D00000F0F6F8206830F8441F21F4805153E005
:1011E000010512D5206830F8401F41F00801018048
:1011F000206830F8441F21F400610180206830F835
:10120000401F41F0040101800AE0010629D5206851
:1012100030F8441F21F08001018094F8E00218B1F9
:10122000204600F015F910BD206830F8401F41F04D
:1012300004010180206830F8401F41F0080101805E
:10124000012084F8E0022068B0F854003C2101EA53
:101250009000C4F8E4022046BDE810400121FFF7E9
:1012600025BC810509D5206830F8441F21F40071A0
:101270000180204600F0B8F810BDC005FCD52068FC
:1012800030F8441F21F48071018010BD70B586B024
:10129000040004D094F8A902002518B107E0012049
:1012A00006B070BD84F8A852204600F049F803202B
:1012B00084F8A902206803F038F8002001260EE027
:1012C00000EB800104EBC10181F8296001F8280FCF
:1012D000C881CD700D614D61401CC0B28D616168E7
:1012E0008142EDD8002011E000EB800104EBC10148
:1012F00081F8695181F8680181F86B51C1F8785122
:10130000C1F87C51401CC0B2C1F880516168814273
:10131000EAD8142204F110016846FEF7EDFF94E8C4
:101320000F0002F0F9FF84F8245084F8A962E06904
:10133000012802D12046FFF7A7FB0020B0E70000FC
:1013400010B592B0044644216846FFF707F81049EB
:10135000206888421AD14014009080030D9068469E
:1013600000F0F6F808B1FFF75EF80A48816D41F425
:1013700000018165806D002200F40000119011468B
:101380001420FFF74FFB1420FFF73EFB12B010BDF7
:10139000005C00400010024070B5044680680125E2
:1013A000022801D0FFF73FF82946D4F8F00202F0F6
:1013B00053FAD4F8F002BDE8704002F006BA00001B
:1013C00010B50446806930B10648016821F0060175
:1013D000016001F0A1FFD4F8F002BDE8104002F076
:1013E00021BA000010ED00E0D0F8F00202F024BABB
:1013F00010B5044690F8A80201280BD0012084F80B
:10140000A80284F82410206803F055FA002084F81C
:10141000A80210BD022010BDD0F8F02200F52C71FA
:10142000104602F025BA10B5044690F8A80201282B
:101430000CD0012084F8A802206803F016FA206876
:1014400002F063FF002084F8A80210BD022010BD46
:1014500010B50446D0F8F00202F04CFAA06900285A
:1014600004D00348016841F00601016010BD00008E
:1014700010ED00E02B492C4B0A6832214A432B49DE
:1014800040B1B0F5007F086829D020F4C06040F476
:1014900080602CE00868C0F34120022804D051F895
:1014A000800F20F4807022E0D1F8800020F480705A
:1014B000C1F88000086820F4C06040F40070086043
:1014C000B2FBF3F0401C00E0401E4A69520501D512
:1014D0000028F9D1486940050AD503207047C0F3B8
:1014E0004120022806D051F8800F40F48070086037
:1014F00000207047D1F8800040F48070C1F880006F
:10150000086820F4C06040F400700860B2FBF3F09B
:10151000401C00E0401E4A695205DBD50028F9D185
:10152000D8E70000A400002040420F0000700040F7
:101530000248816841F4804181607047007000403A
:101540000248016841F480710160704700700040FA
:101550002DE9F8430446006800269D4D00035ED542
:10156000A86D0027C00008D4A86D40F08050A86581
:10157000A86D012700F080500090DFF85892D9F84C
:10158000001041F48071C9F80010FFF7E5F98046BA
:1015900006E000BFFFF7E0F9A0EB080002282BD817
:1015A000D9F80000C005F5D5D5F8900010F44070CA
:1015B00014D0216C814211D0D5F89000D5F890104C
:1015C00020F4407041F48031C5F89010D5F89010A7
:1015D00021F48031C5F89010C5F89000C00711D0F3
:1015E000FFF7BAF9804641F2883907E0FFF7B4F90E
:1015F000A0EB0801494501D903260BE0D5F890007E
:101600008007F3D5D5F89000216C20F44070084392
:10161000C5F890001FB1A86D20F08050A865207813
:10162000C00707D0D5F88800616820F003000843A0
:10163000C5F888002078800707D5D5F88800A1680C
:1016400020F00C000843C5F888002078400707D533
:10165000D5F88800E16820F030000843C5F888001C
:101660002078000707D5D5F88800216920F0C00050
:101670000843C5F888002078800607D5D5F888008B
:10168000616920F440600843C5F88800207840066E
:1016900007D5D5F88800A16920F440500843C5F863
:1016A00088002078000607D5D5F88800E16920F485
:1016B00040400843C5F888002088C00507D5D5F804
:1016C0008800216A20F440300843C5F8880020884B
:1016D000800507D5D5F88800616A20F440200843CA
:1016E000C5F88800208840050FD5D5F88800A16A84
:1016F00020F440100843C5F88800A06AB0F5801FA8
:1017000003D1E86840F48010E860208800050FD518
:10171000D5F88800E16A20F440000843C5F8880045
:10172000E06AB0F5800F03D1E86840F48010E8600B
:101730002088C0040FD5D5F88800216B20F04070B8
:101740000843C5F88800206BB0F1807F03D1E868BA
:1017500040F48010E86020884FF0006180040ED5CE
:10176000D5F88800626B20F040601043C5F888000F
:10177000606B884203D1E86840F48010E8602088FC
:1017800040040ED5D5F88800A26B20F040601043CD
:10179000C5F88800A06B884203D1E86840F4801047
:1017A000E860208800040FD5D5F88800E16B20F0B0
:1017B00040500843C5F88800E06BB0F1805F03D16A
:1017C000E86840F48030E8603046BDE8F883000007
:1017D00000100240007000402DE9F0470E46050061
:1017E0004FF0000725D0DFF8AC81D8F8000000F0FA
:1017F0000F00B0420CD2D8F8001021F00F01314395
:10180000C8F80010D8F8000000F00F00B04210D166
:101810002968614CC80741F2883A5AD06868DFF8F5
:101820007C91032808D0022820682DD0400500288C
:101830002CDB0120BDE8F08720688001F9D5E06845
:1018400000F00302E068C0F30310401C032A19D023
:10185000534A00BFB2FBF0F0E268C2F306225043E5
:10186000E268C2F34162521C5200B0FBF2F04845FC
:1018700017D9A06810F0F00F0CD0880711D5A86810
:1018800040B10EE0474AE5E78003D0E700F092F868
:10189000484506D9A06820F0F00040F08000A06024
:1018A0008027A068696820F003000843A060FFF764
:1018B00053F8814606E000BFFFF74EF8A0EB0901A0
:1018C00051453AD8A068696800F00C00B0EB810F70
:1018D000F2D12868810714D5400703D5A06840F4E9
:1018E000E060A0602878000705D5A06820F460506B
:1018F00040F4E060A060A068A96820F0F000084310
:1019000004E0802F03D1A06820F0F000A060D8F898
:101910000010404601F00F01B14216D9016821F0D4
:101920000F0131430160FFF717F8074607E000BFDA
:10193000FFF712F8C11B514501D903207AE7D8F807
:10194000000000F00F00B042F2D12878400705D522
:10195000A068E96820F4E0600843A06028780007E8
:1019600006D5A068296920F4605040EAC100A06053
:1019700000F020F8A1680C4AC1F30311515C01F09A
:101980001F01C8400949086009480068BDE8F047E0
:10199000FFF700B8002002400010024000B4C40469
:1019A0000024F40000127A00224B0008A40000205A
:1019B00078000020184910B58868C0F381021748E4
:1019C000012A0BD08A684310C2F38102022A06D092
:1019D0008A68C2F38102032A03D0002010BD184692
:1019E00010BDCA6802F00304CA68C2F30312521C95
:1019F000032C02D0B0FBF2F001E0B3FBF2F0CA68B6
:101A0000C968C2F306225043C1F34161491C490031
:101A1000B0FBF1F010BD0000001002400024F40003
:101A20002DE9F84304007AD02078FA4DC00747D05A
:101A3000A868E96800F00C0001F003010C2802D04E
:101A4000082817D001E0032914D06068B0F5803F62
:101A500017D0B0F5A02F286817D020F48030286068
:101A6000286820F4802028606068E0B1FEF774FFE9
:101A7000064614E02868800322D560680028D2D08A
:101A80001EE0286840F48030EDE740F480202860B4
:101A9000F7E700BFFEF760FF801B642870D8286856
:101AA0008003F7D50CE0FEF757FF064605E000BFC0
:101AB000FEF752FF801B6428F0D828688003F7D413
:101AC000207880074CD5A868E96800F00C0001F088
:101AD00003010C2802D004280DD001E002290AD00D
:101AE000E068002828682BD040F480702860FEF75A
:101AF00033FF064619E02868400502D5E068002853
:101B000091D06868217C20F0FE4040EA0160686066
:101B1000C1480068FEF73EFF002800D120E076E1D2
:101B2000FEF71AFF801B0228B8D828684005F7D5B1
:101B30006868217C20F0FE4040EA016068600FE0A8
:101B400020F480702860FEF707FF064605E000BF1E
:101B5000FEF702FF801B0228A0D828684005F7D4B2
:101B60002078000729D560690028D5F8940013D0A3
:101B700040F00100C5F89400FEF7EEFE064606E0D0
:101B800090E000BFFEF7E8FE801B022886D8D5F85B
:101B900094008007F6D510E020F00100C5F894000D
:101BA000FEF7DAFE064604E0FEF7D6FE801B0228AA
:101BB00078D8D5F894008007F6D42078400761D50E
:101BC000A86D0026C00008D4A86D40F08050A8651C
:101BD000A86D012600F08050009090480168C9056A
:101BE00011D40168804641F480710160FEF7B4FEB3
:101BF000074604E0FEF7B0FEC01B022852D8D8F812
:101C00000000C005F6D5A068012815D00528D5F834
:101C1000900016D020F00100C5F89000D5F8900093
:101C200020F00400C5F89000A06841F28838B8B1EF
:101C3000FEF792FE07460EE0D5F8900040F0010056
:101C4000F0E740F00400C5F89000F5E7FEF784FEE9
:101C5000C11B414526D8D5F890008007F6D50CE089
:101C6000FEF77AFE074604E0FEF776FEC11B41450B
:101C700018D8D5F890008007F6D41EB1A86D20F0D2
:101C80008050A8652078800629D5A0690028D5F85D
:101C9000980013D040F00100C5F89800FEF75CFEF4
:101CA000064606E077E000BFFEF756FE801B0228DE
:101CB00077D8D5F898008007F6D510E020F001001D
:101CC000C5F89800FEF748FE064604E0FEF744FE1D
:101CD000801B022865D8D5F898008007F6D4E06903
:101CE000F0B3A968C1F38101032961D002282868F3
:101CF00020F0807028600BD0E86820F00300E860D6
:101D0000E86847490840E860FEF726FE04464BE0D5
:101D1000FEF722FE064604E0FEF71EFE801B0228A8
:101D20003FD828688001F7D4F4E908016FF00F026A
:101D300002EB01110843218A5204490802EB415188
:101D4000A26841EA02210843217D4FF07E42490802
:101D500002EB41610843217B40EAC160E96800E091
:101D600062E0304A11400843E860286840F0807023
:101D70002860E86840F08070E860FEF7EDFD0446FA
:101D800005E000BFFEF7E8FD001B022809D828681F
:101D90008001F7D548E004E0FEF7DEFD001B0228D5
:101DA00002D90320BDE8F88328688001F4D43BE021
:101DB0000128F7D0E868226A00F00301914226D199
:101DC000616A00F0F0020901103991421FD1A26A44
:101DD00000F4FE41B1EB022F19D194F82C2000F051
:101DE0007841B1EBC26F12D1218E00F4C0024908D4
:101DF0004905A1F50011914209D194F8341000F081
:101E0000C06049084906A1F1007181420CD001204F
:101E1000C8E7000000100240780000200070004079
:101E2000FFFFEEFE0C809F010020BBE710B50068AD
:101E30000B4641680D480140080CD870C1F30424DA
:101E40005C7001F03F049C70C1F34231197052B9CB
:101E500000F052FDD870587800F04EFD5870987818
:101E600000F04AFD9870002010BD00003FFFFF0009
:101E700010B50B4601688968596001680969C1F3AA
:101E80000E019960006801680D480140C1F30540EA
:101E90001870C1F306245C7001F07F049C70890DFA
:101EA000D97052B900F028FD1870587800F024FD60
:101EB0005870987800F020FD9870002010BD000048
:101EC0007F7F7F0070B504004FF0010040D094F890
:101ED000250028B9002084F82400204600F03CF8B2
:101EE000022084F825002168CA2048622168532016
:101EF0004862204600F016FD10BB20688169154A33
:101F000011408161216888696268A3691043226970
:101F10001A43104388612189E06840EA0140216842
:101F20000861204600F023FD50B9D4E90721114390
:101F300022686369956925F060452B4319439161D7
:101F40002268FF215162002802D1012184F8251066
:101F500070BD0000BFFF8FFB10B592B00446442156
:101F60006846FEF7FBF910492068884219D14FF402
:101F700000200090C01210906846FFF7E9FA08B1FF
:101F8000FEF751FA094850F8901F41F4004140F81B
:101F90003819016841F480610160006800F48060D4
:101FA000119012B010BD0000002800400010024047
:101FB00070B5044690F824000B4601281BD001267A
:101FC00084F82460022084F82500B2B19878D9788A
:101FD00040EA014558781978000240EA413005434B
:101FE0002168CA204862216853204862204600F0D8
:101FF00099FCD0B120E0022070BD5878C10603D50D
:1020000000F0EF000A305870D87800F07EFC05042C
:10201000587800F07AFC45EA0025987800F075FCC5
:102020000543187845EA4035DAE708480540206856
:102030004560204600F09BFC2268FF21516208B9F0
:1020400084F82560002184F8241070BD3FFFFF0054
:102050002DE9F041044690F8240090460D460128F1
:1020600011D0012784F82470022084F8250021680B
:10207000CA204862216853204862204600F052FC82
:10208000002618B129E00220BDE8F0812068B8F1EF
:10209000000F80694FEA406024D0002800DBEE701A
:1020A000A8782978EA7840EA01406978090241EA8B
:1020B00082510843184908402168086020688169F6
:1020C00021F480218161D5E90301084321688A69EF
:1020D00010438861204600F04AFC2268FF215162CB
:1020E000A0B115E0002800DBEE70287800F00DFCB0
:1020F0000304687800F009FC43EA0023A87800F0A4
:1021000004FC0343E87843EA8050D3E784F8257061
:1021100084F82460B8E700007F7F7F0070B5044634
:102120000068C16821F02001C160FEF715FC05467A
:102130004FF47A7607E000BFFEF70EFC401BB0427A
:1021400001D9032070BD2068C0688006F4D5002046
:1021500070BD10B5401EB0F1807F01D3012010BDCD
:102160004FF0E02460610F21601702F0BFFB0020F8
:10217000A06107202061002010BDFEE7F0B500231C
:102180000A24302537261F4611E000BFB4EB107F2C
:1021900002D905EB107C01E006EB107C01F813C0BE
:1021A00001EB430C00015B1C8CF80170DBB2934225
:1021B000ECD3F0BD70B5D0F8BC420546002C1CD065
:1021C00094F81C0840B9D4F8180828B1607A18B9F6
:1021D0000121284601F07CFB8121284601F078FB93
:1021E000607A022809D18121284601F071FB284636
:1021F000BDE87040012101F06BBB70BD70B5D0F837
:10220000BC420546002C5FD0D4F81408C4F834084A
:10221000D4F81808C4F838080121284601F071FAEA
:102220001F280DD12949D4F81008884208D194F804
:102230001D18012904D894F81E0808B1102809D9DE
:1022400094F81D1820230522284600F009FF0220DB
:10225000607209E004F61F02284600F0FDFB00282A
:10226000207A08DA052804D02846BDE87040FFF738
:10227000A1BF012123E0022826D0012824D0032871
:1022800022D0E668D6B1D5F8BC12284604F1100277
:10229000D1F81838B34200D33346002914D0D1F80E
:1022A0003848A41BC1F83848002481F83C4804246D
:1022B0000C72BDE87040812101F025BB0021284649
:1022C000BDE8704000F0AAB870BD0000555342430D
:1022D00010B5D0F8BC220446002A16D0507A022845
:1022E00009D0090611D501280FD02046BDE81040BD
:1022F000012100F093B88121204601F0E9FA20463F
:10230000BDE81040012101F0E3BA10BD10B5D0F8CE
:10231000BC220446002A17D0107A022805D00328D0
:1023200001D0042810D1002109E092F81D182046A0
:1023300002F61F0200F090FB002805DA012120467A
:10234000BDE8104000F06AB810BD10B5D0F8BC224E
:102350000446002A17D0107A80B1012813D192F8D0
:102360001D18204602F61F0200F076FB00280ADA4C
:102370002046BDE81040012100F050B82046BDE8DD
:102380001040FFF73BBF10BDD0F8BC02002801D0C1
:1023900000210172704770B5D0F8BC420546002C90
:1023A0001ED000212172617284F8611884F86018CF
:1023B00084F86218D5F8C00201680020884701211E
:1023C000284601F095F98121284601F091F904F59C
:1023D00001622846BDE870401F23012101F0ECB9DD
:1023E00070BD70B5D0F8BC420546002C14D000205A
:1023F0002072012060728121284601F0DDF8012160
:10240000284601F0D9F804F501622846BDE870407D
:102410001F23012101F0D0B970BD000070B5D0F8C4
:10242000BC420546002C16D00B48C4F8300884F88E
:102430003C18002020720D2304F5036281212846F8
:1024400001F061FA04F501622846BDE870401F23DF
:10245000012101F0B1B970BD555342530D4808B583
:10246000C16C41F00401C164C16C01F00401009130
:10247000C16C41F02001C164C16C01F020010091E8
:10248000C16C41F00101C164C06C00F0010000901A
:1024900008BD00000010024010B586B01421684647
:1024A000FDF75CFF1E4800241C490594C0E9001498
:1024B0007F218160FF21C0E903144FF08041446116
:1024C000C0E906410462FFF7FDFC08B1FDF7ABFF70
:1024D0008DF800408DF801408DF80240019403947E
:1024E000012269460E480494FFF7B2FD08B1FDF7DA
:1024F0009AFF01208DF814008DF815008DF8160054
:1025000002468DF8174005A90548FFF751FD002840
:1025100001D0FDF788FF06B010BD00000028004084
:102520009001002010B500220F49104801F031F849
:1025300008B1FDF778FF0E490C4801F057FB08B1D0
:10254000FDF771FF0B49094801F0ACFA08B1FDF73E
:102550006AFF064801F0C4FB002803D0BDE8104024
:10256000FDF761BF10BD000004000020240D002015
:10257000AC00002058000020FEE7FEE72DE9F84FF0
:10258000044640F68F7A40F2064B48F60F784FF03B
:102590000009A7E1B0F8441011F00F0539D030F868
:1025A000256031047ED530F8251001EA0A0141F09A
:1025B000800120F8251005EB850004EBC00797F893
:1025C000740107F5B47700286DD0F87802286BD035
:1025D0003A78216831F8220048F68F73184048F2A3
:1025E000C003184321F822003978206830F82120F0
:1025F0005204B0F8502002EB00037DD540F20242B5
:1026000002EBC101595A8905890D009175D03A89AB
:10261000C7E0C9062CD4018801EA080141F4004151
:102620000180206804F12805B0F850102A78014490
:1026300040F2024000EBC200085AC0F30900606497
:10264000E16B0144E16300212046FEF76FFA94F844
:10265000240000289DD0A86900289AD194F824006D
:1026600040F080012068A0F84C1084F8249039E1F3
:10267000018804F5B4750A051ED5B0F850102A7803
:1026800001440BEBC200085A04F52C71C0F3090396
:10269000EB61EA88206802F0FAF82168088800EA0D
:1026A0000A0002E098E05FE06CE040F08000088003
:1026B0002046FEF7B1FE15E10904D8D5018801EAEC
:1026C0000A0141F0800101802068B0F850102A789A
:1026D00001440BEBC200085A83059B0DEB6110D03F
:1026E000696971B1EA88206802F0D1F8E96968691E
:1026F00008440021686101E04BE049E02046FEF714
:102700001EFA206801880905B1D4B0F850100844B9
:10271000296900F206403E2908D94A09C90600D1B4
:10272000521E4FF4004141EA822108E0A1B14A085B
:10273000C90700D0521C4FF6FF7101EA82210180C7
:10274000216808884BF68F72104080F4405048F2A0
:10275000800210430880C5E0018821F4F84101801F
:10276000018841F40041EAE72068B0F850103B7856
:102770000A180BEBC301515A8905890D009114D039
:10278000FA880EE0324639462046FEF736FA0090C7
:102790000BE00BEBC101595A8905890D009104D05A
:1027A0007A897969009B02F072F8F9690098084407
:1027B000F8617969009808447861B86918B1396995
:1027C0000098814204D939782046FEF7B8F903E031
:1027D0003946206801F006FE300677D505EB850006
:1027E00004EBC001206830F8252002EA080242F418
:1027F000004220F8252091F82B002831022848D0EB
:10280000C1F81890087B4A4608B3700620D548786E
:1028100010B1012812D03AE02068B0F850201044DE
:102820000A7800EBC200B0F8022422F4F842A0F8C3
:102830000224B0F8022442F4004206E02068B0F816
:10284000503018440B7800EBC300A0F802241EE0BF
:102850004B78206813B1012B11D018E0B0F850204C
:1028600010440A7800EBC200B0F8062422F4F842C3
:10287000A0F80624B0F8062442F4004205E0B0F8BF
:10288000503018440B7800EBC300A0F806240978F8
:1028900020E0F00522D42068B0F850200B781044D6
:1028A00040F2024202EBC302805A8A69C0F3090077
:1028B00082420CD9121A8A610BD04A6902444A61D9
:1028C000CA691044C861206801F08CFD0AE0C1F8B3
:1028D0001890D9B22046FEF729F903E03246204687
:1028E000FEF7F9F92068B0F8441009043FF552AE3C
:1028F0000020BDE8F88F7047010901EB810100F06D
:102900000F0000EB4100C0B270470022014602E018
:102910000A39C9B2521C0A29FAD2100741EA1060DA
:10292000704700002DE9F041044600680025C168A9
:10293000490619D4C16841F08001C160FEF70CF866
:1029400006464FF47A78032708E000BFFEF704F844
:10295000801B404502D9032584F825702068C06893
:10296000400601D4032DF1D12846BDE8F08170B5B1
:10297000044600680025C16821F08001C16020681C
:1029800081694FF00306890607D42046FFF7C6FB8E
:1029900098B184F8256003250FE0816921F02001BA
:1029A00081612046FFF7BAFB10B184F8256003254A
:1029B0002068816941F020018161284670BD30B5F1
:1029C000D0F8BC424FF0FF3544B11A44D4F868380F
:1029D0009A4205D92123052200F042FB284630BD4A
:1029E000002030BD70B50446D0F8BC0213464FF04D
:1029F000FF3580B1D0F818287AB15A78D20716D0AE
:102A0000997871B180290FD090F81D1824230522E0
:102A1000204600F025FB284670BD90F81D182023A5
:102A2000F5E706220A490FE008220A490CE0D4F82B
:102A3000C02201EBC1011B79D26902EB81010A7945
:102A4000521D934200D81A4600F05BFB002070BD77
:102A50004E010020540100202DE9F041D0F8BC5275
:102A60004FF0FF3655B3137802270024252B70D082
:102A70000FDC1A2B53D005DC0BB3032B23D0122B06
:102A800017D124E01B2B26D01E2B3FD0232B10D197
:102A90005BE05A2B4ED006DC282B62D02A2B68D064
:102AA0002F2B06D16DE09E2B57D0A82B5DD0AA2BE3
:102AB00063D02023052200F0D3FA6F7220E0BDE836
:102AC000F04100F0EFBABDE8F04100F089BABDE88E
:102AD000F041FFF787BF95F86238012B04D11379D5
:102AE00003F00303022B4FD0107900F003010129FA
:102AF00012D0022907D0C04380070DD0EC6017E048
:102B00003046BDE8F08185F86278F7E7107918B1B2
:102B1000012085F86208F1E785F86248EEE712794E
:102B200017212846172A00D811460A461E4909E0EF
:102B30002046E6E7127A1B2128461B2A00D81146B8
:102B40000A461A4900F0DDFAF2E7BDE8F04100F06C
:102B500008BABDE8F04100F07CB9BDE8F04100F0F2
:102B6000AFB9BDE8F04100F0C3B8BDE8F04100F0F6
:102B700015B9BDE8F04100F0D4BABDE8F04100F06D
:102B800034BB5278920704D52423052200F068FA5A
:102B9000B6E705F66C020CCAFFF711FF0028AFDBA1
:102BA0002046EC60ADE700005C01002073010020CE
:102BB0002DE9F047D0F8BC4206468846B4F86408D0
:102BC000D4F870584FF0FF374543D4B14FF400614B
:102BD0008D4200D30D46B5FBF0F083B2D6F8C002AB
:102BE00004F11001D4F86C28D0F810C08946404692
:102BF000E047002808DA112304224146304600F05D
:102C00002FFA3846BDE8F0872B464A4681213046E8
:102C100000F079FEB4F86408D4F86C28B5FBF0F144
:102C2000B5FBF0F01144C4F86C18D4F87018081A09
:102C3000C4F87008D4F83818A1EB0501C4F83818A6
:102C400001D1032020720020DCE72DE9F047D0F805
:102C5000BC4206468946B4F86408D4F870584FF070
:102C6000FF384543D4B14FF40067BD4200D33D4621
:102C7000B5FBF0F083B2D6F8C00204F11001D4F82D
:102C80006C28D0F814C08A464846E047002808DA85
:102C9000032304224946304600F0E2F94046BDE8ED
:102CA000F087B4F86408D4F86C28B5FBF0F111444F
:102CB000C4F86C18B5FBF0F1D4F87028531AC4F8B6
:102CC0007038D4F83818A1EB0501C4F838180AD0C8
:102CD0004343BB4200D33B4652460121304600F0FD
:102CE0006BFD0020DBE700213046FFF797FBF8E79C
:102CF0002DE9F041D0F8BC421546064688464FF013
:102D0000FF3774B3207A78BB94F81C08000635D5D9
:102D100094F86208022809D0D6F8C00281684046BB
:102D2000884748B13A230222414601E03A23022271
:102D3000304600F095F914E06888297940BA00041B
:102D400040EA0122687941460243C4F86C28B5F88C
:102D5000070043BA3046C4F87038FFF730FE002849
:102D600003DA3846BDE8F0810FE0B4F86418D4F80F
:102D700070084843D4F81818884204D0202394F8E7
:102D80001D180522D4E7022020724FF40060E06095
:102D900041463046BDE8F041FFF70ABF2DE9F0415A
:102DA000D0F8BC421546064688464FF0FF379CB324
:102DB000207AA0BB94F81C0800063AD594F8620863
:102DC000022809D0D6F8C00281684046884748B139
:102DD0003A230222414601E03A230222304600F023
:102DE0003FF919E06888297940BA000440EA0122D5
:102DF00068790243C4F86C28E888297A40BA00044C
:102E000040EA0123687A414603433046C4F87038EB
:102E1000FFF7D5FD002803DA3846BDE8F0810FE062
:102E2000B4F86418D4F870084843D4F818188842E5
:102E300004D0202394F81D180522CFE70220207229
:102E40004FF40060E06041463046BDE8F041FFF7D6
:102E5000AFBE2DE9F041D0F8BC420F4605464FF019
:102E6000FF364CB1D5F8C00204F66402111D436868
:102E700038469847E8B902E03046BDE8F08194F85A
:102E80006208022815D0D4F86808401E010E21748B
:102E9000010C6174010AA174E07400202075607552
:102EA000B4F86408010AA175E0750820E06000200C
:102EB000E3E73A2302223946284600F0D1F8DBE75F
:102EC0002DE9F041D0F8BC421546884606464FF041
:102ED000FF374CB1D6F8C00204F66402111D4368F6
:102EE0004046984798B902E03846BDE8F08194F82A
:102EF000620802280BD06889297B40BA000440EAA6
:102F00000120697B0843E060002001460AE03A2383
:102F100002224146304600F0A3F8E5E72218401CA3
:102F20001174C0B2E2688242F8D8D4F86808401E32
:102F3000020E2275020C6275020AA275E0752176F6
:102F40006176B4F86408010AA176E0766889297B85
:102F500040BA000440EA0120697B0843E060002099
:102F6000C3E72DE9FC41D0F8BC420F4605464FF0BF
:102F7000FF3644B1D5F8C0026A4601A94368384615
:102F8000984730BB02E03046BDE8FC8194F8620807
:102F900002281ED0002001462218401C80B2117465
:102FA0000C28F9D30820E0740198401E020E227507
:102FB000020C6275020AA275E07502202076617625
:102FC000BDF80000010AA176E0760C20E060002048
:102FD000DAE73A2302223946284600F041F8D2E7E0
:102FE00030B5D0F8BC124FF0FF3431B3D1F81838F7
:102FF0002BB3002004460B18401CC0B21C741228CE
:10300000F9D3702008740C20C87591F8600891F805
:10301000613898421CD001EBC003401C93F8405823
:103020008D7493F844580D7793F84538C0B24B77B8
:1030300081F86008042809D00AE0204630BD91F8E4
:103040001D182023052200F00BF8F6E781F86048F0
:103050001220C8601079122800D8C860002030BD46
:10306000D0F8BC0200281CD090F8611800EBC10118
:1030700081F8402890F8611800EBC10181F84438CC
:1030800090F86128002100EBC20282F8451890F800
:103090006128521CD2B280F86128042A01D180F83C
:1030A000611870472DE9F041D0F8BC4288460546CA
:1030B0004FF0FF37E4B1D4F8180838B194F81D1870
:1030C000202305222846FFF7CBFF11E094F8620881
:1030D000052602280FD0D5F8C002816840468847EF
:1030E00060B13A23022241462846FFF7B9FF267213
:1030F0003846BDE8F0813A230222F5E70020E0607F
:10310000F7E710B508B1C26007E04FF0FF3010BD1F
:10311000521E92B284188B5C2374002AF8D10020CE
:1031200010BD2DE9F041D0F8BC4215460646884650
:103130004FF0FF37C4B3207A20B13046BDE8F041EC
:10314000FFF783BDD4F8180888B394F81C0800066C
:1031500037D4D6F8C00281684046884728B13A2360
:103160000AE03046FFF77CFF1EE0D6F8C002C168D7
:103170004046884718B1272302224146F1E7688874
:10318000297940BA000440EA0122687941460243A5
:10319000C4F86C28B5F8070043BA3046C4F8703854
:1031A000FFF70DFC002803DA3846BDE8F08108E09F
:1031B000B4F86408D4F870384343D4F81808984237
:1031C00004D0202394F81D180522CAE74FF40060AC
:1031D000834200D3034601202072014604F110020D
:1031E000304600F0E9FA0020DFE72DE9F047D0F89B
:1031F000BC421546064689464FF0FF385CB3207A3C
:1032000020B13046BDE8F047FFF71FBDD4F81808DD
:1032100018B194F81C08000607D594F81D1820234F
:1032200005223046FFF71CFF30E0D6F8C002816867
:1032300048468847052708B13A2306E0D6F8C00279
:10324000C1684846884738B127230222494630469C
:10325000FFF706FF277219E06888297940BA000451
:1032600040EA012268790243C4F86C28E888297A88
:1032700040BA000440EA0123687A494603433046D5
:10328000C4F87038FFF79BFB002802DA4046BDE81F
:10329000F087B4F86408D4F870384343D4F81808B9
:1032A0009842BAD14FF40060834200D30346012014
:1032B0002072014604F11002304600F07DFA002031
:1032C000E5E710200860C001108000207047002052
:1032D000704710B501F07EFB002010BD0020704744
:1032E00000207047084610B5D1024FF4006201F08B
:1032F00077FB002010BD084610B5D1024FF40062E4
:1033000001F082FB002010BD70470178407841EA4F
:1033100000207047FDF726BB10B594B038216846F1
:10332000FDF71CF814210EA8FDF718F84FF40070F3
:10333000FEF7A0F8FEF704F9174850F8901F21F0A7
:1033400018010160052000904FF4803001900120A9
:10335000029002200324CDE907044821CDE90901A8
:103360000621CDE90B010D906846FEF759FB08B127
:1033700072B6FEE70F20CDE90E04002010901190E8
:10338000129004210EA8FEF727FA002801D072B689
:10339000FEE714B010BD00000010024002480168B2
:1033A00041F470010160704788ED00E010B5D0F87D
:1033B000B8220AB152689047002010BD134610B5DC
:1033C0000A46002100F0F8F9002010BD134610B5A0
:1033D0000A46002100F097FA002010BD10B50446FF
:1033E000802100F075FA2046BDE81040002100F071
:1033F0006FBA10B50521C0F8941200231A46194679
:1034000000F0DAF9002010BD10B50223C0F89432A4
:1034100082611346C2610A46002100F074FA00205E
:1034200010BD10B50421C0F8941200231A461946A5
:1034300000F069FA002010BDF8B504460020ADF890
:10344000000048880D46010A062947D006DC0129FC
:103450000FD0022912D0032962D11DE0072946D0DE
:103460000F295DD1D4F8B402C26920E069469047C3
:103470003BE0D4F8B412207C0A68F7E7207C0226EF
:103480000028D4F8B80205D0C16A684688470146CA
:10349000467036E0816AF8E7C0B2062840D2DFE81D
:1034A00000F003090D111519D4F8B4024268B2B343
:1034B000207CDBE7D4F8B4028268F8E7D4F8B402E1
:1034C000C268F4E7D4F8B4020269F0E7D4F8B402B1
:1034D0004269ECE7D4F8B4028269E8E7207CF0B9ED
:1034E000D4F8B802416B68468847014609E0207C61
:1034F000A8B9D4F8B802016B68468847014607208E
:103500004870EA888AB1BDF8000040B1824200D913
:103510000246ADF800202046FFF776FFF8BDFFE732
:1035200029462046FFF75AFFF8E72046FFF779FFC4
:10353000F4E770B5002300281ED00025044602E001
:103540006D1CEDB2641C2678002EF9D1022404EB28
:10355000450414801278CA545B1C0322CA54002408
:103560005B1C06E0CA545B1CDAB28C54521CD3B20A
:10357000401C0278002AF5D170BD01004FF0000018
:1035800004D0012901D0022901D003207047012075
:10359000704778B10023C0F8B832C0F8C032C0F824
:1035A000CC3209B1C0F8B412012180F89C1202702B
:1035B00000F0ACB80320704710B5D0F8C402FDF796
:1035C000EEFABDE81040FFF7D8BF10B5D0F8C4023E
:1035D000FDF7BFFABDE81040FFF7CFBF70B5164644
:1035E000044621B194F89C02032841D048E0D4F865
:1035F000941204F114000025022932D1D0E90231DD
:103600008B4206D95A1A826031462046FFF7DEFE09
:103610000FE0994214D14068884211D3D4F898122F
:1036200088420DD2002211462046FFF7CFFEC4F893
:10363000985200231A461946204600F0BDF810E0C3
:1036400094F89C02032805D1D4F8B802C16809B1E6
:10365000204688478021204600F03AF92046FFF7AF
:10366000C8FE94F8A00201280AD184F8A05207E00D
:10367000D4F8B80242691AB120469047002800D118
:10368000002070BD10B51346044621B194F89C0289
:10369000032823D02AE0D4F8941204F5AA70032951
:1036A00024D1D0E9021291420AD98A1A8260C068F4
:1036B000824200D3024619462046FFF77FFE15E0FE
:1036C00094F89C02032805D1D4F8B802016909B125
:1036D000204688472046FFF7A4FE07E0D4F8B8024A
:1036E00082691AB120469047002800D1002010BD01
:1036F00010B5D0F8C402FDF786FCBDE81040FFF716
:103700003CBFD0F8C402FDF780BC000010B51A49D8
:103710000446C1F8F002C0F8C41218480860082036
:103720004860022088600861002048618861C861A3
:1037300008620846FDF7AAFD08B1FCF774FE0022F6
:10374000D4F8C4021823114604F53174FDF7D0F9FA
:103750005823002280212068FDF7CAF9982300220F
:1037600081212068FDF7C4F9D823002201212068B7
:10377000FDF7BEF9002010BD300A0020005C0040BB
:103780000A0601F07F01D0F8C40201EB810100EBD1
:10379000C10002D590F82A00704790F86A0170477E
:1037A00010B51C461346D0F8C4022246FDF736FC7D
:1037B000BDE81040FFF7E1BE10B5D0F8C402FDF738
:1037C0005DFCBDE81040FFF7D8BE70B5012504468A
:1037D00080F89C520020C4F894026060C4F8A402EF
:1037E000D4F8B802E0B1D4F8BC1221B1426812B1E9
:1037F0000021204690470022402311462046FFF733
:10380000CFFF4026A4F86451334600228021204691
:10381000C4F86061FFF7C4FFA5840020266270BD74
:10382000032070BD90F89C12042903D190F89D12DA
:1038300080F89C120020704710B5D0F8B81221B162
:1038400090F89C22032A02D004E0032010BDC9692D
:1038500001B18847002010BD01740020704710B5E9
:10386000D0F8C402FDF7C4FDBDE81040FFF785BEE7
:1038700070B5044600F2AA20054600F0A1F9012027
:10388000C4F89402B4F8B002C4F8980294F8AA02FA
:1038900010F01F010AD001290ED0022912D000F029
:1038A00080012046BDE8704000F012B8294620464D
:1038B000BDE8704000F016BA29462046BDE87040C9
:1038C00000F03ABB29462046BDE8704000F094BAAB
:1038D00010B5D0F8C402FDF7EAFBBDE81040FFF7D1
:1038E0004CBE10B5D0F8C402FDF79DFDBDE81040F8
:1038F000FFF743BE90F89C1280F89D12042180F8D7
:103900009C120020704710B5D0F8C402FDF7FFFBF1
:10391000BDE81040FFF731BE10B50A46024903A0CA
:10392000FFF707FE004810BDF40F00204D53432061
:10393000436F6E666967000010B5FEF7E7FC002074
:1039400010BD10B5FEF701FD002010BD70B5044696
:103950000121FFF73AFE0025A4F878518121204685
:10396000FFF733FE2587D4F8BC0240B12046FEF7AE
:103970000BFDD4F8BC0200F008FBC4F8BC520020D8
:1039800070BD000012200880004870472800002009
:103990000A21018000487047440100202021018055
:1039A0000048704704010020202101800048704732
:1039B000E4000020202101800048704724010020FD
:1039C00070B5044640F6740000F0E0FAC0B1C4F8E7
:1039D000BC02207C0125C0B14023022201212046E7
:1039E000FFF7DEFEA4F87851402302228121204611
:1039F000FFF7D6FE25872046FEF7CDFC002070BDE0
:103A00000020C4F8BC02022070BD4FF4007633469B
:103A1000022201212046FFF7C3FEA4F87851334665
:103A2000E3E7000010B50A46024903A0FFF781FD55
:103A3000004810BDF40F00204D534320496E7465BB
:103A400072666163650000000420088000487047CA
:103A50002400002010B50A46024903A0FFF769FDC3
:103A6000004810BDF40F002053544D6963726F6518
:103A70006C656374726F6E696373000010B50A46FB
:103A8000024903A0FFF755FD004810BDF40F0020C8
:103A900053544D3332204D6173732053746F7261F0
:103AA0006765000019B1C0F8C012002070470320FC
:103AB0007047000010B51A2008800A480168001DF0
:103AC0000468001D0068081809D008220649FEF79E
:103AD00055FB0549042210312046FEF74FFB0248F2
:103AE000801E10BD9075FF1F3E000020F8B5002518
:103AF000D0F8BC720C460646ADF8005037B12078BD
:103B000010F0600123D0202940D101E00320F8BD4E
:103B10006178FE2902D0FF2938D10EE0618881BB8F
:103B2000E188012932D1000630D5D6F8C00280697B
:103B300080470122394638601FE0618809BBE1886F
:103B4000F9B9000622D43046FEF74BFC23E060783A
:103B500030B1012824D00A2809D00B2816D111E051
:103B600096F89C02032811D10222694605E096F8D6
:103B70009C0203280AD10122391D3046FFF744FC7C
:103B800009E003E096F89C02032806D0214630465F
:103B9000FFF724FC03252846F8BDA0787860FAE7F3
:103BA00096F89C020328F6D160880028F3D1217989
:103BB0003046FFF79DFD21793046FEF789FBEAE7A5
:103BC00070B5054611F8010B2870087868704C1C18
:103BD0002046FFF79AFB6880A41C2046FFF795FB60
:103BE000A880A01CFFF791FBE88070BD38B50446A3
:103BF0000020ADF8000049B1C4F8B812C96A19B183
:103C000068468847C4F8CC02002038BD032038BD80
:103C100002460320D2F8B832002B02D01B681046AF
:103C2000184770472DE9F0410F462C4E8978002542
:103C300004463170012906D939462046FFF7CEFBEC
:103C40000320BDE8F08194F89C0202280CD00328E0
:103C50001DD039462046FFF7C1FB31782046FFF7DB
:103C6000A5FB03252846ECE799B320466160FFF7E2
:103C7000CFFF050004D039462046FFF7AFFBF1E740
:103C80002046FFF7CEFB032084F89C02EAE74FF0C2
:103C90000208C1B1606888421BD0C1B22046FFF75C
:103CA00085FB317820466160FFF7B2FF050010D038
:103CB00039462046FFF792FB21792046FFF776FB35
:103CC00084F89C82CEE784F89C8220466160FFF7EE
:103CD0006DFB2046FFF7A5FBC4E70000A80000200D
:103CE000FFF7FFBD2DE9F0410A78002512F06002D0
:103CF00008D0202A01D0402A71D1D0F8B822926889
:103D0000904731E04B78002201260A2B67D2DFE88A
:103D100003F0415E6658660805662D29FFF78CFBA7
:103D20005FE004468888D8B9C888C8B94888802820
:103D300016D200F07F0794F89C02032810D084F874
:103D40009E7239462046FFF78AFD2046FFF769FB41
:103D50001FB1022084F89C0243E084F89C6240E09A
:103D600020463CE0FFF75EFF05463AE0CB88012B9A
:103D700035D190F89C32012B04D0022B02D0032BBA
:103D80002DD104E08260012200F1080116E0012239
:103D9000011D13E090F89C22012A03D0022A01D0D1
:103DA000032A1CD1CA88022A19D1C660D0F8A412ED
:103DB00009B10321C160022200F10C01FFF724FBCD
:103DC0000FE0498801290CD1C0F8A46211E090F8F5
:103DD0009C32012B08D0022B06D0032B04D0FFF716
:103DE000FDFA2846BDE8F08149880129F9D1C0F8DB
:103DF000A422FFF716FBF4E72DE9F0410D46044637
:103E000028780026097910F060000BD0202801D016
:103E100040286DD1D4F8B8022946826820469047E0
:103E2000064686E06878A8B3012822D003287CD112
:103E300094F89C02022802D0032876D10BE00029D6
:103E400073D0802971D02046FFF742FD80212046A3
:103E5000FFF73EFD6DE0688838B931B1802904D0A4
:103E6000E88810B92046FFF733FD2046FFF7D9FA5E
:103E70005FE094F89C020228E1D0032855D16888BD
:103E8000A8BB480602D02046FFF796FB2046FFF766
:103E9000C8FABFE7FFE794F89C020027022802D087
:103EA000032842D111E009B180293ED1080601F072
:103EB0007F0000EB800004EB800101D5143101E0AC
:103EC00001F5AA7102220F602BE0080601F00F0035
:103ED00000EB800004EB80000BD5808C40B101F03A
:103EE0007F0000EB800004EB800514350CE020E03F
:103EF0001BE0B0F86401C0B101F07F0000EB80006E
:103F000004EB800505F5AA7541B1802906D020464D
:103F1000FFF736FC10B10120286000E02F6002227C
:103F200029462046FFF770FA03E029462046FFF7AE
:103F300055FA3046BDE8F08170B506460878002491
:103F40000D4610F0600003D0202801D0402817D182
:103F500096F89C02012803D0022801D003280FD133
:103F6000287901280CD8D6F8B802826830469047E4
:103F70000446E888204306D13046FFF752FA02E0B3
:103F80003046FFF72BFA204670BD70470048704757
:103F9000B80100202DE9F0470C78002630F82430D5
:103FA00048F68F121340CA78002A7DD0012A7CD0AF
:103FB000022A02D0032A79D0012648F28002134354
:103FC00020F824300D7830F8254048F68F731C40D7
:103FD0002C43144320F825400D7B48F2C00748F6D7
:103FE000BF744CF2800C4BF68F79E5B3CD7891F825
:103FF0000080022DC24630F828507CD048F68F68E9
:1040000005EA080555EA020520F82A50B0F8505094
:1040100091F80080054405EBC805B1F8088028F048
:104020000108A5F80084B0F8505091F800800544CC
:1040300005EBC805B1F80A8028F00108A5F804844A
:104040004D7891F80080002D30F828504FEA454512
:104050007ED0002D06DA30F828501D4045EA0C05C8
:1040600020F8285000E030E091F800C030F82C50E3
:104070006D0605D530F82C501D403D4320F82C50DE
:10408000CB780D78012B30F8253003EA040301D0FA
:1040900083F02003134320F825300B7830F82310E9
:1040A00001EA0901114302E006E00BE007E020F815
:1040B00023103046BDE8F08743F400737DE743F4F6
:1040C000C0637AE743F4806377E74D784DB3B0F887
:1040D000505091F800C0054405EBCC05B1F806C07E
:1040E0002CF0010CA5F800C491F800C030F82C5059
:1040F0006D0607D500E05BE030F82C501D403D43D5
:1041000020F82C50CB78012B06D00B7830F82310F8
:10411000214081F02001C5E70B7830F823102140C1
:10412000C0E7B0F850400D78044404EBC504CD88D6
:1041300025F00105A4F80454B0F850400D7804446B
:1041400004EBC5040D6904F206443E2D0AD900E0D3
:1041500034E06F09ED0600D17F1E4FF4004545EABB
:10416000872508E0E5B16F08ED0700D07F1C4FF60A
:10417000FF7505EA872525800D7830F82540640411
:1041800006D530F825401C4044EA0C0420F82540B0
:104190000B7830F8231001EA090181F4405181E7DE
:1041A000258825F4F8452580258845F40045E2E773
:1041B0001D4048F2801845EA080525E7002D06DA7B
:1041C00030F828501D4045EA0C0520F8285091F899
:1041D00000C030F82C506D0605D530F82C501D402D
:1041E0003D4320F82C500D7830F8253003EA0903C0
:1041F00083F44053134320F825308DE72DE9F04335
:1042000091F80C804F780A7848F6BF7C4BF68F798E
:1042100048F2800348F2C0054CF2800648F68F74DD
:10422000B8F1000F28D0002F30F822704FEA47472E
:1042300048D0002F05DA30F822702740374320F8A5
:1042400022700A7830F822707F0605D530F8227087
:1042500027402F4320F822700D7830F82520224087
:10426000324320F825200C7830F8242002EA0C0292
:104270001A4320F824201AE07FB130F82260760635
:1042800005D530F8226026402E4320F822600A78B7
:1042900030F8221001EA0C010EE030F822506D04D3
:1042A00005D530F822502540354320F822500A78B1
:1042B00030F8221001EA0901194320F822100020E9
:1042C000BDE8F083002F05DA30F82270274037432D
:1042D00020F822700A7830F82260760605D530F88A
:1042E000226026402E4320F822600E7830F82620E7
:1042F00022402A4320F826200C7830F8242002EAB5
:1043000009021A4320F82420C1E730F8581F41F46D
:104310000041018000207047012120F8401F00214A
:104320000180818001820846704730F8401F4BF6BB
:104330008072914301800020704730B50A7BB2BB88
:104340004A7848F68F7548F28004C2B10B7830F88D
:104350002320520607D530F823202A4048F2C00512
:104360002A4320F82320CA78012A20D00A7830F87E
:10437000221048F6BF73194081F0200114E00A783A
:1043800030F822305B0407D530F822302B404CF255
:1043900080052B4320F822300A7830F822104BF6A3
:1043A0008F73194081F44051214320F822100020DE
:1043B00030BD10B54A780978002A48F2800330F8F9
:1043C000212005D048F6BF74224082F0100204E09C
:1043D0004BF68F74224082F480521A4320F8212039
:1043E000002010BD2DE9F0470D464B78097B0446AF
:1043F0004FF0000948F68F7248F2800A4FF40047E8
:104400004FF6FF78012B09D000297DD0E8780228EB
:104410007BD001287AD00120BDE8F087AE692869F9
:10442000864200D9064691B1E97802291ED0286A51
:10443000801B2862287834F820104906B4F8501000
:10444000214401EBC0006ED5A0F80664FFE0B3B2D2
:10445000EA882046696900F035FAB4F850002978F6
:10446000204400EBC100A0F80264F6E0296A814212
:1044700073D9297834F82100104048F28012104393
:1044800024F82100286A801B2862287834F820103C
:104490004906697876D511B1012921D027E0B4F811
:1044A00050103E2E214401EBC00000F2064006D918
:1044B0007109F20600D1491E47EA81210EE036B1AA
:1044C0007108F20700D0491C08EA812106E0018842
:1044D00021F4F8410180018841F40041018006E0A7
:1044E000B4F85020111901EBC000A0F806646A89E5
:1044F000B3B22046696900F0E5F968693044686143
:104500002969286A884202E0CCE0EBE054E102D954
:10451000801B286202E00646C5F82090687818B132
:10452000012824D02BE028E0B4F85000297820445A
:1045300000EBC10000F202403E2E06D97109F206DE
:1045400000D1491E47EA81210FE03EB17108F20710
:1045500000D0491C08EA812107E08EE0018821F49F
:10456000F8410180018841F40041018007E0B4F87E
:1045700050002978204400EBC100A0F802642A8989
:1045800066E0FFE711B1012921D027E0B4F850100F
:104590003E2E214401EBC00000F2024006D9710911
:1045A000F20600D1491E47EA81210EE036B17108BA
:1045B000F20700D0491C08EA812106E0018821F4B5
:1045C000F8410180018841F40041018006E0B4F81F
:1045D0005010214401EBC000A0F802642A89B3B254
:1045E0002046696900F06EF968693044686129699C
:1045F000286A884202D9801B286202E00646C5F874
:104600002090687810B1012830D020E0B4F8500034
:104610002978204400EBC10000F206403E2E06D966
:104620007109F20600D1491E47EA81210EE036B138
:104630007108F20700D0491C08EA812106E00188D0
:1046400021F4F8410180018841F4004101806A8928
:10465000B3B22046696900F035F9297834F82100B1
:1046600048F6BF72104080F03000F8E0B4F8501007
:104670000819297800EBC100E6E62A7834F8220010
:1046800048F68F63184040EA0A0024F82200B4F884
:1046900050002A78204400EBC2008BB2A0F802340C
:1046A0002A89D6E7A9692869814202D9091AA9612C
:1046B000B4E00846C5F81890B0E000BF47EA822091
:1046C0000EE030B14208C00700D0521C08EA822038
:1046D00006E0088820F4F8400880088840F400408C
:1046E0000880B4E00BBBB4F850002978204400EBFC
:1046F000C100296900F202403E2906D94B09C906CA
:1047000000D15B1E47EA83210EE031B14B08C90797
:1047100000D05B1C08EA832106E0018821F4F841FF
:104720000180018841F400410180687810B10128BE
:1047300023D02BE0B4F850002978204400EBC100CE
:10474000296900F206403E2906D94B09C90600D165
:104750005B1E47EA83210EE031B14B08C90700D048
:104760005B1C08EA832106E0018821F4F8410180FE
:10477000018841F40041018008E0B4F850100819A4
:10478000297800EBC100298AA0F80614E86978B3FB
:10479000297834F82100430401D5430603D444F2B8
:1047A0004003184253D134F82100104048F2C002AF
:1047B000104324F821004AE0A9692869814202D9FE
:1047C000091AA96102E00846C5F818900BBBB4F8B5
:1047D00050102A78214401EBC20101F202413E2827
:1047E00007D94209C30600D1521E47EA82220FE0D0
:1047F0002DE030B14208C30700D0521C08EA8222E3
:1048000006E00A8822F4F8420A800A8842F400424C
:104810000A80697811B1012911D018E0B4F850105C
:104820002A78214401EBC20101F206413E287FF6BD
:1048300048AF4209C0067FF441AF521E3EE7B4F8CC
:10484000502011192A7801EBC201A1F80604297839
:1048500034F821004BF68F72104080F4405040EA4B
:104860000A0024F821000020D6E50021A0F8441019
:104870004BF68071A0F84010002070470148FCF70B
:1048800060BC0000300A0020B0F84400704710B54A
:1048900010445C0800F5806008D030F8022B01F865
:1048A000012B120A01F8012B641EF6D1DA0701D0A0
:1048B0000088087010BD11B98021A0F84C100020AC
:1048C0007047000010B55B1C10445B0800F5806069
:1048D0000AD000BF11F8012B11F8014B42EA042263
:1048E00020F8022B5B1EF5D110BDFEE70907090E6B
:1048F000002804DB00F1E02080F80014704700F08D
:104900000F0000F1E02080F8141D704710B54FF43F
:1049100000510348FCF70EF8012800D0002010BD1C
:104920000008004800B587B014216846FBF716FD63
:104930000A48C16C41F00401C164C06C694600F0D2
:10494000040005904FF400500090002001900220D8
:1049500002900348FBF7CAFE07B000BD00100240FA
:104960000008004810B586B014216846FBF7F6FC35
:104970000D48C16C41F00401C164C06C0B4C00F0E7
:1049800004000590002240212046FBF7E0FF402074
:10499000009001200021CDE90101039169462046E4
:1049A000FBF7A4FE06B010BD00100240000800484E
:1049B000044B08B1012200E0002240211846FBF719
:1049C000C6BF00000008004840210148FBF7B7BF00
:1049D0000008004810B5FBF775FE002010BD000070
:1049E00030B5084C0C4408E0002104E014F8015BE9
:1049F00000F8015B491C9142F8D35B1EF4D2002001
:104A000030BD0000008000082DE9F0419046B1FB68
:104A1000F8F5154A86B005FB082605461144B1FB9A
:104A2000F8F0CDE902030120019000200F49009029
:104A30004FF400401C46086104A96846FBF79AFD44
:104A40006CB10027F5E8022331460020FBF7FCFD9E
:104A500008367F1CB7EBD80FF4D3641EF1D106B033
:104A60000020BDE8F0810000008000080020024026
:104A700086B0FBF77FFFFEF74FFCFDF7EFFCFDF77D
:104A800051FDFDF709FDFFF74DFFFFF76BFFFBF74A
:104A900063FF0446FBF760FF144E00BFFBF75CFFAB
:104AA0000546FFF733FF30B1A542F7D305F16404A3
:104AB000FFF78AFFF2E7A542F0D305F10A040022CE
:104AC00069460B48FDF7D4F9002205A90848FDF70F
:104AD000ADF99DF802003178884202D03070012093
:104AE00000E00020FFF764FFD8E70000000000208E
:104AF000900100204FF04070E1EE100A70470080F6
:104B000002021F00000053544D202020202050722C
:104B10006F64756374202020202020202020302EF8
:104B2000303100000000000000000102030406070D
:104B300008090000544B000800000020900100000C
:104B400014020008144C000890010020C81C00004A
:104B500070020008411385391408493A1B085504AE
:104B60001A7D041AB5041A19141A250841170403EA
:104B7000090412013202164083042A572602010258
:104B80000301031A1A0313D3321B08C3041ADD04EA
:104B90001AE1041AE5041AF7041ACF0413FE4A3383
:104BA000081019430115F9185324F41AC1941A4D29
:104BB000045AED98411A39101A4304C11AA9101A5F
:104BC0009D041AB5041A9104140902202008010159
:104BD00004C0320904180A020806500507058102BC
:104BE000D02C070501070914202240292019070BA2
:104BF0001C0907201B0A0645213A40B812021A80F8
:104C0000021B082001322203120812622609121B1D
:044C1000110000008F
:04000005080001D915
:00000001FF
